{
  "_format": "hh-sol-artifact-1",
  "contractName": "BenefitNFTTrade",
  "sourceName": "contracts/BenefitNFTTrade.sol",
  "abi": [
    {
      "anonymous": false,
      "inputs": [
        {
          "indexed": false,
          "internalType": "address",
          "name": "account",
          "type": "address"
        },
        {
          "indexed": false,
          "internalType": "uint256",
          "name": "nftId",
          "type": "uint256"
        },
        {
          "indexed": false,
          "internalType": "address",
          "name": "nftContract",
          "type": "address"
        },
        {
          "indexed": false,
          "internalType": "uint256",
          "name": "noOfTokensForSale",
          "type": "uint256"
        },
        {
          "indexed": false,
          "internalType": "uint256",
          "name": "unitPrice",
          "type": "uint256"
        }
      ],
      "name": "ListedForSale",
      "type": "event"
    },
    {
      "anonymous": false,
      "inputs": [
        {
          "indexed": false,
          "internalType": "address",
          "name": "from",
          "type": "address"
        },
        {
          "indexed": false,
          "internalType": "address",
          "name": "to",
          "type": "address"
        },
        {
          "indexed": false,
          "internalType": "uint256",
          "name": "nftId",
          "type": "uint256"
        },
        {
          "indexed": false,
          "internalType": "address",
          "name": "nftContract",
          "type": "address"
        },
        {
          "indexed": false,
          "internalType": "uint256",
          "name": "tokenCount",
          "type": "uint256"
        },
        {
          "indexed": false,
          "internalType": "uint256",
          "name": "puchaseAmount",
          "type": "uint256"
        }
      ],
      "name": "TokensSold",
      "type": "event"
    },
    {
      "anonymous": false,
      "inputs": [
        {
          "indexed": false,
          "internalType": "address",
          "name": "account",
          "type": "address"
        },
        {
          "indexed": false,
          "internalType": "uint256",
          "name": "nftId",
          "type": "uint256"
        },
        {
          "indexed": false,
          "internalType": "address",
          "name": "nftContract",
          "type": "address"
        }
      ],
      "name": "UnlistedFromSale",
      "type": "event"
    },
    {
      "inputs": [
        {
          "internalType": "uint256",
          "name": "nftId",
          "type": "uint256"
        },
        {
          "internalType": "address",
          "name": "contractAddress",
          "type": "address"
        }
      ],
      "name": "cancelSellOrder",
      "outputs": [],
      "stateMutability": "nonpayable",
      "type": "function"
    },
    {
      "inputs": [
        {
          "internalType": "uint256",
          "name": "nftId",
          "type": "uint256"
        },
        {
          "internalType": "address",
          "name": "contractAddress",
          "type": "address"
        },
        {
          "internalType": "string",
          "name": "nftType",
          "type": "string"
        },
        {
          "internalType": "uint256",
          "name": "noOfTokensToBuy",
          "type": "uint256"
        },
        {
          "internalType": "address payable",
          "name": "tokenOwner",
          "type": "address"
        }
      ],
      "name": "createBuyOrder",
      "outputs": [],
      "stateMutability": "payable",
      "type": "function"
    },
    {
      "inputs": [
        {
          "internalType": "uint256",
          "name": "nftId",
          "type": "uint256"
        },
        {
          "internalType": "address",
          "name": "contractAddress",
          "type": "address"
        },
        {
          "internalType": "string",
          "name": "nftType",
          "type": "string"
        },
        {
          "internalType": "uint256",
          "name": "unitPrice",
          "type": "uint256"
        },
        {
          "internalType": "uint256",
          "name": "noOfTokensForSale",
          "type": "uint256"
        }
      ],
      "name": "createSellOrder",
      "outputs": [],
      "stateMutability": "nonpayable",
      "type": "function"
    },
    {
      "inputs": [
        {
          "internalType": "uint256",
          "name": "nftId",
          "type": "uint256"
        },
        {
          "internalType": "address",
          "name": "contractAddress",
          "type": "address"
        },
        {
          "internalType": "address",
          "name": "listedBy",
          "type": "address"
        }
      ],
      "name": "getOrderByAddress",
      "outputs": [
        {
          "components": [
            {
              "internalType": "address",
              "name": "listedBy",
              "type": "address"
            },
            {
              "internalType": "uint256",
              "name": "quantity",
              "type": "uint256"
            },
            {
              "internalType": "uint256",
              "name": "unitPrice",
              "type": "uint256"
            }
          ],
          "internalType": "struct SellOrderSetLib.SellOrder",
          "name": "",
          "type": "tuple"
        }
      ],
      "stateMutability": "view",
      "type": "function"
    },
    {
      "inputs": [
        {
          "internalType": "uint256",
          "name": "nftId",
          "type": "uint256"
        },
        {
          "internalType": "address",
          "name": "contractAddress",
          "type": "address"
        }
      ],
      "name": "getOrders",
      "outputs": [
        {
          "components": [
            {
              "internalType": "address",
              "name": "listedBy",
              "type": "address"
            },
            {
              "internalType": "uint256",
              "name": "quantity",
              "type": "uint256"
            },
            {
              "internalType": "uint256",
              "name": "unitPrice",
              "type": "uint256"
            }
          ],
          "internalType": "struct SellOrderSetLib.SellOrder[]",
          "name": "",
          "type": "tuple[]"
        }
      ],
      "stateMutability": "view",
      "type": "function"
    }
  ],
  "bytecode": "0x608060405234801561001057600080fd5b50612cba806100206000396000f3fe60806040526004361061004a5760003560e01c80634248b0ca1461004f57806389b5688414610078578063981207f3146100945780639af823df146100d1578063c1fc95821461010e575b600080fd5b34801561005b57600080fd5b506100766004803603810190610071919061197d565b610137565b005b610092600480360381019061008d9190611a52565b6106ba565b005b3480156100a057600080fd5b506100bb60048036038101906100b69190611ae9565b610c4b565b6040516100c89190611b9c565b60405180910390f35b3480156100dd57600080fd5b506100f860048036038101906100f39190611bb7565b610d60565b6040516101059190611ce8565b60405180910390f35b34801561011a57600080fd5b5061013560048036038101906101309190611bb7565b610e53565b005b6000821161017a576040517f08c379a000000000000000000000000000000000000000000000000000000000815260040161017190611d8d565b60405180910390fd5b60006101868686610fb9565b9050600080600083815260200190815260200160002090506101b18682610fec90919063ffffffff16565b156101f1576040517f08c379a00000000000000000000000000000000000000000000000000000000081526004016101e890611e1f565b60405180910390fd5b60405160200161020090611e96565b60405160208183030381529060405280519060200120856040516020016102279190611f11565b60405160208183030381529060405280519060200120036103fd5760008690508073ffffffffffffffffffffffffffffffffffffffff1663e985e9c561026b6110cb565b306040518363ffffffff1660e01b8152600401610289929190611f37565b602060405180830381865afa1580156102a6573d6000803e3d6000fd5b505050506040513d601f19601f820116820180604052508101906102ca9190611f98565b610309576040517f08c379a00000000000000000000000000000000000000000000000000000000081526004016103009061205d565b60405180910390fd5b6103116110cb565b73ffffffffffffffffffffffffffffffffffffffff168173ffffffffffffffffffffffffffffffffffffffff16636352211e8a6040518263ffffffff1660e01b8152600401610360919061208c565b602060405180830381865afa15801561037d573d6000803e3d6000fd5b505050506040513d601f19601f820116820180604052508101906103a191906120bc565b73ffffffffffffffffffffffffffffffffffffffff16146103f7576040517f08c379a00000000000000000000000000000000000000000000000000000000081526004016103ee9061215b565b60405180910390fd5b5061061b565b60405160200161040c906121c7565b60405160208183030381529060405280519060200120856040516020016104339190611f11565b60405160208183030381529060405280519060200120036105df5760008690508073ffffffffffffffffffffffffffffffffffffffff1663e985e9c56104776110cb565b306040518363ffffffff1660e01b8152600401610495929190611f37565b602060405180830381865afa1580156104b2573d6000803e3d6000fd5b505050506040513d601f19601f820116820180604052508101906104d69190611f98565b610515576040517f08c379a000000000000000000000000000000000000000000000000000000000815260040161050c9061205d565b60405180910390fd5b838173ffffffffffffffffffffffffffffffffffffffff1662fdd58e6105396110cb565b8b6040518363ffffffff1660e01b81526004016105579291906121dc565b602060405180830381865afa158015610574573d6000803e3d6000fd5b505050506040513d601f19601f82011682018060405250810190610598919061221a565b10156105d9576040517f08c379a00000000000000000000000000000000000000000000000000000000081526004016105d0906122b9565b60405180910390fd5b5061061a565b6040517f08c379a00000000000000000000000000000000000000000000000000000000081526004016106119061234b565b60405180910390fd5b5b600060405180606001604052806106306110cb565b73ffffffffffffffffffffffffffffffffffffffff16815260200185815260200186815250905061066a81836110d390919063ffffffff16565b7f16a98bb2b1583ce86d49ac50145eb21d482b50592d02bd88ae8c0db433a6a7ec6106936110cb565b898987896040516106a895949392919061236b565b60405180910390a15050505050505050565b60006106c68686610fb9565b9050600080600083815260200190815260200160002090506106f18382610fec90919063ffffffff16565b610730576040517f08c379a000000000000000000000000000000000000000000000000000000000815260040161072790612430565b60405180910390fd5b6000610745848361130a90919063ffffffff16565b9050848160010154101561078e576040517f08c379a0000000000000000000000000000000000000000000000000000000008152600401610785906124c2565b60405180910390fd5b60006107a786836002015461137990919063ffffffff16565b9050803410156107ec576040517f08c379a00000000000000000000000000000000000000000000000000000000081526004016107e390612554565b60405180910390fd5b6040516020016107fb90611e96565b60405160208183030381529060405280519060200120876040516020016108229190611f11565b60405160208183030381529060405280519060200120036109795760008890508073ffffffffffffffffffffffffffffffffffffffff1663e985e9c587306040518363ffffffff1660e01b815260040161087d9291906125d3565b602060405180830381865afa15801561089a573d6000803e3d6000fd5b505050506040513d601f19601f820116820180604052508101906108be9190611f98565b6108fd576040517f08c379a00000000000000000000000000000000000000000000000000000000081526004016108f490612694565b60405180910390fd5b8073ffffffffffffffffffffffffffffffffffffffff166342842e0e876109226110cb565b8d6040518463ffffffff1660e01b8152600401610941939291906126b4565b600060405180830381600087803b15801561095b57600080fd5b505af115801561096f573d6000803e3d6000fd5b5050505050610b44565b604051602001610988906121c7565b60405160208183030381529060405280519060200120876040516020016109af9190611f11565b6040516020818303038152906040528051906020012003610b085760008890508073ffffffffffffffffffffffffffffffffffffffff1663e985e9c587306040518363ffffffff1660e01b8152600401610a0a9291906125d3565b602060405180830381865afa158015610a27573d6000803e3d6000fd5b505050506040513d601f19601f82011682018060405250810190610a4b9190611f98565b610a8a576040517f08c379a0000000000000000000000000000000000000000000000000000000008152600401610a8190612694565b60405180910390fd5b8073ffffffffffffffffffffffffffffffffffffffff1663f242432a87610aaf6110cb565b8d8b6040518563ffffffff1660e01b8152600401610ad09493929190612722565b600060405180830381600087803b158015610aea57600080fd5b505af1158015610afe573d6000803e3d6000fd5b5050505050610b43565b6040517f08c379a0000000000000000000000000000000000000000000000000000000008152600401610b3a9061234b565b60405180910390fd5b5b85826001015403610bdc57610bd7826040518060600160405290816000820160009054906101000a900473ffffffffffffffffffffffffffffffffffffffff1673ffffffffffffffffffffffffffffffffffffffff1673ffffffffffffffffffffffffffffffffffffffff168152602001600182015481526020016002820154815250508461138f90919063ffffffff16565b610bf8565b85826001016000828254610bf091906127a9565b925050819055505b7f3b5542a5d0a976f1e06ef7575730188881a4de654187b9223f9e166496f1b04085610c226110cb565b8b8b8a34604051610c38969594939291906127dd565b60405180910390a1505050505050505050565b610c53611758565b6000610c5f8585610fb9565b905060008060008381526020019081526020016000209050610c8a8482610fec90919063ffffffff16565b15610d2057610ca2848261130a90919063ffffffff16565b6040518060600160405290816000820160009054906101000a900473ffffffffffffffffffffffffffffffffffffffff1673ffffffffffffffffffffffffffffffffffffffff1673ffffffffffffffffffffffffffffffffffffffff1681526020016001820154815260200160028201548152505092505050610d59565b6040518060600160405280600073ffffffffffffffffffffffffffffffffffffffff168152602001600081526020016000815250925050505b9392505050565b60606000610d6e8484610fb9565b9050610d8a600080838152602001908152602001600020611653565b805480602002602001604051908101604052809291908181526020016000905b82821015610e4657838290600052602060002090600302016040518060600160405290816000820160009054906101000a900473ffffffffffffffffffffffffffffffffffffffff1673ffffffffffffffffffffffffffffffffffffffff1673ffffffffffffffffffffffffffffffffffffffff1681526020016001820154815260200160028201548152505081526020019060010190610daa565b5050505091505092915050565b6000610e5f8383610fb9565b905060008060008381526020019081526020016000209050610e91610e826110cb565b82610fec90919063ffffffff16565b610ed0576040517f08c379a0000000000000000000000000000000000000000000000000000000008152600401610ec790612430565b60405180910390fd5b610f71610eed610ede6110cb565b8361130a90919063ffffffff16565b6040518060600160405290816000820160009054906101000a900473ffffffffffffffffffffffffffffffffffffffff1673ffffffffffffffffffffffffffffffffffffffff1673ffffffffffffffffffffffffffffffffffffffff168152602001600182015481526020016002820154815250508261138f90919063ffffffff16565b7f96ca746aa69d48c441f22be911676cdb1ad75760ab9721740d4a91968d996b61610f9a6110cb565b8585604051610fab9392919061283e565b60405180910390a150505050565b60008183604051602001610fce9291906128de565b60405160208183030381529060405280519060200120905092915050565b60008083600101805490500361100557600090506110c5565b6000836001018460000160008573ffffffffffffffffffffffffffffffffffffffff1673ffffffffffffffffffffffffffffffffffffffff168152602001908152602001600020548154811061105e5761105d61290a565b5b906000526020600020906003020190508273ffffffffffffffffffffffffffffffffffffffff168160000160009054906101000a900473ffffffffffffffffffffffffffffffffffffffff1673ffffffffffffffffffffffffffffffffffffffff16149150505b92915050565b600033905090565b600073ffffffffffffffffffffffffffffffffffffffff16816000015173ffffffffffffffffffffffffffffffffffffffff1603611146576040517f08c379a000000000000000000000000000000000000000000000000000000000815260040161113d906129ab565b60405180910390fd5b600081602001511161118d576040517f08c379a000000000000000000000000000000000000000000000000000000000815260040161118490612a3d565b60405180910390fd5b60008160400151116111d4576040517f08c379a00000000000000000000000000000000000000000000000000000000081526004016111cb90612acf565b60405180910390fd5b6111de8282611660565b1561121e576040517f08c379a000000000000000000000000000000000000000000000000000000000815260040161121590612b61565b60405180910390fd5b8160010181908060018154018082558091505060019003906000526020600020906003020160009091909190915060008201518160000160006101000a81548173ffffffffffffffffffffffffffffffffffffffff021916908373ffffffffffffffffffffffffffffffffffffffff16021790555060208201518160010155604082015181600201555050600182600101805490506112bd91906127a9565b826000016000836000015173ffffffffffffffffffffffffffffffffffffffff1673ffffffffffffffffffffffffffffffffffffffff168152602001908152602001600020819055505050565b6000826001018360000160008473ffffffffffffffffffffffffffffffffffffffff1673ffffffffffffffffffffffffffffffffffffffff16815260200190815260200160002054815481106113635761136261290a565b5b9060005260206000209060030201905092915050565b600081836113879190612b81565b905092915050565b6113998282611660565b6113d8576040517f08c379a00000000000000000000000000000000000000000000000000000000081526004016113cf90612c35565b60405180910390fd5b60008260010160016113e985611747565b6113f391906127a9565b815481106114045761140361290a565b5b90600052602060002090600302016040518060600160405290816000820160009054906101000a900473ffffffffffffffffffffffffffffffffffffffff1673ffffffffffffffffffffffffffffffffffffffff1673ffffffffffffffffffffffffffffffffffffffff1681526020016001820154815260200160028201548152505090506000836000016000846000015173ffffffffffffffffffffffffffffffffffffffff1673ffffffffffffffffffffffffffffffffffffffff16815260200190815260200160002054905080846000016000846000015173ffffffffffffffffffffffffffffffffffffffff1673ffffffffffffffffffffffffffffffffffffffff16815260200190815260200160002081905550818460010182815481106115345761153361290a565b5b906000526020600020906003020160008201518160000160006101000a81548173ffffffffffffffffffffffffffffffffffffffff021916908373ffffffffffffffffffffffffffffffffffffffff1602179055506020820151816001015560408201518160020155905050836000016000846000015173ffffffffffffffffffffffffffffffffffffffff1673ffffffffffffffffffffffffffffffffffffffff16815260200190815260200160002060009055836001018054806115fd576115fc612c55565b5b6001900381819060005260206000209060030201600080820160006101000a81549073ffffffffffffffffffffffffffffffffffffffff0219169055600182016000905560028201600090555050905550505050565b6000816001019050919050565b6000808360010180549050036116795760009050611741565b600083600101846000016000856000015173ffffffffffffffffffffffffffffffffffffffff1673ffffffffffffffffffffffffffffffffffffffff16815260200190815260200160002054815481106116d6576116d561290a565b5b90600052602060002090600302019050826000015173ffffffffffffffffffffffffffffffffffffffff168160000160009054906101000a900473ffffffffffffffffffffffffffffffffffffffff1673ffffffffffffffffffffffffffffffffffffffff16149150505b92915050565b600081600101805490509050919050565b6040518060600160405280600073ffffffffffffffffffffffffffffffffffffffff16815260200160008152602001600081525090565b6000604051905090565b600080fd5b600080fd5b6000819050919050565b6117b6816117a3565b81146117c157600080fd5b50565b6000813590506117d3816117ad565b92915050565b600073ffffffffffffffffffffffffffffffffffffffff82169050919050565b6000611804826117d9565b9050919050565b611814816117f9565b811461181f57600080fd5b50565b6000813590506118318161180b565b92915050565b600080fd5b600080fd5b6000601f19601f8301169050919050565b7f4e487b7100000000000000000000000000000000000000000000000000000000600052604160045260246000fd5b61188a82611841565b810181811067ffffffffffffffff821117156118a9576118a8611852565b5b80604052505050565b60006118bc61178f565b90506118c88282611881565b919050565b600067ffffffffffffffff8211156118e8576118e7611852565b5b6118f182611841565b9050602081019050919050565b82818337600083830152505050565b600061192061191b846118cd565b6118b2565b90508281526020810184848401111561193c5761193b61183c565b5b6119478482856118fe565b509392505050565b600082601f83011261196457611963611837565b5b813561197484826020860161190d565b91505092915050565b600080600080600060a0868803121561199957611998611799565b5b60006119a7888289016117c4565b95505060206119b888828901611822565b945050604086013567ffffffffffffffff8111156119d9576119d861179e565b5b6119e58882890161194f565b93505060606119f6888289016117c4565b9250506080611a07888289016117c4565b9150509295509295909350565b6000611a1f826117d9565b9050919050565b611a2f81611a14565b8114611a3a57600080fd5b50565b600081359050611a4c81611a26565b92915050565b600080600080600060a08688031215611a6e57611a6d611799565b5b6000611a7c888289016117c4565b9550506020611a8d88828901611822565b945050604086013567ffffffffffffffff811115611aae57611aad61179e565b5b611aba8882890161194f565b9350506060611acb888289016117c4565b9250506080611adc88828901611a3d565b9150509295509295909350565b600080600060608486031215611b0257611b01611799565b5b6000611b10868287016117c4565b9350506020611b2186828701611822565b9250506040611b3286828701611822565b9150509250925092565b611b45816117f9565b82525050565b611b54816117a3565b82525050565b606082016000820151611b706000850182611b3c565b506020820151611b836020850182611b4b565b506040820151611b966040850182611b4b565b50505050565b6000606082019050611bb16000830184611b5a565b92915050565b60008060408385031215611bce57611bcd611799565b5b6000611bdc858286016117c4565b9250506020611bed85828601611822565b9150509250929050565b600081519050919050565b600082825260208201905092915050565b6000819050602082019050919050565b606082016000820151611c396000850182611b3c565b506020820151611c4c6020850182611b4b565b506040820151611c5f6040850182611b4b565b50505050565b6000611c718383611c23565b60608301905092915050565b6000602082019050919050565b6000611c9582611bf7565b611c9f8185611c02565b9350611caa83611c13565b8060005b83811015611cdb578151611cc28882611c65565b9750611ccd83611c7d565b925050600181019050611cae565b5085935050505092915050565b60006020820190508181036000830152611d028184611c8a565b905092915050565b600082825260208201905092915050565b7f4e465454726164653a205072696365206d75737420626520677265617465722060008201527f7468616e20302e00000000000000000000000000000000000000000000000000602082015250565b6000611d77602783611d0a565b9150611d8282611d1b565b604082019050919050565b60006020820190508181036000830152611da681611d6a565b9050919050565b7f4e465454726164653a20546f6b656e20697320616c7265616479206c6973746560008201527f6420666f722073616c652062792074686520676976656e206f776e6572000000602082015250565b6000611e09603d83611d0a565b9150611e1482611dad565b604082019050919050565b60006020820190508181036000830152611e3881611dfc565b9050919050565b600081905092915050565b7f6572633732310000000000000000000000000000000000000000000000000000600082015250565b6000611e80600683611e3f565b9150611e8b82611e4a565b600682019050919050565b6000611ea182611e73565b9150819050919050565b600081519050919050565b60005b83811015611ed4578082015181840152602081019050611eb9565b60008484015250505050565b6000611eeb82611eab565b611ef58185611e3f565b9350611f05818560208601611eb6565b80840191505092915050565b6000611f1d8284611ee0565b915081905092915050565b611f31816117f9565b82525050565b6000604082019050611f4c6000830185611f28565b611f596020830184611f28565b9392505050565b60008115159050919050565b611f7581611f60565b8114611f8057600080fd5b50565b600081519050611f9281611f6c565b92915050565b600060208284031215611fae57611fad611799565b5b6000611fbc84828501611f83565b91505092915050565b7f4e465454726164653a2043616c6c657220686173206e6f7420617070726f766560008201527f64204e4654547261646520636f6e747261637420666f7220746f6b656e20747260208201527f616e736665722e00000000000000000000000000000000000000000000000000604082015250565b6000612047604783611d0a565b915061205282611fc5565b606082019050919050565b600060208201905081810360008301526120768161203a565b9050919050565b612086816117a3565b82525050565b60006020820190506120a1600083018461207d565b92915050565b6000815190506120b68161180b565b92915050565b6000602082840312156120d2576120d1611799565b5b60006120e0848285016120a7565b91505092915050565b7f4e465454726164653a2043616c6c657220646f6573206e6f74206f776e20746860008201527f6520746f6b656e2e000000000000000000000000000000000000000000000000602082015250565b6000612145602883611d0a565b9150612150826120e9565b604082019050919050565b6000602082019050818103600083015261217481612138565b9050919050565b7f6572633131353500000000000000000000000000000000000000000000000000600082015250565b60006121b1600783611e3f565b91506121bc8261217b565b600782019050919050565b60006121d2826121a4565b9150819050919050565b60006040820190506121f16000830185611f28565b6121fe602083018461207d565b9392505050565b600081519050612214816117ad565b92915050565b6000602082840312156122305761222f611799565b5b600061223e84828501612205565b91505092915050565b7f4e465454726164653a20496e73756666696369656e7420746f6b656e2062616c60008201527f616e63652e000000000000000000000000000000000000000000000000000000602082015250565b60006122a3602583611d0a565b91506122ae82612247565b604082019050919050565b600060208201905081810360008301526122d281612296565b9050919050565b7f4e465454726164653a20556e737570706f7274656420746f6b656e207479706560008201527f2e00000000000000000000000000000000000000000000000000000000000000602082015250565b6000612335602183611d0a565b9150612340826122d9565b604082019050919050565b6000602082019050818103600083015261236481612328565b9050919050565b600060a0820190506123806000830188611f28565b61238d602083018761207d565b61239a6040830186611f28565b6123a7606083018561207d565b6123b4608083018461207d565b9695505050505050565b7f4e465454726164653a20476976656e20746f6b656e206973206e6f74206c697360008201527f74656420666f722073616c6520627920746865206f776e65722e000000000000602082015250565b600061241a603a83611d0a565b9150612425826123be565b604082019050919050565b600060208201905081810360008301526124498161240d565b9050919050565b7f4e465454726164653a20417474656d7074696e6720746f20627579206d6f726560008201527f207468616e20617661696c61626c6520666f722073616c652e00000000000000602082015250565b60006124ac603983611d0a565b91506124b782612450565b604082019050919050565b600060208201905081810360008301526124db8161249f565b9050919050565b7f4e465454726164653a204c657373204554482070726f766964656420666f722060008201527f7468652070757263686173652e00000000000000000000000000000000000000602082015250565b600061253e602d83611d0a565b9150612549826124e2565b604082019050919050565b6000602082019050818103600083015261256d81612531565b9050919050565b6000819050919050565b600061259961259461258f846117d9565b612574565b6117d9565b9050919050565b60006125ab8261257e565b9050919050565b60006125bd826125a0565b9050919050565b6125cd816125b2565b82525050565b60006040820190506125e860008301856125c4565b6125f56020830184611f28565b9392505050565b7f4e465454726164653a2053656c6c6572206861732072656d6f76656564204e4660008201527f54547261646520636f6e74726163747320617070726f76616c20666f7220746f60208201527f6b656e207472616e736665722e00000000000000000000000000000000000000604082015250565b600061267e604d83611d0a565b9150612689826125fc565b606082019050919050565b600060208201905081810360008301526126ad81612671565b9050919050565b60006060820190506126c960008301866125c4565b6126d66020830185611f28565b6126e3604083018461207d565b949350505050565b600082825260208201905092915050565b50565b600061270c6000836126eb565b9150612717826126fc565b600082019050919050565b600060a08201905061273760008301876125c4565b6127446020830186611f28565b612751604083018561207d565b61275e606083018461207d565b818103608083015261276f816126ff565b905095945050505050565b7f4e487b7100000000000000000000000000000000000000000000000000000000600052601160045260246000fd5b60006127b4826117a3565b91506127bf836117a3565b92508282039050818111156127d7576127d661277a565b5b92915050565b600060c0820190506127f260008301896125c4565b6127ff6020830188611f28565b61280c604083018761207d565b6128196060830186611f28565b612826608083018561207d565b61283360a083018461207d565b979650505050505050565b60006060820190506128536000830186611f28565b612860602083018561207d565b61286d6040830184611f28565b949350505050565b60008160601b9050919050565b600061288d82612875565b9050919050565b600061289f82612882565b9050919050565b6128b76128b2826117f9565b612894565b82525050565b6000819050919050565b6128d86128d3826117a3565b6128bd565b82525050565b60006128ea82856128a6565b6014820191506128fa82846128c7565b6020820191508190509392505050565b7f4e487b7100000000000000000000000000000000000000000000000000000000600052603260045260246000fd5b7f4f726465725365744c69622831303029202d2053656c6c204f7264657220636160008201527f6e6e6f74206265206c6973746564206279206164647265737328302900000000602082015250565b6000612995603c83611d0a565b91506129a082612939565b604082019050919050565b600060208201905081810360008301526129c481612988565b9050919050565b7f4f726465725365744c69622831303129202d2053656c6c204f7264657220636160008201527f6e6e6f742068617665203020746f6b656e20636f756e74000000000000000000602082015250565b6000612a27603783611d0a565b9150612a32826129cb565b604082019050919050565b60006020820190508181036000830152612a5681612a1a565b9050919050565b7f4f726465725365744c69622831303229202d2053656c6c204f7264657220636160008201527f6e6e6f742068617665203020746f6b656e207072696365000000000000000000602082015250565b6000612ab9603783611d0a565b9150612ac482612a5d565b604082019050919050565b60006020820190508181036000830152612ae881612aac565b9050919050565b7f4f726465725365744c69622831303329202d204b657920616c7265616479206560008201527f786973747320696e20746865207365742e000000000000000000000000000000602082015250565b6000612b4b603183611d0a565b9150612b5682612aef565b604082019050919050565b60006020820190508181036000830152612b7a81612b3e565b9050919050565b6000612b8c826117a3565b9150612b97836117a3565b9250828202612ba5816117a3565b91508282048414831517612bbc57612bbb61277a565b5b5092915050565b7f4f726465725365744c69622831303429202d2053656c6c204f7264657220646f60008201527f6573206e6f7420657869737420696e20746865207365742e0000000000000000602082015250565b6000612c1f603883611d0a565b9150612c2a82612bc3565b604082019050919050565b60006020820190508181036000830152612c4e81612c12565b9050919050565b7f4e487b7100000000000000000000000000000000000000000000000000000000600052603160045260246000fdfea264697066735822122097c9d8e6d462c13303105da299c17bfac0cfff6805d6aa0981b1f150e1363c8464736f6c63430008110033",
  "linkReferences": {},
  "deployedLinkReferences": {}
}