{
  "_format": "hh-sol-artifact-1",
  "contractName": "YoursBenefitNFT",
  "sourceName": "contracts/YoursBenefitNFT.sol",
  "abi": [
    {
      "inputs": [],
      "stateMutability": "nonpayable",
      "type": "constructor"
    },
    {
      "anonymous": false,
      "inputs": [
        {
          "indexed": true,
          "internalType": "address",
          "name": "owner",
          "type": "address"
        },
        {
          "indexed": true,
          "internalType": "address",
          "name": "approved",
          "type": "address"
        },
        {
          "indexed": true,
          "internalType": "uint256",
          "name": "tokenId",
          "type": "uint256"
        }
      ],
      "name": "Approval",
      "type": "event"
    },
    {
      "anonymous": false,
      "inputs": [
        {
          "indexed": true,
          "internalType": "address",
          "name": "owner",
          "type": "address"
        },
        {
          "indexed": true,
          "internalType": "address",
          "name": "operator",
          "type": "address"
        },
        {
          "indexed": false,
          "internalType": "bool",
          "name": "approved",
          "type": "bool"
        }
      ],
      "name": "ApprovalForAll",
      "type": "event"
    },
    {
      "anonymous": false,
      "inputs": [
        {
          "indexed": false,
          "internalType": "uint256",
          "name": "",
          "type": "uint256"
        }
      ],
      "name": "Burn",
      "type": "event"
    },
    {
      "anonymous": false,
      "inputs": [
        {
          "indexed": false,
          "internalType": "string",
          "name": "",
          "type": "string"
        }
      ],
      "name": "ChangeBenefitsURI",
      "type": "event"
    },
    {
      "anonymous": false,
      "inputs": [
        {
          "indexed": false,
          "internalType": "string",
          "name": "",
          "type": "string"
        }
      ],
      "name": "ChangeTokenUri",
      "type": "event"
    },
    {
      "anonymous": false,
      "inputs": [
        {
          "indexed": false,
          "internalType": "uint256",
          "name": "",
          "type": "uint256"
        }
      ],
      "name": "Mint",
      "type": "event"
    },
    {
      "anonymous": false,
      "inputs": [
        {
          "indexed": true,
          "internalType": "address",
          "name": "from",
          "type": "address"
        },
        {
          "indexed": true,
          "internalType": "address",
          "name": "to",
          "type": "address"
        },
        {
          "indexed": true,
          "internalType": "uint256",
          "name": "tokenId",
          "type": "uint256"
        }
      ],
      "name": "Transfer",
      "type": "event"
    },
    {
      "inputs": [
        {
          "internalType": "address",
          "name": "to",
          "type": "address"
        },
        {
          "internalType": "uint256",
          "name": "tokenId",
          "type": "uint256"
        }
      ],
      "name": "approve",
      "outputs": [],
      "stateMutability": "nonpayable",
      "type": "function"
    },
    {
      "inputs": [
        {
          "internalType": "address",
          "name": "tradeAddress",
          "type": "address"
        }
      ],
      "name": "approveToSell",
      "outputs": [],
      "stateMutability": "nonpayable",
      "type": "function"
    },
    {
      "inputs": [
        {
          "internalType": "address",
          "name": "owner",
          "type": "address"
        }
      ],
      "name": "balanceOf",
      "outputs": [
        {
          "internalType": "uint256",
          "name": "",
          "type": "uint256"
        }
      ],
      "stateMutability": "view",
      "type": "function"
    },
    {
      "inputs": [],
      "name": "benefitURI",
      "outputs": [
        {
          "internalType": "string",
          "name": "",
          "type": "string"
        }
      ],
      "stateMutability": "view",
      "type": "function"
    },
    {
      "inputs": [
        {
          "internalType": "uint256",
          "name": "",
          "type": "uint256"
        },
        {
          "internalType": "uint256",
          "name": "",
          "type": "uint256"
        }
      ],
      "name": "benefits",
      "outputs": [
        {
          "internalType": "uint256",
          "name": "",
          "type": "uint256"
        }
      ],
      "stateMutability": "view",
      "type": "function"
    },
    {
      "inputs": [
        {
          "internalType": "uint256",
          "name": "_id",
          "type": "uint256"
        }
      ],
      "name": "burn",
      "outputs": [],
      "stateMutability": "nonpayable",
      "type": "function"
    },
    {
      "inputs": [
        {
          "internalType": "uint256[]",
          "name": "_ids",
          "type": "uint256[]"
        },
        {
          "internalType": "uint256[]",
          "name": "_newBenefits",
          "type": "uint256[]"
        }
      ],
      "name": "changeBatchBenefits",
      "outputs": [],
      "stateMutability": "nonpayable",
      "type": "function"
    },
    {
      "inputs": [
        {
          "internalType": "uint256",
          "name": "_id",
          "type": "uint256"
        },
        {
          "internalType": "uint256[]",
          "name": "_newBenefits",
          "type": "uint256[]"
        }
      ],
      "name": "changeSingleBenefits",
      "outputs": [],
      "stateMutability": "nonpayable",
      "type": "function"
    },
    {
      "inputs": [
        {
          "internalType": "uint256",
          "name": "",
          "type": "uint256"
        }
      ],
      "name": "defaultBenefit",
      "outputs": [
        {
          "internalType": "uint128",
          "name": "",
          "type": "uint128"
        }
      ],
      "stateMutability": "view",
      "type": "function"
    },
    {
      "inputs": [],
      "name": "factory",
      "outputs": [
        {
          "internalType": "address",
          "name": "",
          "type": "address"
        }
      ],
      "stateMutability": "view",
      "type": "function"
    },
    {
      "inputs": [
        {
          "internalType": "uint256",
          "name": "tokenId",
          "type": "uint256"
        }
      ],
      "name": "getApproved",
      "outputs": [
        {
          "internalType": "address",
          "name": "",
          "type": "address"
        }
      ],
      "stateMutability": "view",
      "type": "function"
    },
    {
      "inputs": [
        {
          "internalType": "address",
          "name": "_owner",
          "type": "address"
        },
        {
          "internalType": "string",
          "name": "_name",
          "type": "string"
        },
        {
          "internalType": "string",
          "name": "_symbol",
          "type": "string"
        },
        {
          "internalType": "string",
          "name": "_uri",
          "type": "string"
        },
        {
          "internalType": "string",
          "name": "_benefitURI",
          "type": "string"
        },
        {
          "internalType": "uint128[]",
          "name": "_defaultBenefit",
          "type": "uint128[]"
        }
      ],
      "name": "initialize",
      "outputs": [],
      "stateMutability": "nonpayable",
      "type": "function"
    },
    {
      "inputs": [
        {
          "internalType": "address",
          "name": "owner",
          "type": "address"
        },
        {
          "internalType": "address",
          "name": "operator",
          "type": "address"
        }
      ],
      "name": "isApprovedForAll",
      "outputs": [
        {
          "internalType": "bool",
          "name": "",
          "type": "bool"
        }
      ],
      "stateMutability": "view",
      "type": "function"
    },
    {
      "inputs": [
        {
          "internalType": "address",
          "name": "_to",
          "type": "address"
        }
      ],
      "name": "mint",
      "outputs": [],
      "stateMutability": "nonpayable",
      "type": "function"
    },
    {
      "inputs": [],
      "name": "name",
      "outputs": [
        {
          "internalType": "string",
          "name": "",
          "type": "string"
        }
      ],
      "stateMutability": "view",
      "type": "function"
    },
    {
      "inputs": [],
      "name": "owner",
      "outputs": [
        {
          "internalType": "address",
          "name": "",
          "type": "address"
        }
      ],
      "stateMutability": "view",
      "type": "function"
    },
    {
      "inputs": [
        {
          "internalType": "uint256",
          "name": "tokenId",
          "type": "uint256"
        }
      ],
      "name": "ownerOf",
      "outputs": [
        {
          "internalType": "address",
          "name": "",
          "type": "address"
        }
      ],
      "stateMutability": "view",
      "type": "function"
    },
    {
      "inputs": [
        {
          "internalType": "address",
          "name": "from",
          "type": "address"
        },
        {
          "internalType": "address",
          "name": "to",
          "type": "address"
        },
        {
          "internalType": "uint256",
          "name": "tokenId",
          "type": "uint256"
        }
      ],
      "name": "safeTransferFrom",
      "outputs": [],
      "stateMutability": "nonpayable",
      "type": "function"
    },
    {
      "inputs": [
        {
          "internalType": "address",
          "name": "from",
          "type": "address"
        },
        {
          "internalType": "address",
          "name": "to",
          "type": "address"
        },
        {
          "internalType": "uint256",
          "name": "tokenId",
          "type": "uint256"
        },
        {
          "internalType": "bytes",
          "name": "data",
          "type": "bytes"
        }
      ],
      "name": "safeTransferFrom",
      "outputs": [],
      "stateMutability": "nonpayable",
      "type": "function"
    },
    {
      "inputs": [
        {
          "internalType": "address",
          "name": "operator",
          "type": "address"
        },
        {
          "internalType": "bool",
          "name": "approved",
          "type": "bool"
        }
      ],
      "name": "setApprovalForAll",
      "outputs": [],
      "stateMutability": "nonpayable",
      "type": "function"
    },
    {
      "inputs": [
        {
          "internalType": "string",
          "name": "_uri",
          "type": "string"
        }
      ],
      "name": "setBenefitsURI",
      "outputs": [],
      "stateMutability": "nonpayable",
      "type": "function"
    },
    {
      "inputs": [
        {
          "internalType": "uint256[]",
          "name": "_ids",
          "type": "uint256[]"
        },
        {
          "internalType": "uint8",
          "name": "_lock",
          "type": "uint8"
        }
      ],
      "name": "setLock",
      "outputs": [],
      "stateMutability": "nonpayable",
      "type": "function"
    },
    {
      "inputs": [
        {
          "internalType": "address",
          "name": "_newAdd",
          "type": "address"
        }
      ],
      "name": "setOwner",
      "outputs": [],
      "stateMutability": "nonpayable",
      "type": "function"
    },
    {
      "inputs": [
        {
          "internalType": "string",
          "name": "_newTokenUri",
          "type": "string"
        }
      ],
      "name": "setTokenUri",
      "outputs": [],
      "stateMutability": "nonpayable",
      "type": "function"
    },
    {
      "inputs": [
        {
          "internalType": "bytes4",
          "name": "interfaceId",
          "type": "bytes4"
        }
      ],
      "name": "supportsInterface",
      "outputs": [
        {
          "internalType": "bool",
          "name": "",
          "type": "bool"
        }
      ],
      "stateMutability": "view",
      "type": "function"
    },
    {
      "inputs": [],
      "name": "symbol",
      "outputs": [
        {
          "internalType": "string",
          "name": "",
          "type": "string"
        }
      ],
      "stateMutability": "view",
      "type": "function"
    },
    {
      "inputs": [
        {
          "internalType": "uint256",
          "name": "index",
          "type": "uint256"
        }
      ],
      "name": "tokenByIndex",
      "outputs": [
        {
          "internalType": "uint256",
          "name": "",
          "type": "uint256"
        }
      ],
      "stateMutability": "view",
      "type": "function"
    },
    {
      "inputs": [
        {
          "internalType": "address",
          "name": "owner",
          "type": "address"
        },
        {
          "internalType": "uint256",
          "name": "index",
          "type": "uint256"
        }
      ],
      "name": "tokenOfOwnerByIndex",
      "outputs": [
        {
          "internalType": "uint256",
          "name": "",
          "type": "uint256"
        }
      ],
      "stateMutability": "view",
      "type": "function"
    },
    {
      "inputs": [
        {
          "internalType": "uint256",
          "name": "_id",
          "type": "uint256"
        }
      ],
      "name": "tokenURI",
      "outputs": [
        {
          "internalType": "string",
          "name": "",
          "type": "string"
        }
      ],
      "stateMutability": "view",
      "type": "function"
    },
    {
      "inputs": [],
      "name": "totalSupply",
      "outputs": [
        {
          "internalType": "uint256",
          "name": "",
          "type": "uint256"
        }
      ],
      "stateMutability": "view",
      "type": "function"
    },
    {
      "inputs": [
        {
          "internalType": "address",
          "name": "from",
          "type": "address"
        },
        {
          "internalType": "address",
          "name": "to",
          "type": "address"
        },
        {
          "internalType": "uint256",
          "name": "tokenId",
          "type": "uint256"
        }
      ],
      "name": "transferFrom",
      "outputs": [],
      "stateMutability": "nonpayable",
      "type": "function"
    }
  ],
  "bytecode": "0x608060405234801561001057600080fd5b506001600a60006101000a81548160ff021916908360ff1602179055506145e28061003c6000396000f3fe608060405234801561001057600080fd5b50600436106101e55760003560e01c80636352211e1161010f578063a737d818116100a2578063c87b56dd11610071578063c87b56dd14610576578063c91712c9146105a6578063e985e9c5146105c2578063fb80dbee146105f2576101e5565b8063a737d818146104f0578063acf0bd401461050c578063b88d4fde1461053c578063c45a015514610558576101e5565b80638da5cb5b116100de5780638da5cb5b1461047c57806395d89b411461049a578063a22cb465146104b8578063a6e1a894146104d4576101e5565b80636352211e146103e25780636a6278421461041257806370a082311461042e578063720b0df01461045e576101e5565b806323b872dd1161018757806342842e0e1161015657806342842e0e1461035e57806342966c681461037a5780634f6ccce7146103965780634ffb5583146103c6576101e5565b806323b872dd146102da578063291fad32146102f65780632e5a55c9146103125780632f745c591461032e576101e5565b8063081812fc116101c3578063081812fc14610254578063095ea7b31461028457806313af4035146102a057806318160ddd146102bc576101e5565b806301ffc9a7146101ea5780630675b7c61461021a57806306fdde0314610236575b600080fd5b61020460048036038101906101ff9190612bcb565b610622565b6040516102119190612c13565b60405180910390f35b610234600480360381019061022f9190612d74565b61069c565b005b61023e6106ee565b60405161024b9190612e3c565b60405180910390f35b61026e60048036038101906102699190612e94565b610780565b60405161027b9190612f02565b60405180910390f35b61029e60048036038101906102999190612f49565b6107c6565b005b6102ba60048036038101906102b59190612f89565b6108dd565b005b6102c4610929565b6040516102d19190612fc5565b60405180910390f35b6102f460048036038101906102ef9190612fe0565b610936565b005b610310600480360381019061030b9190612f89565b610996565b005b61032c60048036038101906103279190613143565b6109ac565b005b61034860048036038101906103439190612f49565b610b65565b6040516103559190612fc5565b60405180910390f35b61037860048036038101906103739190612fe0565b610c0a565b005b610394600480360381019061038f9190612e94565b610c2a565b005b6103b060048036038101906103ab9190612e94565b610ce9565b6040516103bd9190612fc5565b60405180910390f35b6103e060048036038101906103db9190613358565b610d5a565b005b6103fc60048036038101906103f79190612e94565b610dcc565b6040516104099190612f02565b60405180910390f35b61042c60048036038101906104279190612f89565b610e52565b005b61044860048036038101906104439190612f89565b610fc8565b6040516104559190612fc5565b60405180910390f35b61046661107f565b6040516104739190612e3c565b60405180910390f35b61048461110d565b6040516104919190612f02565b60405180910390f35b6104a2611133565b6040516104af9190612e3c565b60405180910390f35b6104d260048036038101906104cd91906133e0565b6111c5565b005b6104ee60048036038101906104e99190613420565b6111db565b005b61050a60048036038101906105059190613498565b611249565b005b610526600480360381019061052191906134f4565b61127d565b6040516105339190612fc5565b60405180910390f35b610556600480360381019061055191906135d5565b6112ae565b005b610560611310565b60405161056d9190612f02565b60405180910390f35b610590600480360381019061058b9190612e94565b611336565b60405161059d9190612e3c565b60405180910390f35b6105c060048036038101906105bb9190612d74565b6113ca565b005b6105dc60048036038101906105d79190613658565b61141c565b6040516105e99190612c13565b60405180910390f35b61060c60048036038101906106079190612e94565b6114b0565b60405161061991906136a7565b60405180910390f35b60007f780e9d63000000000000000000000000000000000000000000000000000000007bffffffffffffffffffffffffffffffffffffffffffffffffffffffff1916827bffffffffffffffffffffffffffffffffffffffffffffffffffffffff191614806106955750610694826114f6565b5b9050919050565b6106a46115d8565b80600f90816106b391906138ce565b507f6fc65e1f11a83c81a8f3600c22e0f268d8f2393e316d31232209cb9ee1ee5c45816040516106e39190612e3c565b60405180910390a150565b6060600080546106fd906136f1565b80601f0160208091040260200160405190810160405280929190818152602001828054610729906136f1565b80156107765780601f1061074b57610100808354040283529160200191610776565b820191906000526020600020905b81548152906001019060200180831161075957829003601f168201915b5050505050905090565b600061078b8261166a565b6004600083815260200190815260200160002060009054906101000a900473ffffffffffffffffffffffffffffffffffffffff169050919050565b60006107d182610dcc565b90508073ffffffffffffffffffffffffffffffffffffffff168373ffffffffffffffffffffffffffffffffffffffff1603610841576040517f08c379a000000000000000000000000000000000000000000000000000000000815260040161083890613a12565b60405180910390fd5b8073ffffffffffffffffffffffffffffffffffffffff166108606116b5565b73ffffffffffffffffffffffffffffffffffffffff16148061088f575061088e816108896116b5565b61141c565b5b6108ce576040517f08c379a00000000000000000000000000000000000000000000000000000000081526004016108c590613aa4565b60405180910390fd5b6108d883836116bd565b505050565b6108e5611776565b80600c60006101000a81548173ffffffffffffffffffffffffffffffffffffffff021916908373ffffffffffffffffffffffffffffffffffffffff16021790555050565b6000600880549050905090565b6109476109416116b5565b82611808565b610986576040517f08c379a000000000000000000000000000000000000000000000000000000000815260040161097d90613b36565b60405180910390fd5b61099183838361189d565b505050565b61099e611776565b6109a98160016111c5565b50565b6000600a60009054906101000a900460ff1660ff1614610a01576040517f08c379a00000000000000000000000000000000000000000000000000000000081526004016109f890613ba2565b60405180910390fd5b600073ffffffffffffffffffffffffffffffffffffffff16600c60009054906101000a900473ffffffffffffffffffffffffffffffffffffffff1673ffffffffffffffffffffffffffffffffffffffff1614610a92576040517f08c379a0000000000000000000000000000000000000000000000000000000008152600401610a8990613c0e565b60405180910390fd5b85600c60006101000a81548173ffffffffffffffffffffffffffffffffffffffff021916908373ffffffffffffffffffffffffffffffffffffffff16021790555033600d60006101000a81548173ffffffffffffffffffffffffffffffffffffffff021916908373ffffffffffffffffffffffffffffffffffffffff1602179055506000600e8190555082600f9081610b2b91906138ce565b508160109081610b3b91906138ce565b5080600b9080519060200190610b52929190612a00565b50610b5d8585611b96565b505050505050565b6000610b7083610fc8565b8210610bb1576040517f08c379a0000000000000000000000000000000000000000000000000000000008152600401610ba890613ca0565b60405180910390fd5b600660008473ffffffffffffffffffffffffffffffffffffffff1673ffffffffffffffffffffffffffffffffffffffff168152602001908152602001600020600083815260200190815260200160002054905092915050565b610c25838383604051806020016040528060008152506112ae565b505050565b6000600a60009054906101000a900460ff1660ff1614610c7f576040517f08c379a0000000000000000000000000000000000000000000000000000000008152600401610c7690613d0c565b60405180910390fd5b610c87611776565b601160008281526020019081526020016000206000610ca69190612ad4565b610caf81611bba565b7fb90306ad06b2a6ff86ddc9327db583062895ef6540e62dc50add009db5b356eb81604051610cde9190612fc5565b60405180910390a150565b6000610cf3610929565b8210610d34576040517f08c379a0000000000000000000000000000000000000000000000000000000008152600401610d2b90613d9e565b60405180910390fd5b60088281548110610d4857610d47613dbe565b5b90600052602060002001549050919050565b610d626115d8565b60005b8251811015610dc7578160126000858481518110610d8657610d85613dbe565b5b6020026020010151815260200190815260200160002060006101000a81548160ff021916908360ff1602179055508080610dbf90613e1c565b915050610d65565b505050565b600080610dd883611d08565b9050600073ffffffffffffffffffffffffffffffffffffffff168173ffffffffffffffffffffffffffffffffffffffff1603610e49576040517f08c379a0000000000000000000000000000000000000000000000000000000008152600401610e4090613eb0565b60405180910390fd5b80915050919050565b6000600a60009054906101000a900460ff1660ff1614610ea7576040517f08c379a0000000000000000000000000000000000000000000000000000000008152600401610e9e90613d0c565b60405180910390fd5b610eaf611776565b6000600e60008154610ec090613e1c565b9190508190559050600060116000838152602001908152602001600020905060005b600b80549050811015610f815781600b8281548110610f0457610f03613dbe565b5b90600052602060002090600291828204019190066010029054906101000a90046fffffffffffffffffffffffffffffffff1690806001815401808255809150506001900390600052602060002001600090916fffffffffffffffffffffffffffffffff169091909150558080610f7990613e1c565b915050610ee2565b50610f8c8383611d45565b7f07883703ed0e86588a40d76551c92f8a4b329e3bf19765e0e6749473c1a8466582604051610fbb9190612fc5565b60405180910390a1505050565b60008073ffffffffffffffffffffffffffffffffffffffff168273ffffffffffffffffffffffffffffffffffffffff1603611038576040517f08c379a000000000000000000000000000000000000000000000000000000000815260040161102f90613f42565b60405180910390fd5b600360008373ffffffffffffffffffffffffffffffffffffffff1673ffffffffffffffffffffffffffffffffffffffff168152602001908152602001600020549050919050565b6010805461108c906136f1565b80601f01602080910402602001604051908101604052809291908181526020018280546110b8906136f1565b80156111055780601f106110da57610100808354040283529160200191611105565b820191906000526020600020905b8154815290600101906020018083116110e857829003601f168201915b505050505081565b600c60009054906101000a900473ffffffffffffffffffffffffffffffffffffffff1681565b606060018054611142906136f1565b80601f016020809104026020016040519081016040528092919081815260200182805461116e906136f1565b80156111bb5780601f10611190576101008083540402835291602001916111bb565b820191906000526020600020905b81548152906001019060200180831161119e57829003601f168201915b5050505050905090565b6111d76111d06116b5565b8383611d63565b5050565b6111e3611776565b60005b825181101561124457816011600085848151811061120757611206613dbe565b5b602002602001015181526020019081526020016000209080519060200190611230929190612af5565b50808061123c90613e1c565b9150506111e6565b505050565b611251611776565b80601160008481526020019081526020016000209080519060200190611278929190612af5565b505050565b6011602052816000526040600020818154811061129957600080fd5b90600052602060002001600091509150505481565b6112bf6112b96116b5565b83611808565b6112fe576040517f08c379a00000000000000000000000000000000000000000000000000000000081526004016112f590613b36565b60405180910390fd5b61130a84848484611ecf565b50505050565b600d60009054906101000a900473ffffffffffffffffffffffffffffffffffffffff1681565b6060600f8054611345906136f1565b80601f0160208091040260200160405190810160405280929190818152602001828054611371906136f1565b80156113be5780601f10611393576101008083540402835291602001916113be565b820191906000526020600020905b8154815290600101906020018083116113a157829003601f168201915b50505050509050919050565b6113d2611776565b80601090816113e191906138ce565b507f3c8300f5e3cd88a366686ee66dc25f0bd916b46b64ffff5b887230430cdbf738816040516114119190612e3c565b60405180910390a150565b6000600560008473ffffffffffffffffffffffffffffffffffffffff1673ffffffffffffffffffffffffffffffffffffffff16815260200190815260200160002060008373ffffffffffffffffffffffffffffffffffffffff1673ffffffffffffffffffffffffffffffffffffffff16815260200190815260200160002060009054906101000a900460ff16905092915050565b600b81815481106114c057600080fd5b9060005260206000209060029182820401919006601002915054906101000a90046fffffffffffffffffffffffffffffffff1681565b60007f80ac58cd000000000000000000000000000000000000000000000000000000007bffffffffffffffffffffffffffffffffffffffffffffffffffffffff1916827bffffffffffffffffffffffffffffffffffffffffffffffffffffffff191614806115c157507f5b5e139f000000000000000000000000000000000000000000000000000000007bffffffffffffffffffffffffffffffffffffffffffffffffffffffff1916827bffffffffffffffffffffffffffffffffffffffffffffffffffffffff1916145b806115d157506115d082611f2b565b5b9050919050565b3373ffffffffffffffffffffffffffffffffffffffff16600d60009054906101000a900473ffffffffffffffffffffffffffffffffffffffff1673ffffffffffffffffffffffffffffffffffffffff1614611668576040517f08c379a000000000000000000000000000000000000000000000000000000000815260040161165f90613fae565b60405180910390fd5b565b61167381611f95565b6116b2576040517f08c379a00000000000000000000000000000000000000000000000000000000081526004016116a990613eb0565b60405180910390fd5b50565b600033905090565b816004600083815260200190815260200160002060006101000a81548173ffffffffffffffffffffffffffffffffffffffff021916908373ffffffffffffffffffffffffffffffffffffffff160217905550808273ffffffffffffffffffffffffffffffffffffffff1661173083610dcc565b73ffffffffffffffffffffffffffffffffffffffff167f8c5be1e5ebec7d5bd14f71427d1e84f3dd0314c0f7b2291e5b200ac8c7c3b92560405160405180910390a45050565b3373ffffffffffffffffffffffffffffffffffffffff16600c60009054906101000a900473ffffffffffffffffffffffffffffffffffffffff1673ffffffffffffffffffffffffffffffffffffffff1614611806576040517f08c379a00000000000000000000000000000000000000000000000000000000081526004016117fd9061401a565b60405180910390fd5b565b60008061181483610dcc565b90508073ffffffffffffffffffffffffffffffffffffffff168473ffffffffffffffffffffffffffffffffffffffff1614806118565750611855818561141c565b5b8061189457508373ffffffffffffffffffffffffffffffffffffffff1661187c84610780565b73ffffffffffffffffffffffffffffffffffffffff16145b91505092915050565b8273ffffffffffffffffffffffffffffffffffffffff166118bd82610dcc565b73ffffffffffffffffffffffffffffffffffffffff1614611913576040517f08c379a000000000000000000000000000000000000000000000000000000000815260040161190a906140ac565b60405180910390fd5b600073ffffffffffffffffffffffffffffffffffffffff168273ffffffffffffffffffffffffffffffffffffffff1603611982576040517f08c379a00000000000000000000000000000000000000000000000000000000081526004016119799061413e565b60405180910390fd5b61198f8383836001611fd6565b8273ffffffffffffffffffffffffffffffffffffffff166119af82610dcc565b73ffffffffffffffffffffffffffffffffffffffff1614611a05576040517f08c379a00000000000000000000000000000000000000000000000000000000081526004016119fc906140ac565b60405180910390fd5b6004600082815260200190815260200160002060006101000a81549073ffffffffffffffffffffffffffffffffffffffff02191690556001600360008573ffffffffffffffffffffffffffffffffffffffff1673ffffffffffffffffffffffffffffffffffffffff168152602001908152602001600020600082825403925050819055506001600360008473ffffffffffffffffffffffffffffffffffffffff1673ffffffffffffffffffffffffffffffffffffffff16815260200190815260200160002060008282540192505081905550816002600083815260200190815260200160002060006101000a81548173ffffffffffffffffffffffffffffffffffffffff021916908373ffffffffffffffffffffffffffffffffffffffff160217905550808273ffffffffffffffffffffffffffffffffffffffff168473ffffffffffffffffffffffffffffffffffffffff167fddf252ad1be2c89b69c2b068fc378daa952ba7f163c4a11628f55a4df523b3ef60405160405180910390a4611b91838383600161204e565b505050565b8160009081611ba591906138ce565b508060019081611bb591906138ce565b505050565b6000611bc582610dcc565b9050611bd5816000846001611fd6565b611bde82610dcc565b90506004600083815260200190815260200160002060006101000a81549073ffffffffffffffffffffffffffffffffffffffff02191690556001600360008373ffffffffffffffffffffffffffffffffffffffff1673ffffffffffffffffffffffffffffffffffffffff168152602001908152602001600020600082825403925050819055506002600083815260200190815260200160002060006101000a81549073ffffffffffffffffffffffffffffffffffffffff021916905581600073ffffffffffffffffffffffffffffffffffffffff168273ffffffffffffffffffffffffffffffffffffffff167fddf252ad1be2c89b69c2b068fc378daa952ba7f163c4a11628f55a4df523b3ef60405160405180910390a4611d0481600084600161204e565b5050565b60006002600083815260200190815260200160002060009054906101000a900473ffffffffffffffffffffffffffffffffffffffff169050919050565b611d5f828260405180602001604052806000815250612054565b5050565b8173ffffffffffffffffffffffffffffffffffffffff168373ffffffffffffffffffffffffffffffffffffffff1603611dd1576040517f08c379a0000000000000000000000000000000000000000000000000000000008152600401611dc8906141aa565b60405180910390fd5b80600560008573ffffffffffffffffffffffffffffffffffffffff1673ffffffffffffffffffffffffffffffffffffffff16815260200190815260200160002060008473ffffffffffffffffffffffffffffffffffffffff1673ffffffffffffffffffffffffffffffffffffffff16815260200190815260200160002060006101000a81548160ff0219169083151502179055508173ffffffffffffffffffffffffffffffffffffffff168373ffffffffffffffffffffffffffffffffffffffff167f17307eab39ab6107e8899845ad3d59bd9653f200f220920489ca2b5937696c3183604051611ec29190612c13565b60405180910390a3505050565b611eda84848461189d565b611ee6848484846120af565b611f25576040517f08c379a0000000000000000000000000000000000000000000000000000000008152600401611f1c9061423c565b60405180910390fd5b50505050565b60007f01ffc9a7000000000000000000000000000000000000000000000000000000007bffffffffffffffffffffffffffffffffffffffffffffffffffffffff1916827bffffffffffffffffffffffffffffffffffffffffffffffffffffffff1916149050919050565b60008073ffffffffffffffffffffffffffffffffffffffff16611fb783611d08565b73ffffffffffffffffffffffffffffffffffffffff1614159050919050565b60006012600084815260200190815260200160002060009054906101000a900460ff1660ff161461203c576040517f08c379a0000000000000000000000000000000000000000000000000000000008152600401612033906142a8565b60405180910390fd5b61204884848484612236565b50505050565b50505050565b61205e8383612394565b61206b60008484846120af565b6120aa576040517f08c379a00000000000000000000000000000000000000000000000000000000081526004016120a19061423c565b60405180910390fd5b505050565b60006120d08473ffffffffffffffffffffffffffffffffffffffff166125b1565b15612229578373ffffffffffffffffffffffffffffffffffffffff1663150b7a026120f96116b5565b8786866040518563ffffffff1660e01b815260040161211b949392919061431d565b6020604051808303816000875af192505050801561215757506040513d601f19601f82011682018060405250810190612154919061437e565b60015b6121d9573d8060008114612187576040519150601f19603f3d011682016040523d82523d6000602084013e61218c565b606091505b5060008151036121d1576040517f08c379a00000000000000000000000000000000000000000000000000000000081526004016121c89061423c565b60405180910390fd5b805181602001fd5b63150b7a0260e01b7bffffffffffffffffffffffffffffffffffffffffffffffffffffffff1916817bffffffffffffffffffffffffffffffffffffffffffffffffffffffff19161491505061222e565b600190505b949350505050565b612242848484846125d4565b6001811115612286576040517f08c379a000000000000000000000000000000000000000000000000000000000815260040161227d9061441d565b60405180910390fd5b6000829050600073ffffffffffffffffffffffffffffffffffffffff168573ffffffffffffffffffffffffffffffffffffffff16036122cd576122c8816126fa565b61230c565b8373ffffffffffffffffffffffffffffffffffffffff168573ffffffffffffffffffffffffffffffffffffffff161461230b5761230a8582612743565b5b5b600073ffffffffffffffffffffffffffffffffffffffff168473ffffffffffffffffffffffffffffffffffffffff160361234e57612349816128b0565b61238d565b8473ffffffffffffffffffffffffffffffffffffffff168473ffffffffffffffffffffffffffffffffffffffff161461238c5761238b8482612981565b5b5b5050505050565b600073ffffffffffffffffffffffffffffffffffffffff168273ffffffffffffffffffffffffffffffffffffffff1603612403576040517f08c379a00000000000000000000000000000000000000000000000000000000081526004016123fa90614489565b60405180910390fd5b61240c81611f95565b1561244c576040517f08c379a0000000000000000000000000000000000000000000000000000000008152600401612443906144f5565b60405180910390fd5b61245a600083836001611fd6565b61246381611f95565b156124a3576040517f08c379a000000000000000000000000000000000000000000000000000000000815260040161249a906144f5565b60405180910390fd5b6001600360008473ffffffffffffffffffffffffffffffffffffffff1673ffffffffffffffffffffffffffffffffffffffff16815260200190815260200160002060008282540192505081905550816002600083815260200190815260200160002060006101000a81548173ffffffffffffffffffffffffffffffffffffffff021916908373ffffffffffffffffffffffffffffffffffffffff160217905550808273ffffffffffffffffffffffffffffffffffffffff16600073ffffffffffffffffffffffffffffffffffffffff167fddf252ad1be2c89b69c2b068fc378daa952ba7f163c4a11628f55a4df523b3ef60405160405180910390a46125ad60008383600161204e565b5050565b6000808273ffffffffffffffffffffffffffffffffffffffff163b119050919050565b60018111156126f457600073ffffffffffffffffffffffffffffffffffffffff168473ffffffffffffffffffffffffffffffffffffffff16146126685780600360008673ffffffffffffffffffffffffffffffffffffffff1673ffffffffffffffffffffffffffffffffffffffff16815260200190815260200160002060008282546126609190614515565b925050819055505b600073ffffffffffffffffffffffffffffffffffffffff168373ffffffffffffffffffffffffffffffffffffffff16146126f35780600360008573ffffffffffffffffffffffffffffffffffffffff1673ffffffffffffffffffffffffffffffffffffffff16815260200190815260200160002060008282546126eb9190614549565b925050819055505b5b50505050565b6008805490506009600083815260200190815260200160002081905550600881908060018154018082558091505060019003906000526020600020016000909190919091505550565b6000600161275084610fc8565b61275a9190614515565b905060006007600084815260200190815260200160002054905081811461283f576000600660008673ffffffffffffffffffffffffffffffffffffffff1673ffffffffffffffffffffffffffffffffffffffff168152602001908152602001600020600084815260200190815260200160002054905080600660008773ffffffffffffffffffffffffffffffffffffffff1673ffffffffffffffffffffffffffffffffffffffff168152602001908152602001600020600084815260200190815260200160002081905550816007600083815260200190815260200160002081905550505b6007600084815260200190815260200160002060009055600660008573ffffffffffffffffffffffffffffffffffffffff1673ffffffffffffffffffffffffffffffffffffffff16815260200190815260200160002060008381526020019081526020016000206000905550505050565b600060016008805490506128c49190614515565b90506000600960008481526020019081526020016000205490506000600883815481106128f4576128f3613dbe565b5b90600052602060002001549050806008838154811061291657612915613dbe565b5b9060005260206000200181905550816009600083815260200190815260200160002081905550600960008581526020019081526020016000206000905560088054806129655761296461457d565b5b6001900381819060005260206000200160009055905550505050565b600061298c83610fc8565b905081600660008573ffffffffffffffffffffffffffffffffffffffff1673ffffffffffffffffffffffffffffffffffffffff168152602001908152602001600020600083815260200190815260200160002081905550806007600084815260200190815260200160002081905550505050565b82805482825590600052602060002090600101600290048101928215612ac35791602002820160005b83821115612a8557835183826101000a8154816fffffffffffffffffffffffffffffffff02191690836fffffffffffffffffffffffffffffffff1602179055509260200192601001602081600f01049283019260010302612a29565b8015612ac15782816101000a8154906fffffffffffffffffffffffffffffffff0219169055601001602081600f01049283019260010302612a85565b505b509050612ad09190612b42565b5090565b5080546000825590600052602060002090810190612af29190612b42565b50565b828054828255906000526020600020908101928215612b31579160200282015b82811115612b30578251825591602001919060010190612b15565b5b509050612b3e9190612b42565b5090565b5b80821115612b5b576000816000905550600101612b43565b5090565b6000604051905090565b600080fd5b600080fd5b60007fffffffff0000000000000000000000000000000000000000000000000000000082169050919050565b612ba881612b73565b8114612bb357600080fd5b50565b600081359050612bc581612b9f565b92915050565b600060208284031215612be157612be0612b69565b5b6000612bef84828501612bb6565b91505092915050565b60008115159050919050565b612c0d81612bf8565b82525050565b6000602082019050612c286000830184612c04565b92915050565b600080fd5b600080fd5b6000601f19601f8301169050919050565b7f4e487b7100000000000000000000000000000000000000000000000000000000600052604160045260246000fd5b612c8182612c38565b810181811067ffffffffffffffff82111715612ca057612c9f612c49565b5b80604052505050565b6000612cb3612b5f565b9050612cbf8282612c78565b919050565b600067ffffffffffffffff821115612cdf57612cde612c49565b5b612ce882612c38565b9050602081019050919050565b82818337600083830152505050565b6000612d17612d1284612cc4565b612ca9565b905082815260208101848484011115612d3357612d32612c33565b5b612d3e848285612cf5565b509392505050565b600082601f830112612d5b57612d5a612c2e565b5b8135612d6b848260208601612d04565b91505092915050565b600060208284031215612d8a57612d89612b69565b5b600082013567ffffffffffffffff811115612da857612da7612b6e565b5b612db484828501612d46565b91505092915050565b600081519050919050565b600082825260208201905092915050565b60005b83811015612df7578082015181840152602081019050612ddc565b60008484015250505050565b6000612e0e82612dbd565b612e188185612dc8565b9350612e28818560208601612dd9565b612e3181612c38565b840191505092915050565b60006020820190508181036000830152612e568184612e03565b905092915050565b6000819050919050565b612e7181612e5e565b8114612e7c57600080fd5b50565b600081359050612e8e81612e68565b92915050565b600060208284031215612eaa57612ea9612b69565b5b6000612eb884828501612e7f565b91505092915050565b600073ffffffffffffffffffffffffffffffffffffffff82169050919050565b6000612eec82612ec1565b9050919050565b612efc81612ee1565b82525050565b6000602082019050612f176000830184612ef3565b92915050565b612f2681612ee1565b8114612f3157600080fd5b50565b600081359050612f4381612f1d565b92915050565b60008060408385031215612f6057612f5f612b69565b5b6000612f6e85828601612f34565b9250506020612f7f85828601612e7f565b9150509250929050565b600060208284031215612f9f57612f9e612b69565b5b6000612fad84828501612f34565b91505092915050565b612fbf81612e5e565b82525050565b6000602082019050612fda6000830184612fb6565b92915050565b600080600060608486031215612ff957612ff8612b69565b5b600061300786828701612f34565b935050602061301886828701612f34565b925050604061302986828701612e7f565b9150509250925092565b600067ffffffffffffffff82111561304e5761304d612c49565b5b602082029050602081019050919050565b600080fd5b60006fffffffffffffffffffffffffffffffff82169050919050565b61308981613064565b811461309457600080fd5b50565b6000813590506130a681613080565b92915050565b60006130bf6130ba84613033565b612ca9565b905080838252602082019050602084028301858111156130e2576130e161305f565b5b835b8181101561310b57806130f78882613097565b8452602084019350506020810190506130e4565b5050509392505050565b600082601f83011261312a57613129612c2e565b5b813561313a8482602086016130ac565b91505092915050565b60008060008060008060c087890312156131605761315f612b69565b5b600061316e89828a01612f34565b965050602087013567ffffffffffffffff81111561318f5761318e612b6e565b5b61319b89828a01612d46565b955050604087013567ffffffffffffffff8111156131bc576131bb612b6e565b5b6131c889828a01612d46565b945050606087013567ffffffffffffffff8111156131e9576131e8612b6e565b5b6131f589828a01612d46565b935050608087013567ffffffffffffffff81111561321657613215612b6e565b5b61322289828a01612d46565b92505060a087013567ffffffffffffffff81111561324357613242612b6e565b5b61324f89828a01613115565b9150509295509295509295565b600067ffffffffffffffff82111561327757613276612c49565b5b602082029050602081019050919050565b600061329b6132968461325c565b612ca9565b905080838252602082019050602084028301858111156132be576132bd61305f565b5b835b818110156132e757806132d38882612e7f565b8452602084019350506020810190506132c0565b5050509392505050565b600082601f83011261330657613305612c2e565b5b8135613316848260208601613288565b91505092915050565b600060ff82169050919050565b6133358161331f565b811461334057600080fd5b50565b6000813590506133528161332c565b92915050565b6000806040838503121561336f5761336e612b69565b5b600083013567ffffffffffffffff81111561338d5761338c612b6e565b5b613399858286016132f1565b92505060206133aa85828601613343565b9150509250929050565b6133bd81612bf8565b81146133c857600080fd5b50565b6000813590506133da816133b4565b92915050565b600080604083850312156133f7576133f6612b69565b5b600061340585828601612f34565b9250506020613416858286016133cb565b9150509250929050565b6000806040838503121561343757613436612b69565b5b600083013567ffffffffffffffff81111561345557613454612b6e565b5b613461858286016132f1565b925050602083013567ffffffffffffffff81111561348257613481612b6e565b5b61348e858286016132f1565b9150509250929050565b600080604083850312156134af576134ae612b69565b5b60006134bd85828601612e7f565b925050602083013567ffffffffffffffff8111156134de576134dd612b6e565b5b6134ea858286016132f1565b9150509250929050565b6000806040838503121561350b5761350a612b69565b5b600061351985828601612e7f565b925050602061352a85828601612e7f565b9150509250929050565b600067ffffffffffffffff82111561354f5761354e612c49565b5b61355882612c38565b9050602081019050919050565b600061357861357384613534565b612ca9565b90508281526020810184848401111561359457613593612c33565b5b61359f848285612cf5565b509392505050565b600082601f8301126135bc576135bb612c2e565b5b81356135cc848260208601613565565b91505092915050565b600080600080608085870312156135ef576135ee612b69565b5b60006135fd87828801612f34565b945050602061360e87828801612f34565b935050604061361f87828801612e7f565b925050606085013567ffffffffffffffff8111156136405761363f612b6e565b5b61364c878288016135a7565b91505092959194509250565b6000806040838503121561366f5761366e612b69565b5b600061367d85828601612f34565b925050602061368e85828601612f34565b9150509250929050565b6136a181613064565b82525050565b60006020820190506136bc6000830184613698565b92915050565b7f4e487b7100000000000000000000000000000000000000000000000000000000600052602260045260246000fd5b6000600282049050600182168061370957607f821691505b60208210810361371c5761371b6136c2565b5b50919050565b60008190508160005260206000209050919050565b60006020601f8301049050919050565b600082821b905092915050565b6000600883026137847fffffffffffffffffffffffffffffffffffffffffffffffffffffffffffffffff82613747565b61378e8683613747565b95508019841693508086168417925050509392505050565b6000819050919050565b60006137cb6137c66137c184612e5e565b6137a6565b612e5e565b9050919050565b6000819050919050565b6137e5836137b0565b6137f96137f1826137d2565b848454613754565b825550505050565b600090565b61380e613801565b6138198184846137dc565b505050565b5b8181101561383d57613832600082613806565b60018101905061381f565b5050565b601f8211156138825761385381613722565b61385c84613737565b8101602085101561386b578190505b61387f61387785613737565b83018261381e565b50505b505050565b600082821c905092915050565b60006138a560001984600802613887565b1980831691505092915050565b60006138be8383613894565b9150826002028217905092915050565b6138d782612dbd565b67ffffffffffffffff8111156138f0576138ef612c49565b5b6138fa82546136f1565b613905828285613841565b600060209050601f8311600181146139385760008415613926578287015190505b61393085826138b2565b865550613998565b601f19841661394686613722565b60005b8281101561396e57848901518255600182019150602085019450602081019050613949565b8683101561398b5784890151613987601f891682613894565b8355505b6001600288020188555050505b505050505050565b7f4552433732313a20617070726f76616c20746f2063757272656e74206f776e6560008201527f7200000000000000000000000000000000000000000000000000000000000000602082015250565b60006139fc602183612dc8565b9150613a07826139a0565b604082019050919050565b60006020820190508181036000830152613a2b816139ef565b9050919050565b7f4552433732313a20617070726f76652063616c6c6572206973206e6f7420746f60008201527f6b656e206f776e6572206f7220617070726f76656420666f7220616c6c000000602082015250565b6000613a8e603d83612dc8565b9150613a9982613a32565b604082019050919050565b60006020820190508181036000830152613abd81613a81565b9050919050565b7f4552433732313a2063616c6c6572206973206e6f7420746f6b656e206f776e6560008201527f72206f7220617070726f76656400000000000000000000000000000000000000602082015250565b6000613b20602d83612dc8565b9150613b2b82613ac4565b604082019050919050565b60006020820190508181036000830152613b4f81613b13565b9050919050565b7f4261736520436f6e747261637400000000000000000000000000000000000000600082015250565b6000613b8c600d83612dc8565b9150613b9782613b56565b602082019050919050565b60006020820190508181036000830152613bbb81613b7f565b9050919050565b7f416c726561647920696e697469616c697a656400000000000000000000000000600082015250565b6000613bf8601383612dc8565b9150613c0382613bc2565b602082019050919050565b60006020820190508181036000830152613c2781613beb565b9050919050565b7f455243373231456e756d657261626c653a206f776e657220696e646578206f7560008201527f74206f6620626f756e6473000000000000000000000000000000000000000000602082015250565b6000613c8a602b83612dc8565b9150613c9582613c2e565b604082019050919050565b60006020820190508181036000830152613cb981613c7d565b9050919050565b7f4973206e6f7420696e697469616c697a65640000000000000000000000000000600082015250565b6000613cf6601283612dc8565b9150613d0182613cc0565b602082019050919050565b60006020820190508181036000830152613d2581613ce9565b9050919050565b7f455243373231456e756d657261626c653a20676c6f62616c20696e646578206f60008201527f7574206f6620626f756e64730000000000000000000000000000000000000000602082015250565b6000613d88602c83612dc8565b9150613d9382613d2c565b604082019050919050565b60006020820190508181036000830152613db781613d7b565b9050919050565b7f4e487b7100000000000000000000000000000000000000000000000000000000600052603260045260246000fd5b7f4e487b7100000000000000000000000000000000000000000000000000000000600052601160045260246000fd5b6000613e2782612e5e565b91507fffffffffffffffffffffffffffffffffffffffffffffffffffffffffffffffff8203613e5957613e58613ded565b5b600182019050919050565b7f4552433732313a20696e76616c696420746f6b656e2049440000000000000000600082015250565b6000613e9a601883612dc8565b9150613ea582613e64565b602082019050919050565b60006020820190508181036000830152613ec981613e8d565b9050919050565b7f4552433732313a2061646472657373207a65726f206973206e6f74206120766160008201527f6c6964206f776e65720000000000000000000000000000000000000000000000602082015250565b6000613f2c602983612dc8565b9150613f3782613ed0565b604082019050919050565b60006020820190508181036000830152613f5b81613f1f565b9050919050565b7f4f6e6c79466163746f7279000000000000000000000000000000000000000000600082015250565b6000613f98600b83612dc8565b9150613fa382613f62565b602082019050919050565b60006020820190508181036000830152613fc781613f8b565b9050919050565b7f4f6e6c794f776e65720000000000000000000000000000000000000000000000600082015250565b6000614004600983612dc8565b915061400f82613fce565b602082019050919050565b6000602082019050818103600083015261403381613ff7565b9050919050565b7f4552433732313a207472616e736665722066726f6d20696e636f72726563742060008201527f6f776e6572000000000000000000000000000000000000000000000000000000602082015250565b6000614096602583612dc8565b91506140a18261403a565b604082019050919050565b600060208201905081810360008301526140c581614089565b9050919050565b7f4552433732313a207472616e7366657220746f20746865207a65726f2061646460008201527f7265737300000000000000000000000000000000000000000000000000000000602082015250565b6000614128602483612dc8565b9150614133826140cc565b604082019050919050565b600060208201905081810360008301526141578161411b565b9050919050565b7f4552433732313a20617070726f766520746f2063616c6c657200000000000000600082015250565b6000614194601983612dc8565b915061419f8261415e565b602082019050919050565b600060208201905081810360008301526141c381614187565b9050919050565b7f4552433732313a207472616e7366657220746f206e6f6e20455243373231526560008201527f63656976657220696d706c656d656e7465720000000000000000000000000000602082015250565b6000614226603283612dc8565b9150614231826141ca565b604082019050919050565b6000602082019050818103600083015261425581614219565b9050919050565b7f4e4654206973206c6f636b656400000000000000000000000000000000000000600082015250565b6000614292600d83612dc8565b915061429d8261425c565b602082019050919050565b600060208201905081810360008301526142c181614285565b9050919050565b600081519050919050565b600082825260208201905092915050565b60006142ef826142c8565b6142f981856142d3565b9350614309818560208601612dd9565b61431281612c38565b840191505092915050565b60006080820190506143326000830187612ef3565b61433f6020830186612ef3565b61434c6040830185612fb6565b818103606083015261435e81846142e4565b905095945050505050565b60008151905061437881612b9f565b92915050565b60006020828403121561439457614393612b69565b5b60006143a284828501614369565b91505092915050565b7f455243373231456e756d657261626c653a20636f6e736563757469766520747260008201527f616e7366657273206e6f7420737570706f727465640000000000000000000000602082015250565b6000614407603583612dc8565b9150614412826143ab565b604082019050919050565b60006020820190508181036000830152614436816143fa565b9050919050565b7f4552433732313a206d696e7420746f20746865207a65726f2061646472657373600082015250565b6000614473602083612dc8565b915061447e8261443d565b602082019050919050565b600060208201905081810360008301526144a281614466565b9050919050565b7f4552433732313a20746f6b656e20616c7265616479206d696e74656400000000600082015250565b60006144df601c83612dc8565b91506144ea826144a9565b602082019050919050565b6000602082019050818103600083015261450e816144d2565b9050919050565b600061452082612e5e565b915061452b83612e5e565b925082820390508181111561454357614542613ded565b5b92915050565b600061455482612e5e565b915061455f83612e5e565b925082820190508082111561457757614576613ded565b5b92915050565b7f4e487b7100000000000000000000000000000000000000000000000000000000600052603160045260246000fdfea26469706673582212208f95113c5a0373643b58b3b4d462d562804b164b9437464b6795074d3a721ebc64736f6c63430008110033",
  "linkReferences": {},
  "deployedLinkReferences": {}
}