{
  "_format": "hh-sol-artifact-1",
  "contractName": "YoursIntegratedNFT",
  "sourceName": "contracts/YoursIntegratedNFT.sol",
  "abi": [
    {
      "inputs": [
        {
          "internalType": "address",
          "name": "_factory",
          "type": "address"
        }
      ],
      "stateMutability": "nonpayable",
      "type": "constructor"
    },
    {
      "anonymous": false,
      "inputs": [
        {
          "indexed": true,
          "internalType": "address",
          "name": "account",
          "type": "address"
        },
        {
          "indexed": true,
          "internalType": "address",
          "name": "operator",
          "type": "address"
        },
        {
          "indexed": false,
          "internalType": "bool",
          "name": "approved",
          "type": "bool"
        }
      ],
      "name": "ApprovalForAll",
      "type": "event"
    },
    {
      "anonymous": false,
      "inputs": [
        {
          "indexed": true,
          "internalType": "address",
          "name": "operator",
          "type": "address"
        },
        {
          "indexed": true,
          "internalType": "address",
          "name": "from",
          "type": "address"
        },
        {
          "indexed": true,
          "internalType": "address",
          "name": "to",
          "type": "address"
        },
        {
          "indexed": false,
          "internalType": "uint256[]",
          "name": "ids",
          "type": "uint256[]"
        },
        {
          "indexed": false,
          "internalType": "uint256[]",
          "name": "values",
          "type": "uint256[]"
        }
      ],
      "name": "TransferBatch",
      "type": "event"
    },
    {
      "anonymous": false,
      "inputs": [
        {
          "indexed": true,
          "internalType": "address",
          "name": "operator",
          "type": "address"
        },
        {
          "indexed": true,
          "internalType": "address",
          "name": "from",
          "type": "address"
        },
        {
          "indexed": true,
          "internalType": "address",
          "name": "to",
          "type": "address"
        },
        {
          "indexed": false,
          "internalType": "uint256",
          "name": "id",
          "type": "uint256"
        },
        {
          "indexed": false,
          "internalType": "uint256",
          "name": "value",
          "type": "uint256"
        }
      ],
      "name": "TransferSingle",
      "type": "event"
    },
    {
      "anonymous": false,
      "inputs": [
        {
          "indexed": false,
          "internalType": "string",
          "name": "value",
          "type": "string"
        },
        {
          "indexed": true,
          "internalType": "uint256",
          "name": "id",
          "type": "uint256"
        }
      ],
      "name": "URI",
      "type": "event"
    },
    {
      "inputs": [
        {
          "internalType": "address",
          "name": "account",
          "type": "address"
        },
        {
          "internalType": "uint256",
          "name": "id",
          "type": "uint256"
        }
      ],
      "name": "balanceOf",
      "outputs": [
        {
          "internalType": "uint256",
          "name": "",
          "type": "uint256"
        }
      ],
      "stateMutability": "view",
      "type": "function"
    },
    {
      "inputs": [
        {
          "internalType": "address[]",
          "name": "accounts",
          "type": "address[]"
        },
        {
          "internalType": "uint256[]",
          "name": "ids",
          "type": "uint256[]"
        }
      ],
      "name": "balanceOfBatch",
      "outputs": [
        {
          "internalType": "uint256[]",
          "name": "",
          "type": "uint256[]"
        }
      ],
      "stateMutability": "view",
      "type": "function"
    },
    {
      "inputs": [
        {
          "internalType": "address",
          "name": "_user",
          "type": "address"
        },
        {
          "internalType": "uint256",
          "name": "_id",
          "type": "uint256"
        },
        {
          "internalType": "uint256",
          "name": "_amount",
          "type": "uint256"
        }
      ],
      "name": "burn",
      "outputs": [],
      "stateMutability": "nonpayable",
      "type": "function"
    },
    {
      "inputs": [
        {
          "internalType": "address",
          "name": "_to",
          "type": "address"
        },
        {
          "internalType": "string",
          "name": "_uri",
          "type": "string"
        },
        {
          "internalType": "address[]",
          "name": "_nftAddresses",
          "type": "address[]"
        },
        {
          "internalType": "uint256[]",
          "name": "_nftIds",
          "type": "uint256[]"
        }
      ],
      "name": "combineMintWithUri",
      "outputs": [
        {
          "internalType": "uint256",
          "name": "",
          "type": "uint256"
        }
      ],
      "stateMutability": "nonpayable",
      "type": "function"
    },
    {
      "inputs": [],
      "name": "count",
      "outputs": [
        {
          "internalType": "uint256",
          "name": "",
          "type": "uint256"
        }
      ],
      "stateMutability": "view",
      "type": "function"
    },
    {
      "inputs": [],
      "name": "factory",
      "outputs": [
        {
          "internalType": "address",
          "name": "",
          "type": "address"
        }
      ],
      "stateMutability": "view",
      "type": "function"
    },
    {
      "inputs": [
        {
          "internalType": "uint256",
          "name": "_id",
          "type": "uint256"
        }
      ],
      "name": "getLength",
      "outputs": [
        {
          "internalType": "uint256",
          "name": "",
          "type": "uint256"
        }
      ],
      "stateMutability": "view",
      "type": "function"
    },
    {
      "inputs": [
        {
          "internalType": "uint256",
          "name": "",
          "type": "uint256"
        },
        {
          "internalType": "uint256",
          "name": "",
          "type": "uint256"
        }
      ],
      "name": "integratedNFT",
      "outputs": [
        {
          "internalType": "address",
          "name": "nftAddress",
          "type": "address"
        },
        {
          "internalType": "uint256",
          "name": "id",
          "type": "uint256"
        }
      ],
      "stateMutability": "view",
      "type": "function"
    },
    {
      "inputs": [
        {
          "internalType": "address",
          "name": "account",
          "type": "address"
        },
        {
          "internalType": "address",
          "name": "operator",
          "type": "address"
        }
      ],
      "name": "isApprovedForAll",
      "outputs": [
        {
          "internalType": "bool",
          "name": "",
          "type": "bool"
        }
      ],
      "stateMutability": "view",
      "type": "function"
    },
    {
      "inputs": [],
      "name": "name",
      "outputs": [
        {
          "internalType": "string",
          "name": "",
          "type": "string"
        }
      ],
      "stateMutability": "view",
      "type": "function"
    },
    {
      "inputs": [],
      "name": "owner",
      "outputs": [
        {
          "internalType": "address",
          "name": "",
          "type": "address"
        }
      ],
      "stateMutability": "view",
      "type": "function"
    },
    {
      "inputs": [
        {
          "internalType": "address",
          "name": "from",
          "type": "address"
        },
        {
          "internalType": "address",
          "name": "to",
          "type": "address"
        },
        {
          "internalType": "uint256[]",
          "name": "ids",
          "type": "uint256[]"
        },
        {
          "internalType": "uint256[]",
          "name": "amounts",
          "type": "uint256[]"
        },
        {
          "internalType": "bytes",
          "name": "data",
          "type": "bytes"
        }
      ],
      "name": "safeBatchTransferFrom",
      "outputs": [],
      "stateMutability": "nonpayable",
      "type": "function"
    },
    {
      "inputs": [
        {
          "internalType": "address",
          "name": "from",
          "type": "address"
        },
        {
          "internalType": "address",
          "name": "to",
          "type": "address"
        },
        {
          "internalType": "uint256",
          "name": "id",
          "type": "uint256"
        },
        {
          "internalType": "uint256",
          "name": "amount",
          "type": "uint256"
        },
        {
          "internalType": "bytes",
          "name": "data",
          "type": "bytes"
        }
      ],
      "name": "safeTransferFrom",
      "outputs": [],
      "stateMutability": "nonpayable",
      "type": "function"
    },
    {
      "inputs": [
        {
          "internalType": "address",
          "name": "operator",
          "type": "address"
        },
        {
          "internalType": "bool",
          "name": "approved",
          "type": "bool"
        }
      ],
      "name": "setApprovalForAll",
      "outputs": [],
      "stateMutability": "nonpayable",
      "type": "function"
    },
    {
      "inputs": [
        {
          "internalType": "bytes4",
          "name": "interfaceId",
          "type": "bytes4"
        }
      ],
      "name": "supportsInterface",
      "outputs": [
        {
          "internalType": "bool",
          "name": "",
          "type": "bool"
        }
      ],
      "stateMutability": "view",
      "type": "function"
    },
    {
      "inputs": [],
      "name": "symbol",
      "outputs": [
        {
          "internalType": "string",
          "name": "",
          "type": "string"
        }
      ],
      "stateMutability": "view",
      "type": "function"
    },
    {
      "inputs": [
        {
          "internalType": "uint256",
          "name": "",
          "type": "uint256"
        }
      ],
      "name": "tokenURI",
      "outputs": [
        {
          "internalType": "string",
          "name": "",
          "type": "string"
        }
      ],
      "stateMutability": "view",
      "type": "function"
    },
    {
      "inputs": [],
      "name": "totalSupply",
      "outputs": [
        {
          "internalType": "uint256",
          "name": "",
          "type": "uint256"
        }
      ],
      "stateMutability": "view",
      "type": "function"
    },
    {
      "inputs": [
        {
          "internalType": "uint256",
          "name": "integratedNFTId",
          "type": "uint256"
        },
        {
          "internalType": "address[]",
          "name": "_nftAddresses",
          "type": "address[]"
        },
        {
          "internalType": "uint256[]",
          "name": "_nftIds",
          "type": "uint256[]"
        }
      ],
      "name": "updateIntegratedNFT",
      "outputs": [
        {
          "internalType": "uint256",
          "name": "",
          "type": "uint256"
        }
      ],
      "stateMutability": "nonpayable",
      "type": "function"
    },
    {
      "inputs": [
        {
          "internalType": "uint256",
          "name": "_id",
          "type": "uint256"
        }
      ],
      "name": "uri",
      "outputs": [
        {
          "internalType": "string",
          "name": "",
          "type": "string"
        }
      ],
      "stateMutability": "view",
      "type": "function"
    }
  ],
  "bytecode": "0x60806040523480156200001157600080fd5b5060405162003bab38038062003bab833981810160405281019062000037919062000132565b33600360006101000a81548173ffffffffffffffffffffffffffffffffffffffff021916908373ffffffffffffffffffffffffffffffffffffffff16021790555080600460006101000a81548173ffffffffffffffffffffffffffffffffffffffff021916908373ffffffffffffffffffffffffffffffffffffffff16021790555060006005819055505062000164565b600080fd5b600073ffffffffffffffffffffffffffffffffffffffff82169050919050565b6000620000fa82620000cd565b9050919050565b6200010c81620000ed565b81146200011857600080fd5b50565b6000815190506200012c8162000101565b92915050565b6000602082840312156200014b576200014a620000c8565b5b60006200015b848285016200011b565b91505092915050565b613a3780620001746000396000f3fe608060405234801561001057600080fd5b506004361061012b5760003560e01c806388660f8d116100ad578063c45a015511610071578063c45a01551461037f578063c87b56dd1461039d578063e985e9c5146103cd578063f242432a146103fd578063f5298aca146104195761012b565b806388660f8d146102c75780638da5cb5b146102f757806395d89b41146103155780639ccf15a614610333578063a22cb465146103635761012b565b80630e89341c116100f45780630e89341c146101fc57806318160ddd1461022c5780632eb2c2d61461024a5780634e1273f41461026657806356a93801146102965761012b565b8062fdd58e1461013057806301ffc9a71461016057806306661abd1461019057806306fdde03146101ae5780630986e647146101cc575b600080fd5b61014a6004803603810190610145919061212e565b610435565b604051610157919061217d565b60405180910390f35b61017a600480360381019061017591906121f0565b6104fd565b6040516101879190612238565b60405180910390f35b6101986105df565b6040516101a5919061217d565b60405180910390f35b6101b66105e5565b6040516101c391906122e3565b60405180910390f35b6101e660048036038101906101e19190612305565b610673565b6040516101f3919061217d565b60405180910390f35b61021660048036038101906102119190612305565b610693565b60405161022391906122e3565b60405180910390f35b610234610738565b604051610241919061217d565b60405180910390f35b610264600480360381019061025f919061252f565b610742565b005b610280600480360381019061027b91906126c1565b6107e3565b60405161028d91906127f7565b60405180910390f35b6102b060048036038101906102ab9190612819565b6108fc565b6040516102be929190612868565b60405180910390f35b6102e160048036038101906102dc9190612891565b61095d565b6040516102ee919061217d565b60405180910390f35b6102ff610a7f565b60405161030c919061291c565b60405180910390f35b61031d610aa5565b60405161032a91906122e3565b60405180910390f35b61034d600480360381019061034891906129d8565b610b33565b60405161035a919061217d565b60405180910390f35b61037d60048036038101906103789190612abf565b610c94565b005b610387610caa565b604051610394919061291c565b60405180910390f35b6103b760048036038101906103b29190612305565b610cd0565b6040516103c491906122e3565b60405180910390f35b6103e760048036038101906103e29190612aff565b610d70565b6040516103f49190612238565b60405180910390f35b61041760048036038101906104129190612b3f565b610e04565b005b610433600480360381019061042e9190612bd6565b610ea5565b005b60008073ffffffffffffffffffffffffffffffffffffffff168373ffffffffffffffffffffffffffffffffffffffff16036104a5576040517f08c379a000000000000000000000000000000000000000000000000000000000815260040161049c90612c9b565b60405180910390fd5b60008083815260200190815260200160002060008473ffffffffffffffffffffffffffffffffffffffff1673ffffffffffffffffffffffffffffffffffffffff16815260200190815260200160002054905092915050565b60007fd9b67a26000000000000000000000000000000000000000000000000000000007bffffffffffffffffffffffffffffffffffffffffffffffffffffffff1916827bffffffffffffffffffffffffffffffffffffffffffffffffffffffff191614806105c857507f0e89341c000000000000000000000000000000000000000000000000000000007bffffffffffffffffffffffffffffffffffffffffffffffffffffffff1916827bffffffffffffffffffffffffffffffffffffffffffffffffffffffff1916145b806105d857506105d782610efb565b5b9050919050565b60055481565b600680546105f290612cea565b80601f016020809104026020016040519081016040528092919081815260200182805461061e90612cea565b801561066b5780601f106106405761010080835404028352916020019161066b565b820191906000526020600020905b81548152906001019060200180831161064e57829003601f168201915b505050505081565b600060096000838152602001908152602001600020805490509050919050565b60606008600083815260200190815260200160002080546106b390612cea565b80601f01602080910402602001604051908101604052809291908181526020018280546106df90612cea565b801561072c5780601f106107015761010080835404028352916020019161072c565b820191906000526020600020905b81548152906001019060200180831161070f57829003601f168201915b50505050509050919050565b6000600554905090565b61074a610f65565b73ffffffffffffffffffffffffffffffffffffffff168573ffffffffffffffffffffffffffffffffffffffff161480610790575061078f8561078a610f65565b610d70565b5b6107cf576040517f08c379a00000000000000000000000000000000000000000000000000000000081526004016107c690612d8d565b60405180910390fd5b6107dc8585858585610f6d565b5050505050565b60608151835114610829576040517f08c379a000000000000000000000000000000000000000000000000000000000815260040161082090612e1f565b60405180910390fd5b6000835167ffffffffffffffff81111561084657610845612337565b5b6040519080825280602002602001820160405280156108745781602001602082028036833780820191505090505b50905060005b84518110156108f1576108c185828151811061089957610898612e3f565b5b60200260200101518583815181106108b4576108b3612e3f565b5b6020026020010151610435565b8282815181106108d4576108d3612e3f565b5b602002602001018181525050806108ea90612e9d565b905061087a565b508091505092915050565b6009602052816000526040600020818154811061091857600080fd5b9060005260206000209060020201600091509150508060000160009054906101000a900473ffffffffffffffffffffffffffffffffffffffff16908060010154905082565b600061096761128c565b60005b8351811015610a74576009600086815260200190815260200160002060405180604001604052808684815181106109a4576109a3612e3f565b5b602002602001015173ffffffffffffffffffffffffffffffffffffffff1681526020018584815181106109da576109d9612e3f565b5b6020026020010151815250908060018154018082558091505060019003906000526020600020906002020160009091909190915060008201518160000160006101000a81548173ffffffffffffffffffffffffffffffffffffffff021916908373ffffffffffffffffffffffffffffffffffffffff1602179055506020820151816001015550508080610a6c90612e9d565b91505061096a565b508390509392505050565b600360009054906101000a900473ffffffffffffffffffffffffffffffffffffffff1681565b60078054610ab290612cea565b80601f0160208091040260200160405190810160405280929190818152602001828054610ade90612cea565b8015610b2b5780601f10610b0057610100808354040283529160200191610b2b565b820191906000526020600020905b815481529060010190602001808311610b0e57829003601f168201915b505050505081565b6000610b3d61128c565b6000600560008154610b4e90612e9d565b9190508190559050610b7086826040518060200160405280600081525061131e565b610b7a81866114c0565b60005b8451811015610c8757600960008381526020019081526020016000206040518060400160405280878481518110610bb757610bb6612e3f565b5b602002602001015173ffffffffffffffffffffffffffffffffffffffff168152602001868481518110610bed57610bec612e3f565b5b6020026020010151815250908060018154018082558091505060019003906000526020600020906002020160009091909190915060008201518160000160006101000a81548173ffffffffffffffffffffffffffffffffffffffff021916908373ffffffffffffffffffffffffffffffffffffffff1602179055506020820151816001015550508080610c7f90612e9d565b915050610b7d565b5080915050949350505050565b610ca6610c9f610f65565b838361151d565b5050565b600460009054906101000a900473ffffffffffffffffffffffffffffffffffffffff1681565b60086020528060005260406000206000915090508054610cef90612cea565b80601f0160208091040260200160405190810160405280929190818152602001828054610d1b90612cea565b8015610d685780601f10610d3d57610100808354040283529160200191610d68565b820191906000526020600020905b815481529060010190602001808311610d4b57829003601f168201915b505050505081565b6000600160008473ffffffffffffffffffffffffffffffffffffffff1673ffffffffffffffffffffffffffffffffffffffff16815260200190815260200160002060008373ffffffffffffffffffffffffffffffffffffffff1673ffffffffffffffffffffffffffffffffffffffff16815260200190815260200160002060009054906101000a900460ff16905092915050565b610e0c610f65565b73ffffffffffffffffffffffffffffffffffffffff168573ffffffffffffffffffffffffffffffffffffffff161480610e525750610e5185610e4c610f65565b610d70565b5b610e91576040517f08c379a0000000000000000000000000000000000000000000000000000000008152600401610e8890612d8d565b60405180910390fd5b610e9e8585858585611689565b5050505050565b610ead61128c565b600860008381526020019081526020016000206000610ecc9190611fbf565b600960008381526020019081526020016000206000610eeb9190611fff565b610ef6838383611922565b505050565b60007f01ffc9a7000000000000000000000000000000000000000000000000000000007bffffffffffffffffffffffffffffffffffffffffffffffffffffffff1916827bffffffffffffffffffffffffffffffffffffffffffffffffffffffff1916149050919050565b600033905090565b8151835114610fb1576040517f08c379a0000000000000000000000000000000000000000000000000000000008152600401610fa890612f57565b60405180910390fd5b600073ffffffffffffffffffffffffffffffffffffffff168473ffffffffffffffffffffffffffffffffffffffff1603611020576040517f08c379a000000000000000000000000000000000000000000000000000000000815260040161101790612fe9565b60405180910390fd5b600061102a610f65565b90506110398187878786611b66565b60005b84518110156111ea57600085828151811061105a57611059612e3f565b5b60200260200101519050600085838151811061107957611078612e3f565b5b60200260200101519050600080600084815260200190815260200160002060008b73ffffffffffffffffffffffffffffffffffffffff1673ffffffffffffffffffffffffffffffffffffffff1681526020019081526020016000205490508181101561111a576040517f08c379a00000000000000000000000000000000000000000000000000000000081526004016111119061307b565b60405180910390fd5b81810360008085815260200190815260200160002060008c73ffffffffffffffffffffffffffffffffffffffff1673ffffffffffffffffffffffffffffffffffffffff168152602001908152602001600020819055508160008085815260200190815260200160002060008b73ffffffffffffffffffffffffffffffffffffffff1673ffffffffffffffffffffffffffffffffffffffff16815260200190815260200160002060008282546111cf919061309b565b92505081905550505050806111e390612e9d565b905061103c565b508473ffffffffffffffffffffffffffffffffffffffff168673ffffffffffffffffffffffffffffffffffffffff168273ffffffffffffffffffffffffffffffffffffffff167f4a39dc06d4c0dbc64b70af90fd698a233a518aa5d07e595d983b8c0526c8f7fb87876040516112619291906130cf565b60405180910390a46112768187878786611b6d565b611284818787878787611b74565b505050505050565b600460009054906101000a900473ffffffffffffffffffffffffffffffffffffffff1673ffffffffffffffffffffffffffffffffffffffff163373ffffffffffffffffffffffffffffffffffffffff161461131c576040517f08c379a000000000000000000000000000000000000000000000000000000000815260040161131390613152565b60405180910390fd5b565b600073ffffffffffffffffffffffffffffffffffffffff168373ffffffffffffffffffffffffffffffffffffffff160361138d576040517f08c379a0000000000000000000000000000000000000000000000000000000008152600401611384906131e4565b60405180910390fd5b6000611397610f65565b905060006113a484611d4b565b90506113b4826000878487611b66565b600160008086815260200190815260200160002060008773ffffffffffffffffffffffffffffffffffffffff1673ffffffffffffffffffffffffffffffffffffffff1681526020019081526020016000206000828254611414919061309b565b925050819055508473ffffffffffffffffffffffffffffffffffffffff16600073ffffffffffffffffffffffffffffffffffffffff168373ffffffffffffffffffffffffffffffffffffffff167fc3d58168c5ae7397731d063d5bbf3d657854427343f4c083240f7aacaa2d0f62876001604051611493929190613249565b60405180910390a46114a9826000878487611b6d565b6114b98260008787600188611dc5565b5050505050565b806008600084815260200190815260200160002090816114e09190613414565b50817f6bb7ff708619ba0610cba295a58592e0451dee2622938c8755667688daf3529b8260405161151191906122e3565b60405180910390a25050565b8173ffffffffffffffffffffffffffffffffffffffff168373ffffffffffffffffffffffffffffffffffffffff160361158b576040517f08c379a000000000000000000000000000000000000000000000000000000000815260040161158290613558565b60405180910390fd5b80600160008573ffffffffffffffffffffffffffffffffffffffff1673ffffffffffffffffffffffffffffffffffffffff16815260200190815260200160002060008473ffffffffffffffffffffffffffffffffffffffff1673ffffffffffffffffffffffffffffffffffffffff16815260200190815260200160002060006101000a81548160ff0219169083151502179055508173ffffffffffffffffffffffffffffffffffffffff168373ffffffffffffffffffffffffffffffffffffffff167f17307eab39ab6107e8899845ad3d59bd9653f200f220920489ca2b5937696c318360405161167c9190612238565b60405180910390a3505050565b600073ffffffffffffffffffffffffffffffffffffffff168473ffffffffffffffffffffffffffffffffffffffff16036116f8576040517f08c379a00000000000000000000000000000000000000000000000000000000081526004016116ef90612fe9565b60405180910390fd5b6000611702610f65565b9050600061170f85611d4b565b9050600061171c85611d4b565b905061172b8389898588611b66565b600080600088815260200190815260200160002060008a73ffffffffffffffffffffffffffffffffffffffff1673ffffffffffffffffffffffffffffffffffffffff168152602001908152602001600020549050858110156117c2576040517f08c379a00000000000000000000000000000000000000000000000000000000081526004016117b99061307b565b60405180910390fd5b85810360008089815260200190815260200160002060008b73ffffffffffffffffffffffffffffffffffffffff1673ffffffffffffffffffffffffffffffffffffffff168152602001908152602001600020819055508560008089815260200190815260200160002060008a73ffffffffffffffffffffffffffffffffffffffff1673ffffffffffffffffffffffffffffffffffffffff1681526020019081526020016000206000828254611877919061309b565b925050819055508773ffffffffffffffffffffffffffffffffffffffff168973ffffffffffffffffffffffffffffffffffffffff168573ffffffffffffffffffffffffffffffffffffffff167fc3d58168c5ae7397731d063d5bbf3d657854427343f4c083240f7aacaa2d0f628a8a6040516118f4929190613578565b60405180910390a4611909848a8a8689611b6d565b611917848a8a8a8a8a611dc5565b505050505050505050565b600073ffffffffffffffffffffffffffffffffffffffff168373ffffffffffffffffffffffffffffffffffffffff1603611991576040517f08c379a000000000000000000000000000000000000000000000000000000000815260040161198890613613565b60405180910390fd5b600061199b610f65565b905060006119a884611d4b565b905060006119b584611d4b565b90506119d4838760008560405180602001604052806000815250611b66565b600080600087815260200190815260200160002060008873ffffffffffffffffffffffffffffffffffffffff1673ffffffffffffffffffffffffffffffffffffffff16815260200190815260200160002054905084811015611a6b576040517f08c379a0000000000000000000000000000000000000000000000000000000008152600401611a62906136a5565b60405180910390fd5b84810360008088815260200190815260200160002060008973ffffffffffffffffffffffffffffffffffffffff1673ffffffffffffffffffffffffffffffffffffffff16815260200190815260200160002081905550600073ffffffffffffffffffffffffffffffffffffffff168773ffffffffffffffffffffffffffffffffffffffff168573ffffffffffffffffffffffffffffffffffffffff167fc3d58168c5ae7397731d063d5bbf3d657854427343f4c083240f7aacaa2d0f628989604051611b38929190613578565b60405180910390a4611b5d848860008660405180602001604052806000815250611b6d565b50505050505050565b5050505050565b5050505050565b611b938473ffffffffffffffffffffffffffffffffffffffff16611f9c565b15611d43578373ffffffffffffffffffffffffffffffffffffffff1663bc197c8187878686866040518663ffffffff1660e01b8152600401611bd995949392919061371a565b6020604051808303816000875af1925050508015611c1557506040513d601f19601f82011682018060405250810190611c129190613797565b60015b611cba57611c216137d1565b806308c379a003611c7d5750611c356137f3565b80611c405750611c7f565b806040517f08c379a0000000000000000000000000000000000000000000000000000000008152600401611c7491906122e3565b60405180910390fd5b505b6040517f08c379a0000000000000000000000000000000000000000000000000000000008152600401611cb1906138f5565b60405180910390fd5b63bc197c8160e01b7bffffffffffffffffffffffffffffffffffffffffffffffffffffffff1916817bffffffffffffffffffffffffffffffffffffffffffffffffffffffff191614611d41576040517f08c379a0000000000000000000000000000000000000000000000000000000008152600401611d3890613987565b60405180910390fd5b505b505050505050565b60606000600167ffffffffffffffff811115611d6a57611d69612337565b5b604051908082528060200260200182016040528015611d985781602001602082028036833780820191505090505b5090508281600081518110611db057611daf612e3f565b5b60200260200101818152505080915050919050565b611de48473ffffffffffffffffffffffffffffffffffffffff16611f9c565b15611f94578373ffffffffffffffffffffffffffffffffffffffff1663f23a6e6187878686866040518663ffffffff1660e01b8152600401611e2a9594939291906139a7565b6020604051808303816000875af1925050508015611e6657506040513d601f19601f82011682018060405250810190611e639190613797565b60015b611f0b57611e726137d1565b806308c379a003611ece5750611e866137f3565b80611e915750611ed0565b806040517f08c379a0000000000000000000000000000000000000000000000000000000008152600401611ec591906122e3565b60405180910390fd5b505b6040517f08c379a0000000000000000000000000000000000000000000000000000000008152600401611f02906138f5565b60405180910390fd5b63f23a6e6160e01b7bffffffffffffffffffffffffffffffffffffffffffffffffffffffff1916817bffffffffffffffffffffffffffffffffffffffffffffffffffffffff191614611f92576040517f08c379a0000000000000000000000000000000000000000000000000000000008152600401611f8990613987565b60405180910390fd5b505b505050505050565b6000808273ffffffffffffffffffffffffffffffffffffffff163b119050919050565b508054611fcb90612cea565b6000825580601f10611fdd5750611ffc565b601f016020900490600052602060002090810190611ffb9190612023565b5b50565b50805460008255600202906000526020600020908101906120209190612040565b50565b5b8082111561203c576000816000905550600101612024565b5090565b5b8082111561208257600080820160006101000a81549073ffffffffffffffffffffffffffffffffffffffff0219169055600182016000905550600201612041565b5090565b6000604051905090565b600080fd5b600080fd5b600073ffffffffffffffffffffffffffffffffffffffff82169050919050565b60006120c58261209a565b9050919050565b6120d5816120ba565b81146120e057600080fd5b50565b6000813590506120f2816120cc565b92915050565b6000819050919050565b61210b816120f8565b811461211657600080fd5b50565b60008135905061212881612102565b92915050565b6000806040838503121561214557612144612090565b5b6000612153858286016120e3565b925050602061216485828601612119565b9150509250929050565b612177816120f8565b82525050565b6000602082019050612192600083018461216e565b92915050565b60007fffffffff0000000000000000000000000000000000000000000000000000000082169050919050565b6121cd81612198565b81146121d857600080fd5b50565b6000813590506121ea816121c4565b92915050565b60006020828403121561220657612205612090565b5b6000612214848285016121db565b91505092915050565b60008115159050919050565b6122328161221d565b82525050565b600060208201905061224d6000830184612229565b92915050565b600081519050919050565b600082825260208201905092915050565b60005b8381101561228d578082015181840152602081019050612272565b60008484015250505050565b6000601f19601f8301169050919050565b60006122b582612253565b6122bf818561225e565b93506122cf81856020860161226f565b6122d881612299565b840191505092915050565b600060208201905081810360008301526122fd81846122aa565b905092915050565b60006020828403121561231b5761231a612090565b5b600061232984828501612119565b91505092915050565b600080fd5b7f4e487b7100000000000000000000000000000000000000000000000000000000600052604160045260246000fd5b61236f82612299565b810181811067ffffffffffffffff8211171561238e5761238d612337565b5b80604052505050565b60006123a1612086565b90506123ad8282612366565b919050565b600067ffffffffffffffff8211156123cd576123cc612337565b5b602082029050602081019050919050565b600080fd5b60006123f66123f1846123b2565b612397565b90508083825260208201905060208402830185811115612419576124186123de565b5b835b81811015612442578061242e8882612119565b84526020840193505060208101905061241b565b5050509392505050565b600082601f83011261246157612460612332565b5b81356124718482602086016123e3565b91505092915050565b600080fd5b600067ffffffffffffffff82111561249a57612499612337565b5b6124a382612299565b9050602081019050919050565b82818337600083830152505050565b60006124d26124cd8461247f565b612397565b9050828152602081018484840111156124ee576124ed61247a565b5b6124f98482856124b0565b509392505050565b600082601f83011261251657612515612332565b5b81356125268482602086016124bf565b91505092915050565b600080600080600060a0868803121561254b5761254a612090565b5b6000612559888289016120e3565b955050602061256a888289016120e3565b945050604086013567ffffffffffffffff81111561258b5761258a612095565b5b6125978882890161244c565b935050606086013567ffffffffffffffff8111156125b8576125b7612095565b5b6125c48882890161244c565b925050608086013567ffffffffffffffff8111156125e5576125e4612095565b5b6125f188828901612501565b9150509295509295909350565b600067ffffffffffffffff82111561261957612618612337565b5b602082029050602081019050919050565b600061263d612638846125fe565b612397565b905080838252602082019050602084028301858111156126605761265f6123de565b5b835b81811015612689578061267588826120e3565b845260208401935050602081019050612662565b5050509392505050565b600082601f8301126126a8576126a7612332565b5b81356126b884826020860161262a565b91505092915050565b600080604083850312156126d8576126d7612090565b5b600083013567ffffffffffffffff8111156126f6576126f5612095565b5b61270285828601612693565b925050602083013567ffffffffffffffff81111561272357612722612095565b5b61272f8582860161244c565b9150509250929050565b600081519050919050565b600082825260208201905092915050565b6000819050602082019050919050565b61276e816120f8565b82525050565b60006127808383612765565b60208301905092915050565b6000602082019050919050565b60006127a482612739565b6127ae8185612744565b93506127b983612755565b8060005b838110156127ea5781516127d18882612774565b97506127dc8361278c565b9250506001810190506127bd565b5085935050505092915050565b600060208201905081810360008301526128118184612799565b905092915050565b600080604083850312156128305761282f612090565b5b600061283e85828601612119565b925050602061284f85828601612119565b9150509250929050565b612862816120ba565b82525050565b600060408201905061287d6000830185612859565b61288a602083018461216e565b9392505050565b6000806000606084860312156128aa576128a9612090565b5b60006128b886828701612119565b935050602084013567ffffffffffffffff8111156128d9576128d8612095565b5b6128e586828701612693565b925050604084013567ffffffffffffffff81111561290657612905612095565b5b6129128682870161244c565b9150509250925092565b60006020820190506129316000830184612859565b92915050565b600067ffffffffffffffff82111561295257612951612337565b5b61295b82612299565b9050602081019050919050565b600061297b61297684612937565b612397565b9050828152602081018484840111156129975761299661247a565b5b6129a28482856124b0565b509392505050565b600082601f8301126129bf576129be612332565b5b81356129cf848260208601612968565b91505092915050565b600080600080608085870312156129f2576129f1612090565b5b6000612a00878288016120e3565b945050602085013567ffffffffffffffff811115612a2157612a20612095565b5b612a2d878288016129aa565b935050604085013567ffffffffffffffff811115612a4e57612a4d612095565b5b612a5a87828801612693565b925050606085013567ffffffffffffffff811115612a7b57612a7a612095565b5b612a878782880161244c565b91505092959194509250565b612a9c8161221d565b8114612aa757600080fd5b50565b600081359050612ab981612a93565b92915050565b60008060408385031215612ad657612ad5612090565b5b6000612ae4858286016120e3565b9250506020612af585828601612aaa565b9150509250929050565b60008060408385031215612b1657612b15612090565b5b6000612b24858286016120e3565b9250506020612b35858286016120e3565b9150509250929050565b600080600080600060a08688031215612b5b57612b5a612090565b5b6000612b69888289016120e3565b9550506020612b7a888289016120e3565b9450506040612b8b88828901612119565b9350506060612b9c88828901612119565b925050608086013567ffffffffffffffff811115612bbd57612bbc612095565b5b612bc988828901612501565b9150509295509295909350565b600080600060608486031215612bef57612bee612090565b5b6000612bfd868287016120e3565b9350506020612c0e86828701612119565b9250506040612c1f86828701612119565b9150509250925092565b7f455243313135353a2061646472657373207a65726f206973206e6f742061207660008201527f616c6964206f776e657200000000000000000000000000000000000000000000602082015250565b6000612c85602a8361225e565b9150612c9082612c29565b604082019050919050565b60006020820190508181036000830152612cb481612c78565b9050919050565b7f4e487b7100000000000000000000000000000000000000000000000000000000600052602260045260246000fd5b60006002820490506001821680612d0257607f821691505b602082108103612d1557612d14612cbb565b5b50919050565b7f455243313135353a2063616c6c6572206973206e6f7420746f6b656e206f776e60008201527f6572206f7220617070726f766564000000000000000000000000000000000000602082015250565b6000612d77602e8361225e565b9150612d8282612d1b565b604082019050919050565b60006020820190508181036000830152612da681612d6a565b9050919050565b7f455243313135353a206163636f756e747320616e6420696473206c656e67746860008201527f206d69736d617463680000000000000000000000000000000000000000000000602082015250565b6000612e0960298361225e565b9150612e1482612dad565b604082019050919050565b60006020820190508181036000830152612e3881612dfc565b9050919050565b7f4e487b7100000000000000000000000000000000000000000000000000000000600052603260045260246000fd5b7f4e487b7100000000000000000000000000000000000000000000000000000000600052601160045260246000fd5b6000612ea8826120f8565b91507fffffffffffffffffffffffffffffffffffffffffffffffffffffffffffffffff8203612eda57612ed9612e6e565b5b600182019050919050565b7f455243313135353a2069647320616e6420616d6f756e7473206c656e6774682060008201527f6d69736d61746368000000000000000000000000000000000000000000000000602082015250565b6000612f4160288361225e565b9150612f4c82612ee5565b604082019050919050565b60006020820190508181036000830152612f7081612f34565b9050919050565b7f455243313135353a207472616e7366657220746f20746865207a65726f20616460008201527f6472657373000000000000000000000000000000000000000000000000000000602082015250565b6000612fd360258361225e565b9150612fde82612f77565b604082019050919050565b6000602082019050818103600083015261300281612fc6565b9050919050565b7f455243313135353a20696e73756666696369656e742062616c616e636520666f60008201527f72207472616e7366657200000000000000000000000000000000000000000000602082015250565b6000613065602a8361225e565b915061307082613009565b604082019050919050565b6000602082019050818103600083015261309481613058565b9050919050565b60006130a6826120f8565b91506130b1836120f8565b92508282019050808211156130c9576130c8612e6e565b5b92915050565b600060408201905081810360008301526130e98185612799565b905081810360208301526130fd8184612799565b90509392505050565b7f4f6e6c79466163746f7279000000000000000000000000000000000000000000600082015250565b600061313c600b8361225e565b915061314782613106565b602082019050919050565b6000602082019050818103600083015261316b8161312f565b9050919050565b7f455243313135353a206d696e7420746f20746865207a65726f2061646472657360008201527f7300000000000000000000000000000000000000000000000000000000000000602082015250565b60006131ce60218361225e565b91506131d982613172565b604082019050919050565b600060208201905081810360008301526131fd816131c1565b9050919050565b6000819050919050565b6000819050919050565b600061323361322e61322984613204565b61320e565b6120f8565b9050919050565b61324381613218565b82525050565b600060408201905061325e600083018561216e565b61326b602083018461323a565b9392505050565b60008190508160005260206000209050919050565b60006020601f8301049050919050565b600082821b905092915050565b6000600883026132d47fffffffffffffffffffffffffffffffffffffffffffffffffffffffffffffffff82613297565b6132de8683613297565b95508019841693508086168417925050509392505050565b600061331161330c613307846120f8565b61320e565b6120f8565b9050919050565b6000819050919050565b61332b836132f6565b61333f61333782613318565b8484546132a4565b825550505050565b600090565b613354613347565b61335f818484613322565b505050565b5b818110156133835761337860008261334c565b600181019050613365565b5050565b601f8211156133c85761339981613272565b6133a284613287565b810160208510156133b1578190505b6133c56133bd85613287565b830182613364565b50505b505050565b600082821c905092915050565b60006133eb600019846008026133cd565b1980831691505092915050565b600061340483836133da565b9150826002028217905092915050565b61341d82612253565b67ffffffffffffffff81111561343657613435612337565b5b6134408254612cea565b61344b828285613387565b600060209050601f83116001811461347e576000841561346c578287015190505b61347685826133f8565b8655506134de565b601f19841661348c86613272565b60005b828110156134b45784890151825560018201915060208501945060208101905061348f565b868310156134d157848901516134cd601f8916826133da565b8355505b6001600288020188555050505b505050505050565b7f455243313135353a2073657474696e6720617070726f76616c2073746174757360008201527f20666f722073656c660000000000000000000000000000000000000000000000602082015250565b600061354260298361225e565b915061354d826134e6565b604082019050919050565b6000602082019050818103600083015261357181613535565b9050919050565b600060408201905061358d600083018561216e565b61359a602083018461216e565b9392505050565b7f455243313135353a206275726e2066726f6d20746865207a65726f206164647260008201527f6573730000000000000000000000000000000000000000000000000000000000602082015250565b60006135fd60238361225e565b9150613608826135a1565b604082019050919050565b6000602082019050818103600083015261362c816135f0565b9050919050565b7f455243313135353a206275726e20616d6f756e7420657863656564732062616c60008201527f616e636500000000000000000000000000000000000000000000000000000000602082015250565b600061368f60248361225e565b915061369a82613633565b604082019050919050565b600060208201905081810360008301526136be81613682565b9050919050565b600081519050919050565b600082825260208201905092915050565b60006136ec826136c5565b6136f681856136d0565b935061370681856020860161226f565b61370f81612299565b840191505092915050565b600060a08201905061372f6000830188612859565b61373c6020830187612859565b818103604083015261374e8186612799565b905081810360608301526137628185612799565b9050818103608083015261377681846136e1565b90509695505050505050565b600081519050613791816121c4565b92915050565b6000602082840312156137ad576137ac612090565b5b60006137bb84828501613782565b91505092915050565b60008160e01c9050919050565b600060033d11156137f05760046000803e6137ed6000516137c4565b90505b90565b600060443d1061388057613805612086565b60043d036004823e80513d602482011167ffffffffffffffff8211171561382d575050613880565b808201805167ffffffffffffffff81111561384b5750505050613880565b80602083010160043d038501811115613868575050505050613880565b61387782602001850186612366565b82955050505050505b90565b7f455243313135353a207472616e7366657220746f206e6f6e2d4552433131353560008201527f526563656976657220696d706c656d656e746572000000000000000000000000602082015250565b60006138df60348361225e565b91506138ea82613883565b604082019050919050565b6000602082019050818103600083015261390e816138d2565b9050919050565b7f455243313135353a204552433131353552656365697665722072656a6563746560008201527f6420746f6b656e73000000000000000000000000000000000000000000000000602082015250565b600061397160288361225e565b915061397c82613915565b604082019050919050565b600060208201905081810360008301526139a081613964565b9050919050565b600060a0820190506139bc6000830188612859565b6139c96020830187612859565b6139d6604083018661216e565b6139e3606083018561216e565b81810360808301526139f581846136e1565b9050969550505050505056fea26469706673582212209d98f08f8c23f9d73bd345e82739dae19cb7dd6068136e4f5ef3dd36047aeb0964736f6c63430008110033",
  "linkReferences": {},
  "deployedLinkReferences": {}
}