{
  "_format": "hh-sol-artifact-1",
  "contractName": "YoursFactory",
  "sourceName": "contracts/YoursFactory.sol",
  "abi": [
    {
      "inputs": [
        {
          "internalType": "address",
          "name": "_base",
          "type": "address"
        },
        {
          "internalType": "address",
          "name": "_wrap",
          "type": "address"
        }
      ],
      "stateMutability": "nonpayable",
      "type": "constructor"
    },
    {
      "anonymous": false,
      "inputs": [
        {
          "indexed": false,
          "internalType": "address",
          "name": "_nftAddresses",
          "type": "address"
        }
      ],
      "name": "ChangeURI",
      "type": "event"
    },
    {
      "anonymous": false,
      "inputs": [
        {
          "indexed": false,
          "internalType": "address",
          "name": "_newClone",
          "type": "address"
        },
        {
          "indexed": false,
          "internalType": "address",
          "name": "_owner",
          "type": "address"
        }
      ],
      "name": "DeployNFT",
      "type": "event"
    },
    {
      "anonymous": false,
      "inputs": [
        {
          "indexed": false,
          "internalType": "uint256",
          "name": "",
          "type": "uint256"
        }
      ],
      "name": "MintIntegratedNFT",
      "type": "event"
    },
    {
      "anonymous": false,
      "inputs": [
        {
          "indexed": false,
          "internalType": "uint256",
          "name": "",
          "type": "uint256"
        }
      ],
      "name": "UpdateIntegratedNFT",
      "type": "event"
    },
    {
      "anonymous": false,
      "inputs": [
        {
          "indexed": false,
          "internalType": "address",
          "name": "nftAddress",
          "type": "address"
        },
        {
          "indexed": false,
          "internalType": "uint256",
          "name": "id",
          "type": "uint256"
        }
      ],
      "name": "test",
      "type": "event"
    },
    {
      "inputs": [],
      "name": "baseContract",
      "outputs": [
        {
          "internalType": "address",
          "name": "",
          "type": "address"
        }
      ],
      "stateMutability": "view",
      "type": "function"
    },
    {
      "inputs": [
        {
          "internalType": "address",
          "name": "_addr",
          "type": "address"
        },
        {
          "internalType": "uint256",
          "name": "_Id",
          "type": "uint256"
        }
      ],
      "name": "burnIntegratedNFT",
      "outputs": [],
      "stateMutability": "nonpayable",
      "type": "function"
    },
    {
      "inputs": [
        {
          "internalType": "address",
          "name": "_nftAddress",
          "type": "address"
        },
        {
          "internalType": "string",
          "name": "_newUri",
          "type": "string"
        }
      ],
      "name": "changeUri",
      "outputs": [],
      "stateMutability": "nonpayable",
      "type": "function"
    },
    {
      "inputs": [
        {
          "internalType": "string",
          "name": "_name",
          "type": "string"
        },
        {
          "internalType": "string",
          "name": "_symbol",
          "type": "string"
        },
        {
          "internalType": "string",
          "name": "_uri",
          "type": "string"
        },
        {
          "internalType": "string",
          "name": "_benefitURI",
          "type": "string"
        },
        {
          "internalType": "uint128[]",
          "name": "_defaultBenefit",
          "type": "uint128[]"
        }
      ],
      "name": "deployNFT",
      "outputs": [],
      "stateMutability": "nonpayable",
      "type": "function"
    },
    {
      "inputs": [
        {
          "internalType": "address",
          "name": "_to",
          "type": "address"
        },
        {
          "internalType": "string",
          "name": "_uri",
          "type": "string"
        },
        {
          "internalType": "address[]",
          "name": "_nftAddresses",
          "type": "address[]"
        },
        {
          "internalType": "uint256[]",
          "name": "_nftIds",
          "type": "uint256[]"
        }
      ],
      "name": "integrateNFTs",
      "outputs": [],
      "stateMutability": "nonpayable",
      "type": "function"
    },
    {
      "inputs": [],
      "name": "interNFTFactory",
      "outputs": [
        {
          "internalType": "address",
          "name": "",
          "type": "address"
        }
      ],
      "stateMutability": "view",
      "type": "function"
    },
    {
      "inputs": [],
      "name": "isPaused",
      "outputs": [
        {
          "internalType": "uint256",
          "name": "",
          "type": "uint256"
        }
      ],
      "stateMutability": "view",
      "type": "function"
    },
    {
      "inputs": [
        {
          "internalType": "uint256",
          "name": "",
          "type": "uint256"
        }
      ],
      "name": "nfts",
      "outputs": [
        {
          "internalType": "address",
          "name": "creator",
          "type": "address"
        },
        {
          "internalType": "address",
          "name": "nftAddress",
          "type": "address"
        }
      ],
      "stateMutability": "view",
      "type": "function"
    },
    {
      "inputs": [],
      "name": "owner",
      "outputs": [
        {
          "internalType": "address",
          "name": "",
          "type": "address"
        }
      ],
      "stateMutability": "view",
      "type": "function"
    },
    {
      "inputs": [
        {
          "internalType": "address",
          "name": "_newAdd",
          "type": "address"
        }
      ],
      "name": "setBase",
      "outputs": [],
      "stateMutability": "nonpayable",
      "type": "function"
    },
    {
      "inputs": [
        {
          "internalType": "address",
          "name": "_newAdd",
          "type": "address"
        }
      ],
      "name": "setIntegratedNFT",
      "outputs": [],
      "stateMutability": "nonpayable",
      "type": "function"
    },
    {
      "inputs": [
        {
          "internalType": "address",
          "name": "_newAdd",
          "type": "address"
        }
      ],
      "name": "setOwner",
      "outputs": [],
      "stateMutability": "nonpayable",
      "type": "function"
    },
    {
      "inputs": [],
      "name": "setPaused",
      "outputs": [],
      "stateMutability": "nonpayable",
      "type": "function"
    },
    {
      "inputs": [
        {
          "internalType": "address",
          "name": "_newAdd",
          "type": "address"
        }
      ],
      "name": "setWrapBase",
      "outputs": [],
      "stateMutability": "nonpayable",
      "type": "function"
    },
    {
      "inputs": [
        {
          "internalType": "uint256",
          "name": "integratedNFTId",
          "type": "uint256"
        },
        {
          "internalType": "address[]",
          "name": "_nftAddresses",
          "type": "address[]"
        },
        {
          "internalType": "uint256[]",
          "name": "_nftIds",
          "type": "uint256[]"
        }
      ],
      "name": "updateIntegrateNFTs",
      "outputs": [],
      "stateMutability": "nonpayable",
      "type": "function"
    },
    {
      "inputs": [],
      "name": "wrapBaseContract",
      "outputs": [
        {
          "internalType": "address",
          "name": "",
          "type": "address"
        }
      ],
      "stateMutability": "view",
      "type": "function"
    },
    {
      "inputs": [
        {
          "internalType": "uint256",
          "name": "",
          "type": "uint256"
        }
      ],
      "name": "wrappedNfts",
      "outputs": [
        {
          "internalType": "address",
          "name": "creator",
          "type": "address"
        },
        {
          "internalType": "address",
          "name": "nftAddress",
          "type": "address"
        }
      ],
      "stateMutability": "view",
      "type": "function"
    },
    {
      "inputs": [
        {
          "internalType": "string",
          "name": "_name",
          "type": "string"
        },
        {
          "internalType": "string",
          "name": "_symbol",
          "type": "string"
        },
        {
          "internalType": "string",
          "name": "_uri",
          "type": "string"
        },
        {
          "internalType": "string",
          "name": "_benefitURI",
          "type": "string"
        },
        {
          "internalType": "uint128[]",
          "name": "_defaultBenefit",
          "type": "uint128[]"
        },
        {
          "internalType": "address",
          "name": "_originalNFTAddress",
          "type": "address"
        }
      ],
      "name": "wrappingExternalNFT",
      "outputs": [],
      "stateMutability": "nonpayable",
      "type": "function"
    }
  ],
  "bytecode": "0x60806040523480156200001157600080fd5b50604051620027cc380380620027cc83398181016040528101906200003791906200017b565b336000806101000a81548173ffffffffffffffffffffffffffffffffffffffff021916908373ffffffffffffffffffffffffffffffffffffffff16021790555081600160006101000a81548173ffffffffffffffffffffffffffffffffffffffff021916908373ffffffffffffffffffffffffffffffffffffffff16021790555080600260006101000a81548173ffffffffffffffffffffffffffffffffffffffff021916908373ffffffffffffffffffffffffffffffffffffffff160217905550600060048190555060006005819055505050620001c2565b600080fd5b600073ffffffffffffffffffffffffffffffffffffffff82169050919050565b6000620001438262000116565b9050919050565b620001558162000136565b81146200016157600080fd5b50565b60008151905062000175816200014a565b92915050565b6000806040838503121562000195576200019462000111565b5b6000620001a58582860162000164565b9250506020620001b88582860162000164565b9150509250929050565b6125fa80620001d26000396000f3fe608060405234801561001057600080fd5b50600436106101165760003560e01c80639166e821116100a2578063be17fe6211610071578063be17fe62146102a7578063c6ec4111146102c3578063c97c8792146102df578063e3e42d62146102fb578063fd5deaa81461031757610116565b80639166e8211461023357806398643e501461024f578063ae8cda9a1461026d578063b187bd261461028957610116565b8063265aa621116100e9578063265aa621146101a057806337a66d85146101d15780635b32619c146101db5780637b7f1c6b146101f95780638da5cb5b1461021557610116565b806303aac2bf1461011b57806313af403514610137578063192545e0146101535780632649144614610184575b600080fd5b61013560048036038101906101309190611611565b610335565b005b610151600480360381019061014c9190611776565b610568565b005b61016d600480360381019061016891906117d9565b6105b3565b60405161017b929190611815565b60405180910390f35b61019e6004803603810190610199919061183e565b610617565b005b6101ba60048036038101906101b591906117d9565b6108fc565b6040516101c8929190611815565b60405180910390f35b6101d9610960565b005b6101e36109a8565b6040516101f0919061187e565b60405180910390f35b610213600480360381019061020e9190611899565b6109ce565b005b61021d610c04565b60405161022a919061187e565b60405180910390f35b61024d600480360381019061024891906119b2565b610c28565b005b610257610cd6565b604051610264919061187e565b60405180910390f35b61028760048036038101906102829190611b94565b610cfc565b005b610291610f1c565b60405161029e9190611c5e565b60405180910390f35b6102c160048036038101906102bc9190611776565b610f36565b005b6102dd60048036038101906102d89190611776565b610f82565b005b6102f960048036038101906102f49190611776565b610fce565b005b61031560048036038101906103109190611c79565b61101a565b005b61031f611237565b60405161032c919061187e565b60405180910390f35b6000600360149054906101000a900460ff1660ff161461038a576040517f08c379a000000000000000000000000000000000000000000000000000000000815260040161038190611d61565b60405180910390fd5b60006103b7600160009054906101000a900473ffffffffffffffffffffffffffffffffffffffff1661125d565b905060405180604001604052803373ffffffffffffffffffffffffffffffffffffffff1681526020018273ffffffffffffffffffffffffffffffffffffffff168152506006600060046000815461040d90611db0565b919050819055815260200190815260200160002060008201518160000160006101000a81548173ffffffffffffffffffffffffffffffffffffffff021916908373ffffffffffffffffffffffffffffffffffffffff16021790555060208201518160010160006101000a81548173ffffffffffffffffffffffffffffffffffffffff021916908373ffffffffffffffffffffffffffffffffffffffff1602179055509050508073ffffffffffffffffffffffffffffffffffffffff16632e5a55c93388888888886040518763ffffffff1660e01b81526004016104f596959493929190611f24565b600060405180830381600087803b15801561050f57600080fd5b505af1158015610523573d6000803e3d6000fd5b505050507f8abf7cfa8fefb4d85e1fee7597b1e9a2c02eb2d678393fc13f20fd3175cb62928133604051610558929190611815565b60405180910390a1505050505050565b610570611317565b806000806101000a81548173ffffffffffffffffffffffffffffffffffffffff021916908373ffffffffffffffffffffffffffffffffffffffff16021790555050565b60076020528060005260406000206000915090508060000160009054906101000a900473ffffffffffffffffffffffffffffffffffffffff16908060010160009054906101000a900473ffffffffffffffffffffffffffffffffffffffff16905082565b61061f611317565b6000600360009054906101000a900473ffffffffffffffffffffffffffffffffffffffff1673ffffffffffffffffffffffffffffffffffffffff16630986e6476004546040518263ffffffff1660e01b815260040161067e9190611c5e565b602060405180830381865afa15801561069b573d6000803e3d6000fd5b505050506040513d601f19601f820116820180604052508101906106bf9190611fbd565b90506000600167ffffffffffffffff8111156106de576106dd6113d6565b5b60405190808252806020026020018201604052801561070c5781602001602082028036833780820191505090505b50905060005b8281101561086357600080600360009054906101000a900473ffffffffffffffffffffffffffffffffffffffff1673ffffffffffffffffffffffffffffffffffffffff166356a938018760006040518363ffffffff1660e01b815260040161077b92919061202f565b6040805180830381865afa158015610797573d6000803e3d6000fd5b505050506040513d601f19601f820116820180604052508101906107bb919061206d565b9150915080846000815181106107d4576107d36120ad565b5b6020026020010181815250508173ffffffffffffffffffffffffffffffffffffffff16634ffb55838560006040518363ffffffff1660e01b815260040161081c9291906121d8565b600060405180830381600087803b15801561083657600080fd5b505af115801561084a573d6000803e3d6000fd5b505050505050808061085b90611db0565b915050610712565b50600360009054906101000a900473ffffffffffffffffffffffffffffffffffffffff1673ffffffffffffffffffffffffffffffffffffffff1663f5298aca858560016040518463ffffffff1660e01b81526004016108c493929190612243565b600060405180830381600087803b1580156108de57600080fd5b505af11580156108f2573d6000803e3d6000fd5b5050505050505050565b60066020528060005260406000206000915090508060000160009054906101000a900473ffffffffffffffffffffffffffffffffffffffff16908060010160009054906101000a900473ffffffffffffffffffffffffffffffffffffffff16905082565b610968611317565b6000600360149054906101000a900460ff1660ff161461098957600061098c565b60015b600360146101000a81548160ff021916908360ff160217905550565b600160009054906101000a900473ffffffffffffffffffffffffffffffffffffffff1681565b6000600360149054906101000a900460ff1660ff1614610a23576040517f08c379a0000000000000000000000000000000000000000000000000000000008152600401610a1a90611d61565b60405180910390fd5b6000610a50600260009054906101000a900473ffffffffffffffffffffffffffffffffffffffff1661125d565b905060405180604001604052803373ffffffffffffffffffffffffffffffffffffffff1681526020018273ffffffffffffffffffffffffffffffffffffffff1681525060076000600560008154610aa690611db0565b919050819055815260200190815260200160002060008201518160000160006101000a81548173ffffffffffffffffffffffffffffffffffffffff021916908373ffffffffffffffffffffffffffffffffffffffff16021790555060208201518160010160006101000a81548173ffffffffffffffffffffffffffffffffffffffff021916908373ffffffffffffffffffffffffffffffffffffffff1602179055509050508073ffffffffffffffffffffffffffffffffffffffff16631ae0b565338989898989896040518863ffffffff1660e01b8152600401610b90979695949392919061227a565b600060405180830381600087803b158015610baa57600080fd5b505af1158015610bbe573d6000803e3d6000fd5b505050507f8abf7cfa8fefb4d85e1fee7597b1e9a2c02eb2d678393fc13f20fd3175cb62928133604051610bf3929190611815565b60405180910390a150505050505050565b60008054906101000a900473ffffffffffffffffffffffffffffffffffffffff1681565b610c30611317565b8173ffffffffffffffffffffffffffffffffffffffff16630675b7c6826040518263ffffffff1660e01b8152600401610c69919061230c565b600060405180830381600087803b158015610c8357600080fd5b505af1158015610c97573d6000803e3d6000fd5b505050507f774ccfb93982b82d99c9e4aaa29bac1b5d6f09f9326cfb72c98f099ae82484d782604051610cca919061187e565b60405180910390a15050565b600360009054906101000a900473ffffffffffffffffffffffffffffffffffffffff1681565b610d04611317565b6000600167ffffffffffffffff811115610d2157610d206113d6565b5b604051908082528060200260200182016040528015610d4f5781602001602082028036833780820191505090505b50905060005b8351811015610e3457828181518110610d7157610d706120ad565b5b602002602001015182600081518110610d8d57610d8c6120ad565b5b602002602001018181525050838181518110610dac57610dab6120ad565b5b602002602001015173ffffffffffffffffffffffffffffffffffffffff16634ffb55838360016040518363ffffffff1660e01b8152600401610def92919061235f565b600060405180830381600087803b158015610e0957600080fd5b505af1158015610e1d573d6000803e3d6000fd5b505050508080610e2c90611db0565b915050610d55565b506000600360009054906101000a900473ffffffffffffffffffffffffffffffffffffffff1673ffffffffffffffffffffffffffffffffffffffff16639ccf15a6878787876040518563ffffffff1660e01b8152600401610e98949392919061244d565b6020604051808303816000875af1158015610eb7573d6000803e3d6000fd5b505050506040513d601f19601f82011682018060405250810190610edb9190611fbd565b90507fafebac9b22e6fb787eed07f536742afb3f168d83419ce64ec150bda1375e22f381604051610f0c9190611c5e565b60405180910390a1505050505050565b6000600360149054906101000a900460ff1660ff16905090565b610f3e611317565b80600160006101000a81548173ffffffffffffffffffffffffffffffffffffffff021916908373ffffffffffffffffffffffffffffffffffffffff16021790555050565b610f8a611317565b80600360006101000a81548173ffffffffffffffffffffffffffffffffffffffff021916908373ffffffffffffffffffffffffffffffffffffffff16021790555050565b610fd6611317565b80600260006101000a81548173ffffffffffffffffffffffffffffffffffffffff021916908373ffffffffffffffffffffffffffffffffffffffff16021790555050565b611022611317565b6000600167ffffffffffffffff81111561103f5761103e6113d6565b5b60405190808252806020026020018201604052801561106d5781602001602082028036833780820191505090505b50905060005b83518110156111525782818151811061108f5761108e6120ad565b5b6020026020010151826000815181106110ab576110aa6120ad565b5b6020026020010181815250508381815181106110ca576110c96120ad565b5b602002602001015173ffffffffffffffffffffffffffffffffffffffff16634ffb55838360016040518363ffffffff1660e01b815260040161110d92919061235f565b600060405180830381600087803b15801561112757600080fd5b505af115801561113b573d6000803e3d6000fd5b50505050808061114a90611db0565b915050611073565b506000600360009054906101000a900473ffffffffffffffffffffffffffffffffffffffff1673ffffffffffffffffffffffffffffffffffffffff166388660f8d8686866040518463ffffffff1660e01b81526004016111b4939291906124a7565b6020604051808303816000875af11580156111d3573d6000803e3d6000fd5b505050506040513d601f19601f820116820180604052508101906111f79190611fbd565b90507f8e7882894916b3fb56c1f5a8c1db396a6f05ca3fbb6b9b6bc00bedb644e9cf34816040516112289190611c5e565b60405180910390a15050505050565b600260009054906101000a900473ffffffffffffffffffffffffffffffffffffffff1681565b6000763d602d80600a3d3981f3363d3d373d3d3d363d730000008260601b60e81c176000526e5af43d82803e903d91602b57fd5bf38260781b17602052603760096000f09050600073ffffffffffffffffffffffffffffffffffffffff168173ffffffffffffffffffffffffffffffffffffffff1603611312576040517f08c379a000000000000000000000000000000000000000000000000000000000815260040161130990612538565b60405180910390fd5b919050565b3373ffffffffffffffffffffffffffffffffffffffff1660008054906101000a900473ffffffffffffffffffffffffffffffffffffffff1673ffffffffffffffffffffffffffffffffffffffff16146113a5576040517f08c379a000000000000000000000000000000000000000000000000000000000815260040161139c906125a4565b60405180910390fd5b565b6000604051905090565b600080fd5b600080fd5b600080fd5b600080fd5b6000601f19601f8301169050919050565b7f4e487b7100000000000000000000000000000000000000000000000000000000600052604160045260246000fd5b61140e826113c5565b810181811067ffffffffffffffff8211171561142d5761142c6113d6565b5b80604052505050565b60006114406113a7565b905061144c8282611405565b919050565b600067ffffffffffffffff82111561146c5761146b6113d6565b5b611475826113c5565b9050602081019050919050565b82818337600083830152505050565b60006114a461149f84611451565b611436565b9050828152602081018484840111156114c0576114bf6113c0565b5b6114cb848285611482565b509392505050565b600082601f8301126114e8576114e76113bb565b5b81356114f8848260208601611491565b91505092915050565b600067ffffffffffffffff82111561151c5761151b6113d6565b5b602082029050602081019050919050565b600080fd5b60006fffffffffffffffffffffffffffffffff82169050919050565b61155781611532565b811461156257600080fd5b50565b6000813590506115748161154e565b92915050565b600061158d61158884611501565b611436565b905080838252602082019050602084028301858111156115b0576115af61152d565b5b835b818110156115d957806115c58882611565565b8452602084019350506020810190506115b2565b5050509392505050565b600082601f8301126115f8576115f76113bb565b5b813561160884826020860161157a565b91505092915050565b600080600080600060a0868803121561162d5761162c6113b1565b5b600086013567ffffffffffffffff81111561164b5761164a6113b6565b5b611657888289016114d3565b955050602086013567ffffffffffffffff811115611678576116776113b6565b5b611684888289016114d3565b945050604086013567ffffffffffffffff8111156116a5576116a46113b6565b5b6116b1888289016114d3565b935050606086013567ffffffffffffffff8111156116d2576116d16113b6565b5b6116de888289016114d3565b925050608086013567ffffffffffffffff8111156116ff576116fe6113b6565b5b61170b888289016115e3565b9150509295509295909350565b600073ffffffffffffffffffffffffffffffffffffffff82169050919050565b600061174382611718565b9050919050565b61175381611738565b811461175e57600080fd5b50565b6000813590506117708161174a565b92915050565b60006020828403121561178c5761178b6113b1565b5b600061179a84828501611761565b91505092915050565b6000819050919050565b6117b6816117a3565b81146117c157600080fd5b50565b6000813590506117d3816117ad565b92915050565b6000602082840312156117ef576117ee6113b1565b5b60006117fd848285016117c4565b91505092915050565b61180f81611738565b82525050565b600060408201905061182a6000830185611806565b6118376020830184611806565b9392505050565b60008060408385031215611855576118546113b1565b5b600061186385828601611761565b9250506020611874858286016117c4565b9150509250929050565b60006020820190506118936000830184611806565b92915050565b60008060008060008060c087890312156118b6576118b56113b1565b5b600087013567ffffffffffffffff8111156118d4576118d36113b6565b5b6118e089828a016114d3565b965050602087013567ffffffffffffffff811115611901576119006113b6565b5b61190d89828a016114d3565b955050604087013567ffffffffffffffff81111561192e5761192d6113b6565b5b61193a89828a016114d3565b945050606087013567ffffffffffffffff81111561195b5761195a6113b6565b5b61196789828a016114d3565b935050608087013567ffffffffffffffff811115611988576119876113b6565b5b61199489828a016115e3565b92505060a06119a589828a01611761565b9150509295509295509295565b600080604083850312156119c9576119c86113b1565b5b60006119d785828601611761565b925050602083013567ffffffffffffffff8111156119f8576119f76113b6565b5b611a04858286016114d3565b9150509250929050565b600067ffffffffffffffff821115611a2957611a286113d6565b5b602082029050602081019050919050565b6000611a4d611a4884611a0e565b611436565b90508083825260208201905060208402830185811115611a7057611a6f61152d565b5b835b81811015611a995780611a858882611761565b845260208401935050602081019050611a72565b5050509392505050565b600082601f830112611ab857611ab76113bb565b5b8135611ac8848260208601611a3a565b91505092915050565b600067ffffffffffffffff821115611aec57611aeb6113d6565b5b602082029050602081019050919050565b6000611b10611b0b84611ad1565b611436565b90508083825260208201905060208402830185811115611b3357611b3261152d565b5b835b81811015611b5c5780611b4888826117c4565b845260208401935050602081019050611b35565b5050509392505050565b600082601f830112611b7b57611b7a6113bb565b5b8135611b8b848260208601611afd565b91505092915050565b60008060008060808587031215611bae57611bad6113b1565b5b6000611bbc87828801611761565b945050602085013567ffffffffffffffff811115611bdd57611bdc6113b6565b5b611be9878288016114d3565b935050604085013567ffffffffffffffff811115611c0a57611c096113b6565b5b611c1687828801611aa3565b925050606085013567ffffffffffffffff811115611c3757611c366113b6565b5b611c4387828801611b66565b91505092959194509250565b611c58816117a3565b82525050565b6000602082019050611c736000830184611c4f565b92915050565b600080600060608486031215611c9257611c916113b1565b5b6000611ca0868287016117c4565b935050602084013567ffffffffffffffff811115611cc157611cc06113b6565b5b611ccd86828701611aa3565b925050604084013567ffffffffffffffff811115611cee57611ced6113b6565b5b611cfa86828701611b66565b9150509250925092565b600082825260208201905092915050565b7f436f6e7472616374206973207061757365640000000000000000000000000000600082015250565b6000611d4b601283611d04565b9150611d5682611d15565b602082019050919050565b60006020820190508181036000830152611d7a81611d3e565b9050919050565b7f4e487b7100000000000000000000000000000000000000000000000000000000600052601160045260246000fd5b6000611dbb826117a3565b91507fffffffffffffffffffffffffffffffffffffffffffffffffffffffffffffffff8203611ded57611dec611d81565b5b600182019050919050565b600081519050919050565b60005b83811015611e21578082015181840152602081019050611e06565b60008484015250505050565b6000611e3882611df8565b611e428185611d04565b9350611e52818560208601611e03565b611e5b816113c5565b840191505092915050565b600081519050919050565b600082825260208201905092915050565b6000819050602082019050919050565b611e9b81611532565b82525050565b6000611ead8383611e92565b60208301905092915050565b6000602082019050919050565b6000611ed182611e66565b611edb8185611e71565b9350611ee683611e82565b8060005b83811015611f17578151611efe8882611ea1565b9750611f0983611eb9565b925050600181019050611eea565b5085935050505092915050565b600060c082019050611f396000830189611806565b8181036020830152611f4b8188611e2d565b90508181036040830152611f5f8187611e2d565b90508181036060830152611f738186611e2d565b90508181036080830152611f878185611e2d565b905081810360a0830152611f9b8184611ec6565b9050979650505050505050565b600081519050611fb7816117ad565b92915050565b600060208284031215611fd357611fd26113b1565b5b6000611fe184828501611fa8565b91505092915050565b6000819050919050565b6000819050919050565b600061201961201461200f84611fea565b611ff4565b6117a3565b9050919050565b61202981611ffe565b82525050565b60006040820190506120446000830185611c4f565b6120516020830184612020565b9392505050565b6000815190506120678161174a565b92915050565b60008060408385031215612084576120836113b1565b5b600061209285828601612058565b92505060206120a385828601611fa8565b9150509250929050565b7f4e487b7100000000000000000000000000000000000000000000000000000000600052603260045260246000fd5b600081519050919050565b600082825260208201905092915050565b6000819050602082019050919050565b612111816117a3565b82525050565b60006121238383612108565b60208301905092915050565b6000602082019050919050565b6000612147826120dc565b61215181856120e7565b935061215c836120f8565b8060005b8381101561218d5781516121748882612117565b975061217f8361212f565b925050600181019050612160565b5085935050505092915050565b600060ff82169050919050565b60006121c26121bd6121b884611fea565b611ff4565b61219a565b9050919050565b6121d2816121a7565b82525050565b600060408201905081810360008301526121f2818561213c565b905061220160208301846121c9565b9392505050565b6000819050919050565b600061222d61222861222384612208565b611ff4565b6117a3565b9050919050565b61223d81612212565b82525050565b60006060820190506122586000830186611806565b6122656020830185611c4f565b6122726040830184612234565b949350505050565b600060e08201905061228f600083018a611806565b81810360208301526122a18189611e2d565b905081810360408301526122b58188611e2d565b905081810360608301526122c98187611e2d565b905081810360808301526122dd8186611e2d565b905081810360a08301526122f18185611ec6565b905061230060c0830184611806565b98975050505050505050565b600060208201905081810360008301526123268184611e2d565b905092915050565b600061234961234461233f84612208565b611ff4565b61219a565b9050919050565b6123598161232e565b82525050565b60006040820190508181036000830152612379818561213c565b90506123886020830184612350565b9392505050565b600081519050919050565b600082825260208201905092915050565b6000819050602082019050919050565b6123c481611738565b82525050565b60006123d683836123bb565b60208301905092915050565b6000602082019050919050565b60006123fa8261238f565b612404818561239a565b935061240f836123ab565b8060005b8381101561244057815161242788826123ca565b9750612432836123e2565b925050600181019050612413565b5085935050505092915050565b60006080820190506124626000830187611806565b81810360208301526124748186611e2d565b9050818103604083015261248881856123ef565b9050818103606083015261249c818461213c565b905095945050505050565b60006060820190506124bc6000830186611c4f565b81810360208301526124ce81856123ef565b905081810360408301526124e2818461213c565b9050949350505050565b7f455243313136373a20637265617465206661696c656400000000000000000000600082015250565b6000612522601683611d04565b915061252d826124ec565b602082019050919050565b6000602082019050818103600083015261255181612515565b9050919050565b7f4e6f74204f776e65720000000000000000000000000000000000000000000000600082015250565b600061258e600983611d04565b915061259982612558565b602082019050919050565b600060208201905081810360008301526125bd81612581565b905091905056fea26469706673582212204224e20115d1bde745b5009e7998717f11dea1302dff6413303ba59f3fbcf3b964736f6c63430008110033",
  "linkReferences": {},
  "deployedLinkReferences": {}
}