{
  "_format": "hh-sol-artifact-1",
  "contractName": "YoursWrappedNFT",
  "sourceName": "contracts/YoursWrappedNFT.sol",
  "abi": [
    {
      "inputs": [],
      "stateMutability": "nonpayable",
      "type": "constructor"
    },
    {
      "anonymous": false,
      "inputs": [
        {
          "indexed": true,
          "internalType": "address",
          "name": "owner",
          "type": "address"
        },
        {
          "indexed": true,
          "internalType": "address",
          "name": "approved",
          "type": "address"
        },
        {
          "indexed": true,
          "internalType": "uint256",
          "name": "tokenId",
          "type": "uint256"
        }
      ],
      "name": "Approval",
      "type": "event"
    },
    {
      "anonymous": false,
      "inputs": [
        {
          "indexed": true,
          "internalType": "address",
          "name": "owner",
          "type": "address"
        },
        {
          "indexed": true,
          "internalType": "address",
          "name": "operator",
          "type": "address"
        },
        {
          "indexed": false,
          "internalType": "bool",
          "name": "approved",
          "type": "bool"
        }
      ],
      "name": "ApprovalForAll",
      "type": "event"
    },
    {
      "anonymous": false,
      "inputs": [
        {
          "indexed": false,
          "internalType": "uint256",
          "name": "originalNFTId",
          "type": "uint256"
        },
        {
          "indexed": false,
          "internalType": "uint256",
          "name": "wrappedNFTId",
          "type": "uint256"
        }
      ],
      "name": "Burn",
      "type": "event"
    },
    {
      "anonymous": false,
      "inputs": [
        {
          "indexed": false,
          "internalType": "string",
          "name": "",
          "type": "string"
        }
      ],
      "name": "ChangeBenefitsURI",
      "type": "event"
    },
    {
      "anonymous": false,
      "inputs": [
        {
          "indexed": false,
          "internalType": "string",
          "name": "",
          "type": "string"
        }
      ],
      "name": "ChangeTokenUri",
      "type": "event"
    },
    {
      "anonymous": false,
      "inputs": [
        {
          "indexed": false,
          "internalType": "uint256",
          "name": "originalNFTId",
          "type": "uint256"
        },
        {
          "indexed": false,
          "internalType": "uint256",
          "name": "wrappedNFTId",
          "type": "uint256"
        }
      ],
      "name": "Mint",
      "type": "event"
    },
    {
      "anonymous": false,
      "inputs": [
        {
          "indexed": true,
          "internalType": "address",
          "name": "from",
          "type": "address"
        },
        {
          "indexed": true,
          "internalType": "address",
          "name": "to",
          "type": "address"
        },
        {
          "indexed": true,
          "internalType": "uint256",
          "name": "tokenId",
          "type": "uint256"
        }
      ],
      "name": "Transfer",
      "type": "event"
    },
    {
      "anonymous": false,
      "inputs": [
        {
          "indexed": true,
          "internalType": "address",
          "name": "from",
          "type": "address"
        },
        {
          "indexed": true,
          "internalType": "address",
          "name": "to",
          "type": "address"
        },
        {
          "indexed": false,
          "internalType": "uint256",
          "name": "originalNFTId",
          "type": "uint256"
        },
        {
          "indexed": false,
          "internalType": "uint256",
          "name": "wrappedId",
          "type": "uint256"
        }
      ],
      "name": "UnwrapAndTransfer",
      "type": "event"
    },
    {
      "inputs": [
        {
          "internalType": "address",
          "name": "to",
          "type": "address"
        },
        {
          "internalType": "uint256",
          "name": "tokenId",
          "type": "uint256"
        }
      ],
      "name": "approve",
      "outputs": [],
      "stateMutability": "nonpayable",
      "type": "function"
    },
    {
      "inputs": [
        {
          "internalType": "address",
          "name": "tradeAddress",
          "type": "address"
        }
      ],
      "name": "approveToSell",
      "outputs": [],
      "stateMutability": "nonpayable",
      "type": "function"
    },
    {
      "inputs": [
        {
          "internalType": "address",
          "name": "owner",
          "type": "address"
        }
      ],
      "name": "balanceOf",
      "outputs": [
        {
          "internalType": "uint256",
          "name": "",
          "type": "uint256"
        }
      ],
      "stateMutability": "view",
      "type": "function"
    },
    {
      "inputs": [],
      "name": "benefitURI",
      "outputs": [
        {
          "internalType": "string",
          "name": "",
          "type": "string"
        }
      ],
      "stateMutability": "view",
      "type": "function"
    },
    {
      "inputs": [
        {
          "internalType": "uint256",
          "name": "",
          "type": "uint256"
        },
        {
          "internalType": "uint256",
          "name": "",
          "type": "uint256"
        }
      ],
      "name": "benefits",
      "outputs": [
        {
          "internalType": "uint256",
          "name": "",
          "type": "uint256"
        }
      ],
      "stateMutability": "view",
      "type": "function"
    },
    {
      "inputs": [
        {
          "internalType": "uint256",
          "name": "_id",
          "type": "uint256"
        }
      ],
      "name": "burn",
      "outputs": [],
      "stateMutability": "nonpayable",
      "type": "function"
    },
    {
      "inputs": [
        {
          "internalType": "uint256[]",
          "name": "_ids",
          "type": "uint256[]"
        },
        {
          "internalType": "uint256[]",
          "name": "_newBenefits",
          "type": "uint256[]"
        }
      ],
      "name": "changeBatchBenefits",
      "outputs": [],
      "stateMutability": "nonpayable",
      "type": "function"
    },
    {
      "inputs": [
        {
          "internalType": "uint256",
          "name": "_id",
          "type": "uint256"
        },
        {
          "internalType": "uint256[]",
          "name": "_newBenefits",
          "type": "uint256[]"
        }
      ],
      "name": "changeSingleBenefits",
      "outputs": [],
      "stateMutability": "nonpayable",
      "type": "function"
    },
    {
      "inputs": [
        {
          "internalType": "uint256",
          "name": "",
          "type": "uint256"
        }
      ],
      "name": "defaultBenefit",
      "outputs": [
        {
          "internalType": "uint128",
          "name": "",
          "type": "uint128"
        }
      ],
      "stateMutability": "view",
      "type": "function"
    },
    {
      "inputs": [],
      "name": "factory",
      "outputs": [
        {
          "internalType": "address",
          "name": "",
          "type": "address"
        }
      ],
      "stateMutability": "view",
      "type": "function"
    },
    {
      "inputs": [
        {
          "internalType": "uint256",
          "name": "tokenId",
          "type": "uint256"
        }
      ],
      "name": "getApproved",
      "outputs": [
        {
          "internalType": "address",
          "name": "",
          "type": "address"
        }
      ],
      "stateMutability": "view",
      "type": "function"
    },
    {
      "inputs": [],
      "name": "getOriginalNFTCount",
      "outputs": [
        {
          "internalType": "uint256",
          "name": "",
          "type": "uint256"
        }
      ],
      "stateMutability": "view",
      "type": "function"
    },
    {
      "inputs": [],
      "name": "getOriginalNFTIds",
      "outputs": [
        {
          "internalType": "uint256[]",
          "name": "",
          "type": "uint256[]"
        }
      ],
      "stateMutability": "view",
      "type": "function"
    },
    {
      "inputs": [
        {
          "internalType": "address",
          "name": "_owner",
          "type": "address"
        },
        {
          "internalType": "string",
          "name": "_name",
          "type": "string"
        },
        {
          "internalType": "string",
          "name": "_symbol",
          "type": "string"
        },
        {
          "internalType": "string",
          "name": "_uri",
          "type": "string"
        },
        {
          "internalType": "string",
          "name": "_benefitURI",
          "type": "string"
        },
        {
          "internalType": "uint128[]",
          "name": "_defaultBenefit",
          "type": "uint128[]"
        },
        {
          "internalType": "address",
          "name": "_originalNFTAddress",
          "type": "address"
        }
      ],
      "name": "initialize",
      "outputs": [],
      "stateMutability": "nonpayable",
      "type": "function"
    },
    {
      "inputs": [
        {
          "internalType": "address",
          "name": "owner",
          "type": "address"
        },
        {
          "internalType": "address",
          "name": "operator",
          "type": "address"
        }
      ],
      "name": "isApprovedForAll",
      "outputs": [
        {
          "internalType": "bool",
          "name": "",
          "type": "bool"
        }
      ],
      "stateMutability": "view",
      "type": "function"
    },
    {
      "inputs": [
        {
          "internalType": "address",
          "name": "_to",
          "type": "address"
        },
        {
          "internalType": "address",
          "name": "_originalNFTAddress",
          "type": "address"
        },
        {
          "internalType": "uint256",
          "name": "_originalNFTId",
          "type": "uint256"
        }
      ],
      "name": "mint",
      "outputs": [],
      "stateMutability": "nonpayable",
      "type": "function"
    },
    {
      "inputs": [],
      "name": "name",
      "outputs": [
        {
          "internalType": "string",
          "name": "",
          "type": "string"
        }
      ],
      "stateMutability": "view",
      "type": "function"
    },
    {
      "inputs": [
        {
          "internalType": "uint256",
          "name": "",
          "type": "uint256"
        }
      ],
      "name": "nftIdToIndex",
      "outputs": [
        {
          "internalType": "uint256",
          "name": "",
          "type": "uint256"
        }
      ],
      "stateMutability": "view",
      "type": "function"
    },
    {
      "inputs": [
        {
          "internalType": "address",
          "name": "operator",
          "type": "address"
        },
        {
          "internalType": "address",
          "name": "from",
          "type": "address"
        },
        {
          "internalType": "uint256",
          "name": "tokenId",
          "type": "uint256"
        },
        {
          "internalType": "bytes",
          "name": "data",
          "type": "bytes"
        }
      ],
      "name": "onERC721Received",
      "outputs": [
        {
          "internalType": "bytes4",
          "name": "",
          "type": "bytes4"
        }
      ],
      "stateMutability": "nonpayable",
      "type": "function"
    },
    {
      "inputs": [],
      "name": "originNFTAddr",
      "outputs": [
        {
          "internalType": "address",
          "name": "",
          "type": "address"
        }
      ],
      "stateMutability": "view",
      "type": "function"
    },
    {
      "inputs": [],
      "name": "originalNFTAddress",
      "outputs": [
        {
          "internalType": "address",
          "name": "",
          "type": "address"
        }
      ],
      "stateMutability": "view",
      "type": "function"
    },
    {
      "inputs": [
        {
          "internalType": "uint256",
          "name": "",
          "type": "uint256"
        }
      ],
      "name": "originalToWrapped",
      "outputs": [
        {
          "internalType": "uint256",
          "name": "",
          "type": "uint256"
        }
      ],
      "stateMutability": "view",
      "type": "function"
    },
    {
      "inputs": [],
      "name": "owner",
      "outputs": [
        {
          "internalType": "address",
          "name": "",
          "type": "address"
        }
      ],
      "stateMutability": "view",
      "type": "function"
    },
    {
      "inputs": [
        {
          "internalType": "uint256",
          "name": "tokenId",
          "type": "uint256"
        }
      ],
      "name": "ownerOf",
      "outputs": [
        {
          "internalType": "address",
          "name": "",
          "type": "address"
        }
      ],
      "stateMutability": "view",
      "type": "function"
    },
    {
      "inputs": [
        {
          "internalType": "uint256",
          "name": "",
          "type": "uint256"
        }
      ],
      "name": "receivedNFTIds",
      "outputs": [
        {
          "internalType": "uint256",
          "name": "",
          "type": "uint256"
        }
      ],
      "stateMutability": "view",
      "type": "function"
    },
    {
      "inputs": [
        {
          "internalType": "address",
          "name": "from",
          "type": "address"
        },
        {
          "internalType": "address",
          "name": "to",
          "type": "address"
        },
        {
          "internalType": "uint256",
          "name": "tokenId",
          "type": "uint256"
        }
      ],
      "name": "safeTransferFrom",
      "outputs": [],
      "stateMutability": "nonpayable",
      "type": "function"
    },
    {
      "inputs": [
        {
          "internalType": "address",
          "name": "from",
          "type": "address"
        },
        {
          "internalType": "address",
          "name": "to",
          "type": "address"
        },
        {
          "internalType": "uint256",
          "name": "tokenId",
          "type": "uint256"
        },
        {
          "internalType": "bytes",
          "name": "data",
          "type": "bytes"
        }
      ],
      "name": "safeTransferFrom",
      "outputs": [],
      "stateMutability": "nonpayable",
      "type": "function"
    },
    {
      "inputs": [
        {
          "internalType": "address",
          "name": "operator",
          "type": "address"
        },
        {
          "internalType": "bool",
          "name": "approved",
          "type": "bool"
        }
      ],
      "name": "setApprovalForAll",
      "outputs": [],
      "stateMutability": "nonpayable",
      "type": "function"
    },
    {
      "inputs": [
        {
          "internalType": "string",
          "name": "_uri",
          "type": "string"
        }
      ],
      "name": "setBenefitsURI",
      "outputs": [],
      "stateMutability": "nonpayable",
      "type": "function"
    },
    {
      "inputs": [
        {
          "internalType": "uint256[]",
          "name": "_ids",
          "type": "uint256[]"
        },
        {
          "internalType": "uint8",
          "name": "_lock",
          "type": "uint8"
        }
      ],
      "name": "setLock",
      "outputs": [],
      "stateMutability": "nonpayable",
      "type": "function"
    },
    {
      "inputs": [
        {
          "internalType": "address",
          "name": "_newAdd",
          "type": "address"
        }
      ],
      "name": "setOwner",
      "outputs": [],
      "stateMutability": "nonpayable",
      "type": "function"
    },
    {
      "inputs": [
        {
          "internalType": "string",
          "name": "_newTokenUri",
          "type": "string"
        }
      ],
      "name": "setTokenUri",
      "outputs": [],
      "stateMutability": "nonpayable",
      "type": "function"
    },
    {
      "inputs": [
        {
          "internalType": "bytes4",
          "name": "interfaceId",
          "type": "bytes4"
        }
      ],
      "name": "supportsInterface",
      "outputs": [
        {
          "internalType": "bool",
          "name": "",
          "type": "bool"
        }
      ],
      "stateMutability": "view",
      "type": "function"
    },
    {
      "inputs": [],
      "name": "symbol",
      "outputs": [
        {
          "internalType": "string",
          "name": "",
          "type": "string"
        }
      ],
      "stateMutability": "view",
      "type": "function"
    },
    {
      "inputs": [
        {
          "internalType": "uint256",
          "name": "index",
          "type": "uint256"
        }
      ],
      "name": "tokenByIndex",
      "outputs": [
        {
          "internalType": "uint256",
          "name": "",
          "type": "uint256"
        }
      ],
      "stateMutability": "view",
      "type": "function"
    },
    {
      "inputs": [
        {
          "internalType": "address",
          "name": "owner",
          "type": "address"
        },
        {
          "internalType": "uint256",
          "name": "index",
          "type": "uint256"
        }
      ],
      "name": "tokenOfOwnerByIndex",
      "outputs": [
        {
          "internalType": "uint256",
          "name": "",
          "type": "uint256"
        }
      ],
      "stateMutability": "view",
      "type": "function"
    },
    {
      "inputs": [
        {
          "internalType": "uint256",
          "name": "_id",
          "type": "uint256"
        }
      ],
      "name": "tokenURI",
      "outputs": [
        {
          "internalType": "string",
          "name": "",
          "type": "string"
        }
      ],
      "stateMutability": "view",
      "type": "function"
    },
    {
      "inputs": [],
      "name": "totalSupply",
      "outputs": [
        {
          "internalType": "uint256",
          "name": "",
          "type": "uint256"
        }
      ],
      "stateMutability": "view",
      "type": "function"
    },
    {
      "inputs": [
        {
          "internalType": "address",
          "name": "from",
          "type": "address"
        },
        {
          "internalType": "address",
          "name": "to",
          "type": "address"
        },
        {
          "internalType": "uint256",
          "name": "tokenId",
          "type": "uint256"
        }
      ],
      "name": "transferFrom",
      "outputs": [],
      "stateMutability": "nonpayable",
      "type": "function"
    },
    {
      "inputs": [
        {
          "internalType": "address",
          "name": "to",
          "type": "address"
        },
        {
          "internalType": "uint256",
          "name": "tokenId",
          "type": "uint256"
        }
      ],
      "name": "unwrapAndTransfer",
      "outputs": [],
      "stateMutability": "nonpayable",
      "type": "function"
    },
    {
      "inputs": [
        {
          "internalType": "uint256",
          "name": "",
          "type": "uint256"
        }
      ],
      "name": "wrappedToOriginal",
      "outputs": [
        {
          "internalType": "uint256",
          "name": "",
          "type": "uint256"
        }
      ],
      "stateMutability": "view",
      "type": "function"
    }
  ],
  "bytecode": "0x608060405234801561001057600080fd5b506001600a60006101000a81548160ff021916908360ff1602179055506151cf8061003c6000396000f3fe608060405234801561001057600080fd5b50600436106102535760003560e01c80636352211e11610146578063a6e1a894116100c3578063c45a015511610087578063c45a01551461072e578063c6c3bbe61461074c578063c87b56dd14610768578063c91712c914610798578063e985e9c5146107b4578063fb80dbee146107e457610253565b8063a6e1a8941461067a578063a737d81814610696578063acf0bd40146106b2578063b2a64062146106e2578063b88d4fde1461071257610253565b8063916c2a0f1161010a578063916c2a0f146105d457806395d89b41146105f257806396cf0fd11461061057806398f75b711461062e578063a22cb4651461065e57610253565b80636352211e1461051c57806370a082311461054c578063720b0df01461057c5780638ce433671461059a5780638da5cb5b146105b657610253565b806323b872dd116101d457806342966c681161019857806342966c681461047857806344596369146104945780634f6ccce7146104b25780634ffb5583146104e257806359999a58146104fe57610253565b806323b872dd146103c4578063291fad32146103e05780632f745c59146103fc5780633f262d771461042c57806342842e0e1461045c57610253565b806313af40351161021b57806313af40351461030e578063150b7a021461032a57806318160ddd1461035a5780631ae0b565146103785780631bf83a9d1461039457610253565b806301ffc9a7146102585780630675b7c61461028857806306fdde03146102a4578063081812fc146102c2578063095ea7b3146102f2575b600080fd5b610272600480360381019061026d9190613458565b610814565b60405161027f91906134a0565b60405180910390f35b6102a2600480360381019061029d9190613601565b61088e565b005b6102ac6108e0565b6040516102b991906136c9565b60405180910390f35b6102dc60048036038101906102d79190613721565b610972565b6040516102e9919061378f565b60405180910390f35b61030c600480360381019061030791906137d6565b6109b8565b005b61032860048036038101906103239190613816565b610acf565b005b610344600480360381019061033f91906138a3565b610b1b565b604051610351919061393a565b60405180910390f35b610362610c3f565b60405161036f9190613964565b60405180910390f35b610392600480360381019061038d9190613a8a565b610c4c565b005b6103ae60048036038101906103a99190613721565b610e47565b6040516103bb9190613964565b60405180910390f35b6103de60048036038101906103d99190613bb8565b610e5f565b005b6103fa60048036038101906103f59190613816565b610ebf565b005b610416600480360381019061041191906137d6565b610ed5565b6040516104239190613964565b60405180910390f35b61044660048036038101906104419190613721565b610f7a565b6040516104539190613964565b60405180910390f35b61047660048036038101906104719190613bb8565b610f92565b005b610492600480360381019061048d9190613721565b610fb2565b005b61049c61114b565b6040516104a99190613cc9565b60405180910390f35b6104cc60048036038101906104c79190613721565b6111a3565b6040516104d99190613964565b60405180910390f35b6104fc60048036038101906104f79190613de7565b611214565b005b610506611286565b6040516105139190613964565b60405180910390f35b61053660048036038101906105319190613721565b611293565b604051610543919061378f565b60405180910390f35b61056660048036038101906105619190613816565b611319565b6040516105739190613964565b60405180910390f35b6105846113d0565b60405161059191906136c9565b60405180910390f35b6105b460048036038101906105af91906137d6565b61145e565b005b6105be611663565b6040516105cb919061378f565b60405180910390f35b6105dc611689565b6040516105e9919061378f565b60405180910390f35b6105fa6116b3565b60405161060791906136c9565b60405180910390f35b610618611745565b604051610625919061378f565b60405180910390f35b61064860048036038101906106439190613721565b61176b565b6040516106559190613964565b60405180910390f35b61067860048036038101906106739190613e6f565b611783565b005b610694600480360381019061068f9190613eaf565b611799565b005b6106b060048036038101906106ab9190613f27565b611807565b005b6106cc60048036038101906106c79190613f83565b61183b565b6040516106d99190613964565b60405180910390f35b6106fc60048036038101906106f79190613721565b61186c565b6040516107099190613964565b60405180910390f35b61072c60048036038101906107279190614064565b611890565b005b6107366118f2565b604051610743919061378f565b60405180910390f35b61076660048036038101906107619190613bb8565b611918565b005b610782600480360381019061077d9190613721565b611b52565b60405161078f91906136c9565b60405180910390f35b6107b260048036038101906107ad9190613601565b611be6565b005b6107ce60048036038101906107c991906140e7565b611c38565b6040516107db91906134a0565b60405180910390f35b6107fe60048036038101906107f99190613721565b611ccc565b60405161080b9190614136565b60405180910390f35b60007f780e9d63000000000000000000000000000000000000000000000000000000007bffffffffffffffffffffffffffffffffffffffffffffffffffffffff1916827bffffffffffffffffffffffffffffffffffffffffffffffffffffffff19161480610887575061088682611d12565b5b9050919050565b610896611df4565b80601490816108a5919061435d565b507f6fc65e1f11a83c81a8f3600c22e0f268d8f2393e316d31232209cb9ee1ee5c45816040516108d591906136c9565b60405180910390a150565b6060600080546108ef90614180565b80601f016020809104026020016040519081016040528092919081815260200182805461091b90614180565b80156109685780601f1061093d57610100808354040283529160200191610968565b820191906000526020600020905b81548152906001019060200180831161094b57829003601f168201915b5050505050905090565b600061097d82611e86565b6004600083815260200190815260200160002060009054906101000a900473ffffffffffffffffffffffffffffffffffffffff169050919050565b60006109c382611293565b90508073ffffffffffffffffffffffffffffffffffffffff168373ffffffffffffffffffffffffffffffffffffffff1603610a33576040517f08c379a0000000000000000000000000000000000000000000000000000000008152600401610a2a906144a1565b60405180910390fd5b8073ffffffffffffffffffffffffffffffffffffffff16610a52611ed1565b73ffffffffffffffffffffffffffffffffffffffff161480610a815750610a8081610a7b611ed1565b611c38565b5b610ac0576040517f08c379a0000000000000000000000000000000000000000000000000000000008152600401610ab790614533565b60405180910390fd5b610aca8383611ed9565b505050565b610ad7611f92565b80600c60006101000a81548173ffffffffffffffffffffffffffffffffffffffff021916908373ffffffffffffffffffffffffffffffffffffffff16021790555050565b6000600e60009054906101000a900473ffffffffffffffffffffffffffffffffffffffff1673ffffffffffffffffffffffffffffffffffffffff163373ffffffffffffffffffffffffffffffffffffffff1614610bad576040517f08c379a0000000000000000000000000000000000000000000000000000000008152600401610ba49061459f565b60405180910390fd5b60016017600086815260200190815260200160002060006101000a81548160ff021916908360ff160217905550600f8490806001815401808255809150506001900390600052602060002001600090919091909150556001600f80549050610c1591906145ee565b601060008681526020019081526020016000208190555063150b7a0260e01b905095945050505050565b6000600880549050905090565b6000600a60009054906101000a900460ff1660ff1614610ca1576040517f08c379a0000000000000000000000000000000000000000000000000000000008152600401610c989061466e565b60405180910390fd5b600073ffffffffffffffffffffffffffffffffffffffff16600c60009054906101000a900473ffffffffffffffffffffffffffffffffffffffff1673ffffffffffffffffffffffffffffffffffffffff1614610d32576040517f08c379a0000000000000000000000000000000000000000000000000000000008152600401610d29906146da565b60405180910390fd5b86600c60006101000a81548173ffffffffffffffffffffffffffffffffffffffff021916908373ffffffffffffffffffffffffffffffffffffffff16021790555033600d60006101000a81548173ffffffffffffffffffffffffffffffffffffffff021916908373ffffffffffffffffffffffffffffffffffffffff16021790555060006013819055508360149081610dcb919061435d565b508260159081610ddb919061435d565b5081600b9080519060200190610df292919061328d565b5080600e60006101000a81548173ffffffffffffffffffffffffffffffffffffffff021916908373ffffffffffffffffffffffffffffffffffffffff160217905550610e3e8686612024565b50505050505050565b60116020528060005260406000206000915090505481565b610e70610e6a611ed1565b82612048565b610eaf576040517f08c379a0000000000000000000000000000000000000000000000000000000008152600401610ea69061476c565b60405180910390fd5b610eba8383836120dd565b505050565b610ec7611f92565b610ed2816001611783565b50565b6000610ee083611319565b8210610f21576040517f08c379a0000000000000000000000000000000000000000000000000000000008152600401610f18906147fe565b60405180910390fd5b600660008473ffffffffffffffffffffffffffffffffffffffff1673ffffffffffffffffffffffffffffffffffffffff168152602001908152602001600020600083815260200190815260200160002054905092915050565b60106020528060005260406000206000915090505481565b610fad83838360405180602001604052806000815250611890565b505050565b6000600a60009054906101000a900460ff1660ff1614611007576040517f08c379a0000000000000000000000000000000000000000000000000000000008152600401610ffe9061486a565b60405180910390fd5b61100f611f92565b6000601160008381526020019081526020016000205490506016600083815260200190815260200160002060006110469190613361565b600e60009054906101000a900473ffffffffffffffffffffffffffffffffffffffff1673ffffffffffffffffffffffffffffffffffffffff166323b872dd3033846040518463ffffffff1660e01b81526004016110a59392919061488a565b600060405180830381600087803b1580156110bf57600080fd5b505af11580156110d3573d6000803e3d6000fd5b505050506011600083815260200190815260200160002060009055601260008281526020019081526020016000206000905561110e826123d6565b7f410c5c259085cde81fedf70c1aa308ec839373c26e9b7ada6560a2aca0254eb6818360405161113f9291906148c1565b60405180910390a15050565b6060600f80548060200260200160405190810160405280929190818152602001828054801561119957602002820191906000526020600020905b815481526020019060010190808311611185575b5050505050905090565b60006111ad610c3f565b82106111ee576040517f08c379a00000000000000000000000000000000000000000000000000000000081526004016111e59061495c565b60405180910390fd5b600882815481106112025761120161497c565b5b90600052602060002001549050919050565b61121c611df4565b60005b82518110156112815781601860008584815181106112405761123f61497c565b5b6020026020010151815260200190815260200160002060006101000a81548160ff021916908360ff1602179055508080611279906149ab565b91505061121f565b505050565b6000600f80549050905090565b60008061129f83612524565b9050600073ffffffffffffffffffffffffffffffffffffffff168173ffffffffffffffffffffffffffffffffffffffff1603611310576040517f08c379a000000000000000000000000000000000000000000000000000000000815260040161130790614a3f565b60405180910390fd5b80915050919050565b60008073ffffffffffffffffffffffffffffffffffffffff168273ffffffffffffffffffffffffffffffffffffffff1603611389576040517f08c379a000000000000000000000000000000000000000000000000000000000815260040161138090614ad1565b60405180910390fd5b600360008373ffffffffffffffffffffffffffffffffffffffff1673ffffffffffffffffffffffffffffffffffffffff168152602001908152602001600020549050919050565b601580546113dd90614180565b80601f016020809104026020016040519081016040528092919081815260200182805461140990614180565b80156114565780601f1061142b57610100808354040283529160200191611456565b820191906000526020600020905b81548152906001019060200180831161143957829003601f168201915b505050505081565b60006018600083815260200190815260200160002060009054906101000a900460ff1660ff16146114c4576040517f08c379a00000000000000000000000000000000000000000000000000000000081526004016114bb90614b3d565b60405180910390fd5b6114cc611f92565b600060116000838152602001908152602001600020549050600e60009054906101000a900473ffffffffffffffffffffffffffffffffffffffff1673ffffffffffffffffffffffffffffffffffffffff166323b872dd3085846040518463ffffffff1660e01b81526004016115439392919061488a565b600060405180830381600087803b15801561155d57600080fd5b505af1158015611571573d6000803e3d6000fd5b5050505061157e82612561565b6017600082815260200190815260200160002060006101000a81549060ff02191690556016600083815260200190815260200160002060006115c09190613361565b601160008381526020019081526020016000206000905560126000828152602001908152602001600020600090556115f7826123d6565b8273ffffffffffffffffffffffffffffffffffffffff163373ffffffffffffffffffffffffffffffffffffffff167ffa724405edea6bf6b141f136b780e8c26f993222bafc89dc36f17a3a535e569383856040516116569291906148c1565b60405180910390a3505050565b600c60009054906101000a900473ffffffffffffffffffffffffffffffffffffffff1681565b6000600e60009054906101000a900473ffffffffffffffffffffffffffffffffffffffff16905090565b6060600180546116c290614180565b80601f01602080910402602001604051908101604052809291908181526020018280546116ee90614180565b801561173b5780601f106117105761010080835404028352916020019161173b565b820191906000526020600020905b81548152906001019060200180831161171e57829003601f168201915b5050505050905090565b600e60009054906101000a900473ffffffffffffffffffffffffffffffffffffffff1681565b60126020528060005260406000206000915090505481565b61179561178e611ed1565b838361264a565b5050565b6117a1611f92565b60005b82518110156118025781601660008584815181106117c5576117c461497c565b5b6020026020010151815260200190815260200160002090805190602001906117ee929190613382565b5080806117fa906149ab565b9150506117a4565b505050565b61180f611f92565b80601660008481526020019081526020016000209080519060200190611836929190613382565b505050565b6016602052816000526040600020818154811061185757600080fd5b90600052602060002001600091509150505481565b600f818154811061187c57600080fd5b906000526020600020016000915090505481565b6118a161189b611ed1565b83612048565b6118e0576040517f08c379a00000000000000000000000000000000000000000000000000000000081526004016118d79061476c565b60405180910390fd5b6118ec848484846127b6565b50505050565b600d60009054906101000a900473ffffffffffffffffffffffffffffffffffffffff1681565b6000600a60009054906101000a900460ff1660ff161461196d576040517f08c379a00000000000000000000000000000000000000000000000000000000081526004016119649061486a565b60405180910390fd5b8173ffffffffffffffffffffffffffffffffffffffff16600e60009054906101000a900473ffffffffffffffffffffffffffffffffffffffff1673ffffffffffffffffffffffffffffffffffffffff16146119fd576040517f08c379a00000000000000000000000000000000000000000000000000000000081526004016119f490614bcf565b60405180910390fd5b611a05611f92565b6000601360008154611a16906149ab565b9190508190559050600060166000838152602001908152602001600020905060005b600b80549050811015611ad75781600b8281548110611a5a57611a5961497c565b5b90600052602060002090600291828204019190066010029054906101000a90046fffffffffffffffffffffffffffffffff1690806001815401808255809150506001900390600052602060002001600090916fffffffffffffffffffffffffffffffff169091909150558080611acf906149ab565b915050611a38565b50611ae28583612812565b8260116000848152602001908152602001600020819055508160126000858152602001908152602001600020819055507fcc9c58b575eabd3f6a1ee653e91fcea3ff546867ffc3782a3bbca1f9b6dbb8df8383604051611b439291906148c1565b60405180910390a15050505050565b606060148054611b6190614180565b80601f0160208091040260200160405190810160405280929190818152602001828054611b8d90614180565b8015611bda5780601f10611baf57610100808354040283529160200191611bda565b820191906000526020600020905b815481529060010190602001808311611bbd57829003601f168201915b50505050509050919050565b611bee611f92565b8060159081611bfd919061435d565b507f3c8300f5e3cd88a366686ee66dc25f0bd916b46b64ffff5b887230430cdbf73881604051611c2d91906136c9565b60405180910390a150565b6000600560008473ffffffffffffffffffffffffffffffffffffffff1673ffffffffffffffffffffffffffffffffffffffff16815260200190815260200160002060008373ffffffffffffffffffffffffffffffffffffffff1673ffffffffffffffffffffffffffffffffffffffff16815260200190815260200160002060009054906101000a900460ff16905092915050565b600b8181548110611cdc57600080fd5b9060005260206000209060029182820401919006601002915054906101000a90046fffffffffffffffffffffffffffffffff1681565b60007f80ac58cd000000000000000000000000000000000000000000000000000000007bffffffffffffffffffffffffffffffffffffffffffffffffffffffff1916827bffffffffffffffffffffffffffffffffffffffffffffffffffffffff19161480611ddd57507f5b5e139f000000000000000000000000000000000000000000000000000000007bffffffffffffffffffffffffffffffffffffffffffffffffffffffff1916827bffffffffffffffffffffffffffffffffffffffffffffffffffffffff1916145b80611ded5750611dec82612830565b5b9050919050565b3373ffffffffffffffffffffffffffffffffffffffff16600d60009054906101000a900473ffffffffffffffffffffffffffffffffffffffff1673ffffffffffffffffffffffffffffffffffffffff1614611e84576040517f08c379a0000000000000000000000000000000000000000000000000000000008152600401611e7b90614c3b565b60405180910390fd5b565b611e8f8161289a565b611ece576040517f08c379a0000000000000000000000000000000000000000000000000000000008152600401611ec590614a3f565b60405180910390fd5b50565b600033905090565b816004600083815260200190815260200160002060006101000a81548173ffffffffffffffffffffffffffffffffffffffff021916908373ffffffffffffffffffffffffffffffffffffffff160217905550808273ffffffffffffffffffffffffffffffffffffffff16611f4c83611293565b73ffffffffffffffffffffffffffffffffffffffff167f8c5be1e5ebec7d5bd14f71427d1e84f3dd0314c0f7b2291e5b200ac8c7c3b92560405160405180910390a45050565b3373ffffffffffffffffffffffffffffffffffffffff16600c60009054906101000a900473ffffffffffffffffffffffffffffffffffffffff1673ffffffffffffffffffffffffffffffffffffffff1614612022576040517f08c379a000000000000000000000000000000000000000000000000000000000815260040161201990614ca7565b60405180910390fd5b565b8160009081612033919061435d565b508060019081612043919061435d565b505050565b60008061205483611293565b90508073ffffffffffffffffffffffffffffffffffffffff168473ffffffffffffffffffffffffffffffffffffffff16148061209657506120958185611c38565b5b806120d457508373ffffffffffffffffffffffffffffffffffffffff166120bc84610972565b73ffffffffffffffffffffffffffffffffffffffff16145b91505092915050565b8273ffffffffffffffffffffffffffffffffffffffff166120fd82611293565b73ffffffffffffffffffffffffffffffffffffffff1614612153576040517f08c379a000000000000000000000000000000000000000000000000000000000815260040161214a90614d39565b60405180910390fd5b600073ffffffffffffffffffffffffffffffffffffffff168273ffffffffffffffffffffffffffffffffffffffff16036121c2576040517f08c379a00000000000000000000000000000000000000000000000000000000081526004016121b990614dcb565b60405180910390fd5b6121cf83838360016128db565b8273ffffffffffffffffffffffffffffffffffffffff166121ef82611293565b73ffffffffffffffffffffffffffffffffffffffff1614612245576040517f08c379a000000000000000000000000000000000000000000000000000000000815260040161223c90614d39565b60405180910390fd5b6004600082815260200190815260200160002060006101000a81549073ffffffffffffffffffffffffffffffffffffffff02191690556001600360008573ffffffffffffffffffffffffffffffffffffffff1673ffffffffffffffffffffffffffffffffffffffff168152602001908152602001600020600082825403925050819055506001600360008473ffffffffffffffffffffffffffffffffffffffff1673ffffffffffffffffffffffffffffffffffffffff16815260200190815260200160002060008282540192505081905550816002600083815260200190815260200160002060006101000a81548173ffffffffffffffffffffffffffffffffffffffff021916908373ffffffffffffffffffffffffffffffffffffffff160217905550808273ffffffffffffffffffffffffffffffffffffffff168473ffffffffffffffffffffffffffffffffffffffff167fddf252ad1be2c89b69c2b068fc378daa952ba7f163c4a11628f55a4df523b3ef60405160405180910390a46123d18383836001612a39565b505050565b60006123e182611293565b90506123f18160008460016128db565b6123fa82611293565b90506004600083815260200190815260200160002060006101000a81549073ffffffffffffffffffffffffffffffffffffffff02191690556001600360008373ffffffffffffffffffffffffffffffffffffffff1673ffffffffffffffffffffffffffffffffffffffff168152602001908152602001600020600082825403925050819055506002600083815260200190815260200160002060006101000a81549073ffffffffffffffffffffffffffffffffffffffff021916905581600073ffffffffffffffffffffffffffffffffffffffff168273ffffffffffffffffffffffffffffffffffffffff167fddf252ad1be2c89b69c2b068fc378daa952ba7f163c4a11628f55a4df523b3ef60405160405180910390a4612520816000846001612a39565b5050565b60006002600083815260200190815260200160002060009054906101000a900473ffffffffffffffffffffffffffffffffffffffff169050919050565b60006010600083815260200190815260200160002054905060006001600f8054905061258d91906145ee565b9050600f81815481106125a3576125a261497c565b5b9060005260206000200154600f83815481106125c2576125c161497c565b5b90600052602060002001819055508160106000600f85815481106125e9576125e861497c565b5b9060005260206000200154815260200190815260200160002081905550600f80548061261857612617614deb565b5b600190038181906000526020600020016000905590556010600084815260200190815260200160002060009055505050565b8173ffffffffffffffffffffffffffffffffffffffff168373ffffffffffffffffffffffffffffffffffffffff16036126b8576040517f08c379a00000000000000000000000000000000000000000000000000000000081526004016126af90614e66565b60405180910390fd5b80600560008573ffffffffffffffffffffffffffffffffffffffff1673ffffffffffffffffffffffffffffffffffffffff16815260200190815260200160002060008473ffffffffffffffffffffffffffffffffffffffff1673ffffffffffffffffffffffffffffffffffffffff16815260200190815260200160002060006101000a81548160ff0219169083151502179055508173ffffffffffffffffffffffffffffffffffffffff168373ffffffffffffffffffffffffffffffffffffffff167f17307eab39ab6107e8899845ad3d59bd9653f200f220920489ca2b5937696c31836040516127a991906134a0565b60405180910390a3505050565b6127c18484846120dd565b6127cd84848484612a3f565b61280c576040517f08c379a000000000000000000000000000000000000000000000000000000000815260040161280390614ef8565b60405180910390fd5b50505050565b61282c828260405180602001604052806000815250612bc6565b5050565b60007f01ffc9a7000000000000000000000000000000000000000000000000000000007bffffffffffffffffffffffffffffffffffffffffffffffffffffffff1916827bffffffffffffffffffffffffffffffffffffffffffffffffffffffff1916149050919050565b60008073ffffffffffffffffffffffffffffffffffffffff166128bc83612524565b73ffffffffffffffffffffffffffffffffffffffff1614159050919050565b6128e784848484612c21565b600181111561292b576040517f08c379a000000000000000000000000000000000000000000000000000000000815260040161292290614f8a565b60405180910390fd5b6000829050600073ffffffffffffffffffffffffffffffffffffffff168573ffffffffffffffffffffffffffffffffffffffff16036129725761296d81612d47565b6129b1565b8373ffffffffffffffffffffffffffffffffffffffff168573ffffffffffffffffffffffffffffffffffffffff16146129b0576129af8582612d90565b5b5b600073ffffffffffffffffffffffffffffffffffffffff168473ffffffffffffffffffffffffffffffffffffffff16036129f3576129ee81612efd565b612a32565b8473ffffffffffffffffffffffffffffffffffffffff168473ffffffffffffffffffffffffffffffffffffffff1614612a3157612a308482612fce565b5b5b5050505050565b50505050565b6000612a608473ffffffffffffffffffffffffffffffffffffffff1661304d565b15612bb9578373ffffffffffffffffffffffffffffffffffffffff1663150b7a02612a89611ed1565b8786866040518563ffffffff1660e01b8152600401612aab9493929190614fff565b6020604051808303816000875af1925050508015612ae757506040513d601f19601f82011682018060405250810190612ae49190615060565b60015b612b69573d8060008114612b17576040519150601f19603f3d011682016040523d82523d6000602084013e612b1c565b606091505b506000815103612b61576040517f08c379a0000000000000000000000000000000000000000000000000000000008152600401612b5890614ef8565b60405180910390fd5b805181602001fd5b63150b7a0260e01b7bffffffffffffffffffffffffffffffffffffffffffffffffffffffff1916817bffffffffffffffffffffffffffffffffffffffffffffffffffffffff191614915050612bbe565b600190505b949350505050565b612bd08383613070565b612bdd6000848484612a3f565b612c1c576040517f08c379a0000000000000000000000000000000000000000000000000000000008152600401612c1390614ef8565b60405180910390fd5b505050565b6001811115612d4157600073ffffffffffffffffffffffffffffffffffffffff168473ffffffffffffffffffffffffffffffffffffffff1614612cb55780600360008673ffffffffffffffffffffffffffffffffffffffff1673ffffffffffffffffffffffffffffffffffffffff1681526020019081526020016000206000828254612cad91906145ee565b925050819055505b600073ffffffffffffffffffffffffffffffffffffffff168373ffffffffffffffffffffffffffffffffffffffff1614612d405780600360008573ffffffffffffffffffffffffffffffffffffffff1673ffffffffffffffffffffffffffffffffffffffff1681526020019081526020016000206000828254612d38919061508d565b925050819055505b5b50505050565b6008805490506009600083815260200190815260200160002081905550600881908060018154018082558091505060019003906000526020600020016000909190919091505550565b60006001612d9d84611319565b612da791906145ee565b9050600060076000848152602001908152602001600020549050818114612e8c576000600660008673ffffffffffffffffffffffffffffffffffffffff1673ffffffffffffffffffffffffffffffffffffffff168152602001908152602001600020600084815260200190815260200160002054905080600660008773ffffffffffffffffffffffffffffffffffffffff1673ffffffffffffffffffffffffffffffffffffffff168152602001908152602001600020600084815260200190815260200160002081905550816007600083815260200190815260200160002081905550505b6007600084815260200190815260200160002060009055600660008573ffffffffffffffffffffffffffffffffffffffff1673ffffffffffffffffffffffffffffffffffffffff16815260200190815260200160002060008381526020019081526020016000206000905550505050565b60006001600880549050612f1191906145ee565b9050600060096000848152602001908152602001600020549050600060088381548110612f4157612f4061497c565b5b906000526020600020015490508060088381548110612f6357612f6261497c565b5b906000526020600020018190555081600960008381526020019081526020016000208190555060096000858152602001908152602001600020600090556008805480612fb257612fb1614deb565b5b6001900381819060005260206000200160009055905550505050565b6000612fd983611319565b905081600660008573ffffffffffffffffffffffffffffffffffffffff1673ffffffffffffffffffffffffffffffffffffffff168152602001908152602001600020600083815260200190815260200160002081905550806007600084815260200190815260200160002081905550505050565b6000808273ffffffffffffffffffffffffffffffffffffffff163b119050919050565b600073ffffffffffffffffffffffffffffffffffffffff168273ffffffffffffffffffffffffffffffffffffffff16036130df576040517f08c379a00000000000000000000000000000000000000000000000000000000081526004016130d69061510d565b60405180910390fd5b6130e88161289a565b15613128576040517f08c379a000000000000000000000000000000000000000000000000000000000815260040161311f90615179565b60405180910390fd5b6131366000838360016128db565b61313f8161289a565b1561317f576040517f08c379a000000000000000000000000000000000000000000000000000000000815260040161317690615179565b60405180910390fd5b6001600360008473ffffffffffffffffffffffffffffffffffffffff1673ffffffffffffffffffffffffffffffffffffffff16815260200190815260200160002060008282540192505081905550816002600083815260200190815260200160002060006101000a81548173ffffffffffffffffffffffffffffffffffffffff021916908373ffffffffffffffffffffffffffffffffffffffff160217905550808273ffffffffffffffffffffffffffffffffffffffff16600073ffffffffffffffffffffffffffffffffffffffff167fddf252ad1be2c89b69c2b068fc378daa952ba7f163c4a11628f55a4df523b3ef60405160405180910390a4613289600083836001612a39565b5050565b828054828255906000526020600020906001016002900481019282156133505791602002820160005b8382111561331257835183826101000a8154816fffffffffffffffffffffffffffffffff02191690836fffffffffffffffffffffffffffffffff1602179055509260200192601001602081600f010492830192600103026132b6565b801561334e5782816101000a8154906fffffffffffffffffffffffffffffffff0219169055601001602081600f01049283019260010302613312565b505b50905061335d91906133cf565b5090565b508054600082559060005260206000209081019061337f91906133cf565b50565b8280548282559060005260206000209081019282156133be579160200282015b828111156133bd5782518255916020019190600101906133a2565b5b5090506133cb91906133cf565b5090565b5b808211156133e85760008160009055506001016133d0565b5090565b6000604051905090565b600080fd5b600080fd5b60007fffffffff0000000000000000000000000000000000000000000000000000000082169050919050565b61343581613400565b811461344057600080fd5b50565b6000813590506134528161342c565b92915050565b60006020828403121561346e5761346d6133f6565b5b600061347c84828501613443565b91505092915050565b60008115159050919050565b61349a81613485565b82525050565b60006020820190506134b56000830184613491565b92915050565b600080fd5b600080fd5b6000601f19601f8301169050919050565b7f4e487b7100000000000000000000000000000000000000000000000000000000600052604160045260246000fd5b61350e826134c5565b810181811067ffffffffffffffff8211171561352d5761352c6134d6565b5b80604052505050565b60006135406133ec565b905061354c8282613505565b919050565b600067ffffffffffffffff82111561356c5761356b6134d6565b5b613575826134c5565b9050602081019050919050565b82818337600083830152505050565b60006135a461359f84613551565b613536565b9050828152602081018484840111156135c0576135bf6134c0565b5b6135cb848285613582565b509392505050565b600082601f8301126135e8576135e76134bb565b5b81356135f8848260208601613591565b91505092915050565b600060208284031215613617576136166133f6565b5b600082013567ffffffffffffffff811115613635576136346133fb565b5b613641848285016135d3565b91505092915050565b600081519050919050565b600082825260208201905092915050565b60005b83811015613684578082015181840152602081019050613669565b60008484015250505050565b600061369b8261364a565b6136a58185613655565b93506136b5818560208601613666565b6136be816134c5565b840191505092915050565b600060208201905081810360008301526136e38184613690565b905092915050565b6000819050919050565b6136fe816136eb565b811461370957600080fd5b50565b60008135905061371b816136f5565b92915050565b600060208284031215613737576137366133f6565b5b60006137458482850161370c565b91505092915050565b600073ffffffffffffffffffffffffffffffffffffffff82169050919050565b60006137798261374e565b9050919050565b6137898161376e565b82525050565b60006020820190506137a46000830184613780565b92915050565b6137b38161376e565b81146137be57600080fd5b50565b6000813590506137d0816137aa565b92915050565b600080604083850312156137ed576137ec6133f6565b5b60006137fb858286016137c1565b925050602061380c8582860161370c565b9150509250929050565b60006020828403121561382c5761382b6133f6565b5b600061383a848285016137c1565b91505092915050565b600080fd5b600080fd5b60008083601f840112613863576138626134bb565b5b8235905067ffffffffffffffff8111156138805761387f613843565b5b60208301915083600182028301111561389c5761389b613848565b5b9250929050565b6000806000806000608086880312156138bf576138be6133f6565b5b60006138cd888289016137c1565b95505060206138de888289016137c1565b94505060406138ef8882890161370c565b935050606086013567ffffffffffffffff8111156139105761390f6133fb565b5b61391c8882890161384d565b92509250509295509295909350565b61393481613400565b82525050565b600060208201905061394f600083018461392b565b92915050565b61395e816136eb565b82525050565b60006020820190506139796000830184613955565b92915050565b600067ffffffffffffffff82111561399a576139996134d6565b5b602082029050602081019050919050565b60006fffffffffffffffffffffffffffffffff82169050919050565b6139d0816139ab565b81146139db57600080fd5b50565b6000813590506139ed816139c7565b92915050565b6000613a06613a018461397f565b613536565b90508083825260208201905060208402830185811115613a2957613a28613848565b5b835b81811015613a525780613a3e88826139de565b845260208401935050602081019050613a2b565b5050509392505050565b600082601f830112613a7157613a706134bb565b5b8135613a818482602086016139f3565b91505092915050565b600080600080600080600060e0888a031215613aa957613aa86133f6565b5b6000613ab78a828b016137c1565b975050602088013567ffffffffffffffff811115613ad857613ad76133fb565b5b613ae48a828b016135d3565b965050604088013567ffffffffffffffff811115613b0557613b046133fb565b5b613b118a828b016135d3565b955050606088013567ffffffffffffffff811115613b3257613b316133fb565b5b613b3e8a828b016135d3565b945050608088013567ffffffffffffffff811115613b5f57613b5e6133fb565b5b613b6b8a828b016135d3565b93505060a088013567ffffffffffffffff811115613b8c57613b8b6133fb565b5b613b988a828b01613a5c565b92505060c0613ba98a828b016137c1565b91505092959891949750929550565b600080600060608486031215613bd157613bd06133f6565b5b6000613bdf868287016137c1565b9350506020613bf0868287016137c1565b9250506040613c018682870161370c565b9150509250925092565b600081519050919050565b600082825260208201905092915050565b6000819050602082019050919050565b613c40816136eb565b82525050565b6000613c528383613c37565b60208301905092915050565b6000602082019050919050565b6000613c7682613c0b565b613c808185613c16565b9350613c8b83613c27565b8060005b83811015613cbc578151613ca38882613c46565b9750613cae83613c5e565b925050600181019050613c8f565b5085935050505092915050565b60006020820190508181036000830152613ce38184613c6b565b905092915050565b600067ffffffffffffffff821115613d0657613d056134d6565b5b602082029050602081019050919050565b6000613d2a613d2584613ceb565b613536565b90508083825260208201905060208402830185811115613d4d57613d4c613848565b5b835b81811015613d765780613d62888261370c565b845260208401935050602081019050613d4f565b5050509392505050565b600082601f830112613d9557613d946134bb565b5b8135613da5848260208601613d17565b91505092915050565b600060ff82169050919050565b613dc481613dae565b8114613dcf57600080fd5b50565b600081359050613de181613dbb565b92915050565b60008060408385031215613dfe57613dfd6133f6565b5b600083013567ffffffffffffffff811115613e1c57613e1b6133fb565b5b613e2885828601613d80565b9250506020613e3985828601613dd2565b9150509250929050565b613e4c81613485565b8114613e5757600080fd5b50565b600081359050613e6981613e43565b92915050565b60008060408385031215613e8657613e856133f6565b5b6000613e94858286016137c1565b9250506020613ea585828601613e5a565b9150509250929050565b60008060408385031215613ec657613ec56133f6565b5b600083013567ffffffffffffffff811115613ee457613ee36133fb565b5b613ef085828601613d80565b925050602083013567ffffffffffffffff811115613f1157613f106133fb565b5b613f1d85828601613d80565b9150509250929050565b60008060408385031215613f3e57613f3d6133f6565b5b6000613f4c8582860161370c565b925050602083013567ffffffffffffffff811115613f6d57613f6c6133fb565b5b613f7985828601613d80565b9150509250929050565b60008060408385031215613f9a57613f996133f6565b5b6000613fa88582860161370c565b9250506020613fb98582860161370c565b9150509250929050565b600067ffffffffffffffff821115613fde57613fdd6134d6565b5b613fe7826134c5565b9050602081019050919050565b600061400761400284613fc3565b613536565b905082815260208101848484011115614023576140226134c0565b5b61402e848285613582565b509392505050565b600082601f83011261404b5761404a6134bb565b5b813561405b848260208601613ff4565b91505092915050565b6000806000806080858703121561407e5761407d6133f6565b5b600061408c878288016137c1565b945050602061409d878288016137c1565b93505060406140ae8782880161370c565b925050606085013567ffffffffffffffff8111156140cf576140ce6133fb565b5b6140db87828801614036565b91505092959194509250565b600080604083850312156140fe576140fd6133f6565b5b600061410c858286016137c1565b925050602061411d858286016137c1565b9150509250929050565b614130816139ab565b82525050565b600060208201905061414b6000830184614127565b92915050565b7f4e487b7100000000000000000000000000000000000000000000000000000000600052602260045260246000fd5b6000600282049050600182168061419857607f821691505b6020821081036141ab576141aa614151565b5b50919050565b60008190508160005260206000209050919050565b60006020601f8301049050919050565b600082821b905092915050565b6000600883026142137fffffffffffffffffffffffffffffffffffffffffffffffffffffffffffffffff826141d6565b61421d86836141d6565b95508019841693508086168417925050509392505050565b6000819050919050565b600061425a614255614250846136eb565b614235565b6136eb565b9050919050565b6000819050919050565b6142748361423f565b61428861428082614261565b8484546141e3565b825550505050565b600090565b61429d614290565b6142a881848461426b565b505050565b5b818110156142cc576142c1600082614295565b6001810190506142ae565b5050565b601f821115614311576142e2816141b1565b6142eb846141c6565b810160208510156142fa578190505b61430e614306856141c6565b8301826142ad565b50505b505050565b600082821c905092915050565b600061433460001984600802614316565b1980831691505092915050565b600061434d8383614323565b9150826002028217905092915050565b6143668261364a565b67ffffffffffffffff81111561437f5761437e6134d6565b5b6143898254614180565b6143948282856142d0565b600060209050601f8311600181146143c757600084156143b5578287015190505b6143bf8582614341565b865550614427565b601f1984166143d5866141b1565b60005b828110156143fd578489015182556001820191506020850194506020810190506143d8565b8683101561441a5784890151614416601f891682614323565b8355505b6001600288020188555050505b505050505050565b7f4552433732313a20617070726f76616c20746f2063757272656e74206f776e6560008201527f7200000000000000000000000000000000000000000000000000000000000000602082015250565b600061448b602183613655565b91506144968261442f565b604082019050919050565b600060208201905081810360008301526144ba8161447e565b9050919050565b7f4552433732313a20617070726f76652063616c6c6572206973206e6f7420746f60008201527f6b656e206f776e6572206f7220617070726f76656420666f7220616c6c000000602082015250565b600061451d603d83613655565b9150614528826144c1565b604082019050919050565b6000602082019050818103600083015261454c81614510565b9050919050565b7f4e6f7420616e206163636570746564204e465400000000000000000000000000600082015250565b6000614589601383613655565b915061459482614553565b602082019050919050565b600060208201905081810360008301526145b88161457c565b9050919050565b7f4e487b7100000000000000000000000000000000000000000000000000000000600052601160045260246000fd5b60006145f9826136eb565b9150614604836136eb565b925082820390508181111561461c5761461b6145bf565b5b92915050565b7f4261736520436f6e747261637400000000000000000000000000000000000000600082015250565b6000614658600d83613655565b915061466382614622565b602082019050919050565b600060208201905081810360008301526146878161464b565b9050919050565b7f416c726561647920696e697469616c697a656400000000000000000000000000600082015250565b60006146c4601383613655565b91506146cf8261468e565b602082019050919050565b600060208201905081810360008301526146f3816146b7565b9050919050565b7f4552433732313a2063616c6c6572206973206e6f7420746f6b656e206f776e6560008201527f72206f7220617070726f76656400000000000000000000000000000000000000602082015250565b6000614756602d83613655565b9150614761826146fa565b604082019050919050565b6000602082019050818103600083015261478581614749565b9050919050565b7f455243373231456e756d657261626c653a206f776e657220696e646578206f7560008201527f74206f6620626f756e6473000000000000000000000000000000000000000000602082015250565b60006147e8602b83613655565b91506147f38261478c565b604082019050919050565b60006020820190508181036000830152614817816147db565b9050919050565b7f4973206e6f7420696e697469616c697a65640000000000000000000000000000600082015250565b6000614854601283613655565b915061485f8261481e565b602082019050919050565b6000602082019050818103600083015261488381614847565b9050919050565b600060608201905061489f6000830186613780565b6148ac6020830185613780565b6148b96040830184613955565b949350505050565b60006040820190506148d66000830185613955565b6148e36020830184613955565b9392505050565b7f455243373231456e756d657261626c653a20676c6f62616c20696e646578206f60008201527f7574206f6620626f756e64730000000000000000000000000000000000000000602082015250565b6000614946602c83613655565b9150614951826148ea565b604082019050919050565b6000602082019050818103600083015261497581614939565b9050919050565b7f4e487b7100000000000000000000000000000000000000000000000000000000600052603260045260246000fd5b60006149b6826136eb565b91507fffffffffffffffffffffffffffffffffffffffffffffffffffffffffffffffff82036149e8576149e76145bf565b5b600182019050919050565b7f4552433732313a20696e76616c696420746f6b656e2049440000000000000000600082015250565b6000614a29601883613655565b9150614a34826149f3565b602082019050919050565b60006020820190508181036000830152614a5881614a1c565b9050919050565b7f4552433732313a2061646472657373207a65726f206973206e6f74206120766160008201527f6c6964206f776e65720000000000000000000000000000000000000000000000602082015250565b6000614abb602983613655565b9150614ac682614a5f565b604082019050919050565b60006020820190508181036000830152614aea81614aae565b9050919050565b7f4e4654206973206c6f636b656400000000000000000000000000000000000000600082015250565b6000614b27600d83613655565b9150614b3282614af1565b602082019050919050565b60006020820190508181036000830152614b5681614b1a565b9050919050565b7f43616e206e6f74206d696e742065787465726e616c204e46542c20546869732060008201527f6973206e6f7420636f727265637420636f6e7472616374000000000000000000602082015250565b6000614bb9603783613655565b9150614bc482614b5d565b604082019050919050565b60006020820190508181036000830152614be881614bac565b9050919050565b7f4f6e6c79466163746f7279000000000000000000000000000000000000000000600082015250565b6000614c25600b83613655565b9150614c3082614bef565b602082019050919050565b60006020820190508181036000830152614c5481614c18565b9050919050565b7f4f6e6c794f776e65720000000000000000000000000000000000000000000000600082015250565b6000614c91600983613655565b9150614c9c82614c5b565b602082019050919050565b60006020820190508181036000830152614cc081614c84565b9050919050565b7f4552433732313a207472616e736665722066726f6d20696e636f72726563742060008201527f6f776e6572000000000000000000000000000000000000000000000000000000602082015250565b6000614d23602583613655565b9150614d2e82614cc7565b604082019050919050565b60006020820190508181036000830152614d5281614d16565b9050919050565b7f4552433732313a207472616e7366657220746f20746865207a65726f2061646460008201527f7265737300000000000000000000000000000000000000000000000000000000602082015250565b6000614db5602483613655565b9150614dc082614d59565b604082019050919050565b60006020820190508181036000830152614de481614da8565b9050919050565b7f4e487b7100000000000000000000000000000000000000000000000000000000600052603160045260246000fd5b7f4552433732313a20617070726f766520746f2063616c6c657200000000000000600082015250565b6000614e50601983613655565b9150614e5b82614e1a565b602082019050919050565b60006020820190508181036000830152614e7f81614e43565b9050919050565b7f4552433732313a207472616e7366657220746f206e6f6e20455243373231526560008201527f63656976657220696d706c656d656e7465720000000000000000000000000000602082015250565b6000614ee2603283613655565b9150614eed82614e86565b604082019050919050565b60006020820190508181036000830152614f1181614ed5565b9050919050565b7f455243373231456e756d657261626c653a20636f6e736563757469766520747260008201527f616e7366657273206e6f7420737570706f727465640000000000000000000000602082015250565b6000614f74603583613655565b9150614f7f82614f18565b604082019050919050565b60006020820190508181036000830152614fa381614f67565b9050919050565b600081519050919050565b600082825260208201905092915050565b6000614fd182614faa565b614fdb8185614fb5565b9350614feb818560208601613666565b614ff4816134c5565b840191505092915050565b60006080820190506150146000830187613780565b6150216020830186613780565b61502e6040830185613955565b81810360608301526150408184614fc6565b905095945050505050565b60008151905061505a8161342c565b92915050565b600060208284031215615076576150756133f6565b5b60006150848482850161504b565b91505092915050565b6000615098826136eb565b91506150a3836136eb565b92508282019050808211156150bb576150ba6145bf565b5b92915050565b7f4552433732313a206d696e7420746f20746865207a65726f2061646472657373600082015250565b60006150f7602083613655565b9150615102826150c1565b602082019050919050565b60006020820190508181036000830152615126816150ea565b9050919050565b7f4552433732313a20746f6b656e20616c7265616479206d696e74656400000000600082015250565b6000615163601c83613655565b915061516e8261512d565b602082019050919050565b6000602082019050818103600083015261519281615156565b905091905056fea2646970667358221220e9c0f24524c4e2455e1888e35ce90db56a335473fb190bc4c47ba9590acf5bdf64736f6c63430008110033",
  "linkReferences": {},
  "deployedLinkReferences": {}
}